B24-QI02
BC-BANK CENTRAL ASIA              150222APPROVED PAYMENT          000000015000000500432500000000000952300
BC-BANK CENTRAL ASIA              150222APPROVED REFUND           000000000000000000000000000000000000000
BC-BANK CENTRAL ASIA              150222APPROVED CHECK STATUS     000000000000000000000000000000000000000
BC-BANK CENTRAL ASIA              150222SUSPENDED PAYMENT         000000000000000000000000000000000000000
BC-BANK CENTRAL ASIA              150222SUSPENDED REFUND          000000000000000000000000000000000000000
BC-BANK CENTRAL ASIA              150222SUSPENDED CHECK STATUS    000000000000000000000000000000000000000
BC-BANK CENTRAL ASIA              150222DECLINED PAYMENT          000000000000000000000000000000000000000
BC-BANK CENTRAL ASIA              150222DECLINED REFUND           000000000000000000000000000000000000000
BC-BANK CENTRAL ASIA              150222DECLINED CHECK STATUS     000000000000000000000000000000000000000
CN-BANK CIMB NIAGA                150222APPROVED PAYMENT          000000001000000033090000000000000071805
CN-BANK CIMB NIAGA                150222APPROVED REFUND           000000000000000000000000000000000000000
CN-BANK CIMB NIAGA                150222APPROVED CHECK STATUS     000000000000000000000000000000000000000
CN-BANK CIMB NIAGA                150222SUSPENDED PAYMENT         000000000000000000000000000000000000000
CN-BANK CIMB NIAGA                150222SUSPENDED REFUND          000000000000000000000000000000000000000
CN-BANK CIMB NIAGA                150222SUSPENDED CHECK STATUS    000000000000000000000000000000000000000
CN-BANK CIMB NIAGA                150222DECLINED PAYMENT          000000000000000000000000000000000000000
CN-BANK CIMB NIAGA                150222DECLINED REFUND           000000000000000000000000000000000000000
CN-BANK CIMB NIAGA                150222DECLINED CHECK STATUS     000000000000000000000000000000000000000
AL-360003 ALTO                    150222APPROVED PAYMENT          000000008000000093622000000000000107659
AL-360003 ALTO                    150222APPROVED REFUND           000000000000000000000000000000000000000
AL-360003 ALTO                    150222APPROVED CHECK STATUS     000000000000000000000000000000000000000
AL-360003 ALTO                    150222SUSPENDED PAYMENT         000000000000000000000000000000000000000
AL-360003 ALTO                    150222SUSPENDED REFUND          000000000000000000000000000000000000000
AL-360003 ALTO                    150222SUSPENDED CHECK STATUS    000000000000000000000000000000000000000
AL-360003 ALTO                    150222DECLINED PAYMENT          000000000000000000000000000000000000000
AL-360003 ALTO                    150222DECLINED REFUND           000000000000000000000000000000000000000
AL-360003 ALTO                    150222DECLINED CHECK STATUS     000000000000000000000000000000000000000
AJ-360001 ARTAJASA                150222APPROVED PAYMENT          000000018000000175390000000000000302384
AJ-360001 ARTAJASA                150222APPROVED REFUND           000000000000000000000000000000000000000
AJ-360001 ARTAJASA                150222APPROVED CHECK STATUS     000000000000000000000000000000000000000
AJ-360001 ARTAJASA                150222SUSPENDED PAYMENT         000000000000000000000000000000000000000
AJ-360001 ARTAJASA                150222SUSPENDED REFUND          000000000000000000000000000000000000000
AJ-360001 ARTAJASA                150222SUSPENDED CHECK STATUS    000000000000000000000000000000000000000
AJ-360001 ARTAJASA                150222DECLINED PAYMENT          000000000000000000000000000000000000000
AJ-360001 ARTAJASA                150222DECLINED REFUND           000000000000000000000000000000000000000
AJ-360001 ARTAJASA                150222DECLINED CHECK STATUS     000000000000000000000000000000000000000
JL-360004 JALIN                   150222APPROVED PAYMENT          000000003000000042700000000000000075950
JL-360004 JALIN                   150222APPROVED REFUND           000000000000000000000000000000000000000
JL-360004 JALIN                   150222APPROVED CHECK STATUS     000000000000000000000000000000000000000
JL-360004 JALIN                   150222SUSPENDED PAYMENT         000000000000000000000000000000000000000
JL-360004 JALIN                   150222SUSPENDED REFUND          000000000000000000000000000000000000000
JL-360004 JALIN                   150222SUSPENDED CHECK STATUS    000000000000000000000000000000000000000
JL-360004 JALIN                   150222DECLINED PAYMENT          000000000000000000000000000000000000000
JL-360004 JALIN                   150222DECLINED REFUND           000000000000000000000000000000000000000
JL-360004 JALIN                   150222DECLINED CHECK STATUS     000000000000000000000000000000000000000
DN-BANK DANAMON                   150222APPROVED PAYMENT          000000000000000000000000000000000000000
DN-BANK DANAMON                   150222APPROVED REFUND           000000000000000000000000000000000000000
DN-BANK DANAMON                   150222APPROVED CHECK STATUS     000000000000000000000000000000000000000
DN-BANK DANAMON                   150222SUSPENDED PAYMENT         000000000000000000000000000000000000000
DN-BANK DANAMON                   150222SUSPENDED REFUND          000000000000000000000000000000000000000
DN-BANK DANAMON                   150222SUSPENDED CHECK STATUS    000000000000000000000000000000000000000
DN-BANK DANAMON                   150222DECLINED PAYMENT          000000000000000000000000000000000000000
DN-BANK DANAMON                   150222DECLINED REFUND           000000000000000000000000000000000000000
DN-BANK DANAMON                   150222DECLINED CHECK STATUS     000000000000000000000000000000000000000
DK-BANK DKI                       150222APPROVED PAYMENT          000000001000000012400000000000000026908
DK-BANK DKI                       150222APPROVED REFUND           000000000000000000000000000000000000000
DK-BANK DKI                       150222APPROVED CHECK STATUS     000000000000000000000000000000000000000
DK-BANK DKI                       150222SUSPENDED PAYMENT         000000000000000000000000000000000000000
DK-BANK DKI                       150222SUSPENDED REFUND          000000000000000000000000000000000000000
DK-BANK DKI                       150222SUSPENDED CHECK STATUS    000000000000000000000000000000000000000
DK-BANK DKI                       150222DECLINED PAYMENT          000000000000000000000000000000000000000
DK-BANK DKI                       150222DECLINED REFUND           000000000000000000000000000000000000000
DK-BANK DKI                       150222DECLINED CHECK STATUS     000000000000000000000000000000000000000
MG-BANK MEGA                      150222APPROVED PAYMENT          000000000000000000000000000000000000000
MG-BANK MEGA                      150222APPROVED REFUND           000000000000000000000000000000000000000
MG-BANK MEGA                      150222APPROVED CHECK STATUS     000000000000000000000000000000000000000
MG-BANK MEGA                      150222SUSPENDED PAYMENT         000000000000000000000000000000000000000
MG-BANK MEGA                      150222SUSPENDED REFUND          000000000000000000000000000000000000000
MG-BANK MEGA                      150222SUSPENDED CHECK STATUS    000000000000000000000000000000000000000
MG-BANK MEGA                      150222DECLINED PAYMENT          000000000000000000000000000000000000000
MG-BANK MEGA                      150222DECLINED REFUND           000000000000000000000000000000000000000
MG-BANK MEGA                      150222DECLINED CHECK STATUS     000000000000000000000000000000000000000
BS-BANK SUMSELBABEL               150222APPROVED PAYMENT          000000000000000000000000000000000000000
BS-BANK SUMSELBABEL               150222APPROVED REFUND           000000000000000000000000000000000000000
BS-BANK SUMSELBABEL               150222APPROVED CHECK STATUS     000000000000000000000000000000000000000
BS-BANK SUMSELBABEL               150222SUSPENDED PAYMENT         000000000000000000000000000000000000000
BS-BANK SUMSELBABEL               150222SUSPENDED REFUND          000000000000000000000000000000000000000
BS-BANK SUMSELBABEL               150222SUSPENDED CHECK STATUS    000000000000000000000000000000000000000
BS-BANK SUMSELBABEL               150222DECLINED PAYMENT          000000000000000000000000000000000000000
BS-BANK SUMSELBABEL               150222DECLINED REFUND           000000000000000000000000000000000000000
BS-BANK SUMSELBABEL               150222DECLINED CHECK STATUS     000000000000000000000000000000000000000
JB-BANK JABAR BANTEN              150222APPROVED PAYMENT          000000002000000108000000000000000000000
JB-BANK JABAR BANTEN              150222APPROVED REFUND           000000000000000000000000000000000000000
JB-BANK JABAR BANTEN              150222APPROVED CHECK STATUS     000000000000000000000000000000000000000
JB-BANK JABAR BANTEN              150222SUSPENDED PAYMENT         000000000000000000000000000000000000000
JB-BANK JABAR BANTEN              150222SUSPENDED REFUND          000000000000000000000000000000000000000
JB-BANK JABAR BANTEN              150222SUSPENDED CHECK STATUS    000000000000000000000000000000000000000
JB-BANK JABAR BANTEN              150222DECLINED PAYMENT          000000000000000000000000000000000000000
JB-BANK JABAR BANTEN              150222DECLINED REFUND           000000000000000000000000000000000000000
JB-BANK JABAR BANTEN              150222DECLINED CHECK STATUS     000000000000000000000000000000000000000
NG-BANK NAGARI                    150222APPROVED PAYMENT          000000000000000000000000000000000000000
NG-BANK NAGARI                    150222APPROVED REFUND           000000000000000000000000000000000000000
NG-BANK NAGARI                    150222APPROVED CHECK STATUS     000000000000000000000000000000000000000
NG-BANK NAGARI                    150222SUSPENDED PAYMENT         000000000000000000000000000000000000000
NG-BANK NAGARI                    150222SUSPENDED REFUND          000000000000000000000000000000000000000
NG-BANK NAGARI                    150222SUSPENDED CHECK STATUS    000000000000000000000000000000000000000
NG-BANK NAGARI                    150222DECLINED PAYMENT          000000000000000000000000000000000000000
NG-BANK NAGARI                    150222DECLINED REFUND           000000000000000000000000000000000000000
NG-BANK NAGARI                    150222DECLINED CHECK STATUS     000000000000000000000000000000000000000
OC-OTTOCASH                       150222APPROVED PAYMENT          000000000000000000000000000000000000000
OC-OTTOCASH                       150222APPROVED REFUND           000000000000000000000000000000000000000
OC-OTTOCASH                       150222APPROVED CHECK STATUS     000000000000000000000000000000000000000
OC-OTTOCASH                       150222SUSPENDED PAYMENT         000000000000000000000000000000000000000
OC-OTTOCASH                       150222SUSPENDED REFUND          000000000000000000000000000000000000000
OC-OTTOCASH                       150222SUSPENDED CHECK STATUS    000000000000000000000000000000000000000
OC-OTTOCASH                       150222DECLINED PAYMENT          000000000000000000000000000000000000000
OC-OTTOCASH                       150222DECLINED REFUND           000000000000000000000000000000000000000
OC-OTTOCASH                       150222DECLINED CHECK STATUS     000000000000000000000000000000000000000
NS-BANK OCBC NISP                 150222APPROVED PAYMENT          000000000000000000000000000000000000000
NS-BANK OCBC NISP                 150222APPROVED REFUND           000000000000000000000000000000000000000
NS-BANK OCBC NISP                 150222APPROVED CHECK STATUS     000000000000000000000000000000000000000
NS-BANK OCBC NISP                 150222SUSPENDED PAYMENT         000000000000000000000000000000000000000
NS-BANK OCBC NISP                 150222SUSPENDED REFUND          000000000000000000000000000000000000000
NS-BANK OCBC NISP                 150222SUSPENDED CHECK STATUS    000000000000000000000000000000000000000
NS-BANK OCBC NISP                 150222DECLINED PAYMENT          000000000000000000000000000000000000000
NS-BANK OCBC NISP                 150222DECLINED REFUND           000000000000000000000000000000000000000
NS-BANK OCBC NISP                 150222DECLINED CHECK STATUS     000000000000000000000000000000000000000
HN-BANK HANA                      150222APPROVED PAYMENT          000000000000000000000000000000000000000
HN-BANK HANA                      150222APPROVED REFUND           000000000000000000000000000000000000000
HN-BANK HANA                      150222APPROVED CHECK STATUS     000000000000000000000000000000000000000
HN-BANK HANA                      150222SUSPENDED PAYMENT         000000000000000000000000000000000000000
HN-BANK HANA                      150222SUSPENDED REFUND          000000000000000000000000000000000000000
HN-BANK HANA                      150222SUSPENDED CHECK STATUS    000000000000000000000000000000000000000
HN-BANK HANA                      150222DECLINED PAYMENT          000000000000000000000000000000000000000
HN-BANK HANA                      150222DECLINED REFUND           000000000000000000000000000000000000000
HN-BANK HANA                      150222DECLINED CHECK STATUS     000000000000000000000000000000000000000
KP-KASPRO                         150222APPROVED PAYMENT          000000000000000000000000000000000000000
KP-KASPRO                         150222APPROVED REFUND           000000000000000000000000000000000000000
KP-KASPRO                         150222APPROVED CHECK STATUS     000000000000000000000000000000000000000
KP-KASPRO                         150222SUSPENDED PAYMENT         000000000000000000000000000000000000000
KP-KASPRO                         150222SUSPENDED REFUND          000000000000000000000000000000000000000
KP-KASPRO                         150222SUSPENDED CHECK STATUS    000000000000000000000000000000000000000
KP-KASPRO                         150222DECLINED PAYMENT          000000000000000000000000000000000000000
KP-KASPRO                         150222DECLINED REFUND           000000000000000000000000000000000000000
KP-KASPRO                         150222DECLINED CHECK STATUS     000000000000000000000000000000000000000
TP-BANK TABUNGAN PENSIUNAN NASION 150222APPROVED PAYMENT          000000000000000000000000000000000000000
TP-BANK TABUNGAN PENSIUNAN NASION 150222APPROVED REFUND           000000000000000000000000000000000000000
TP-BANK TABUNGAN PENSIUNAN NASION 150222APPROVED CHECK STATUS     000000000000000000000000000000000000000
TP-BANK TABUNGAN PENSIUNAN NASION 150222SUSPENDED PAYMENT         000000000000000000000000000000000000000
TP-BANK TABUNGAN PENSIUNAN NASION 150222SUSPENDED REFUND          000000000000000000000000000000000000000
TP-BANK TABUNGAN PENSIUNAN NASION 150222SUSPENDED CHECK STATUS    000000000000000000000000000000000000000
TP-BANK TABUNGAN PENSIUNAN NASION 150222DECLINED PAYMENT          000000000000000000000000000000000000000
TP-BANK TABUNGAN PENSIUNAN NASION 150222DECLINED REFUND           000000000000000000000000000000000000000
TP-BANK TABUNGAN PENSIUNAN NASION 150222DECLINED CHECK STATUS     000000000000000000000000000000000000000
IU-ISAKU                          150222APPROVED PAYMENT          000000000000000000000000000000000000000
IU-ISAKU                          150222APPROVED REFUND           000000000000000000000000000000000000000
IU-ISAKU                          150222APPROVED CHECK STATUS     000000000000000000000000000000000000000
IU-ISAKU                          150222SUSPENDED PAYMENT         000000000000000000000000000000000000000
IU-ISAKU                          150222SUSPENDED REFUND          000000000000000000000000000000000000000
IU-ISAKU                          150222SUSPENDED CHECK STATUS    000000000000000000000000000000000000000
IU-ISAKU                          150222DECLINED PAYMENT          000000000000000000000000000000000000000
IU-ISAKU                          150222DECLINED REFUND           000000000000000000000000000000000000000
IU-ISAKU                          150222DECLINED CHECK STATUS     000000000000000000000000000000000000000
SS-BANK SULSELBAR                 150222APPROVED PAYMENT          000000000000000000000000000000000000000
SS-BANK SULSELBAR                 150222APPROVED REFUND           000000000000000000000000000000000000000
SS-BANK SULSELBAR                 150222APPROVED CHECK STATUS     000000000000000000000000000000000000000
SS-BANK SULSELBAR                 150222SUSPENDED PAYMENT         000000000000000000000000000000000000000
SS-BANK SULSELBAR                 150222SUSPENDED REFUND          000000000000000000000000000000000000000
SS-BANK SULSELBAR                 150222SUSPENDED CHECK STATUS    000000000000000000000000000000000000000
SS-BANK SULSELBAR                 150222DECLINED PAYMENT          000000000000000000000000000000000000000
SS-BANK SULSELBAR                 150222DECLINED REFUND           000000000000000000000000000000000000000
SS-BANK SULSELBAR                 150222DECLINED CHECK STATUS     000000000000000000000000000000000000000
JM-BANK JATIM                     150222APPROVED PAYMENT          000000000000000000000000000000000000000
JM-BANK JATIM                     150222APPROVED REFUND           000000000000000000000000000000000000000
JM-BANK JATIM                     150222APPROVED CHECK STATUS     000000000000000000000000000000000000000
JM-BANK JATIM                     150222SUSPENDED PAYMENT         000000000000000000000000000000000000000
JM-BANK JATIM                     150222SUSPENDED REFUND          000000000000000000000000000000000000000
JM-BANK JATIM                     150222SUSPENDED CHECK STATUS    000000000000000000000000000000000000000
JM-BANK JATIM                     150222DECLINED PAYMENT          000000000000000000000000000000000000000
JM-BANK JATIM                     150222DECLINED REFUND           000000000000000000000000000000000000000
JM-BANK JATIM                     150222DECLINED CHECK STATUS     000000000000000000000000000000000000000
YG-BANK BPD DIY                   150222APPROVED PAYMENT          000000000000000000000000000000000000000
YG-BANK BPD DIY                   150222APPROVED REFUND           000000000000000000000000000000000000000
YG-BANK BPD DIY                   150222APPROVED CHECK STATUS     000000000000000000000000000000000000000
YG-BANK BPD DIY                   150222SUSPENDED PAYMENT         000000000000000000000000000000000000000
YG-BANK BPD DIY                   150222SUSPENDED REFUND          000000000000000000000000000000000000000
YG-BANK BPD DIY                   150222SUSPENDED CHECK STATUS    000000000000000000000000000000000000000
YG-BANK BPD DIY                   150222DECLINED PAYMENT          000000000000000000000000000000000000000
YG-BANK BPD DIY                   150222DECLINED REFUND           000000000000000000000000000000000000000
YG-BANK BPD DIY                   150222DECLINED CHECK STATUS     000000000000000000000000000000000000000
SA-BANK SAHABAT SAMPOERNA         150222APPROVED PAYMENT          000000000000000000000000000000000000000
SA-BANK SAHABAT SAMPOERNA         150222APPROVED REFUND           000000000000000000000000000000000000000
SA-BANK SAHABAT SAMPOERNA         150222APPROVED CHECK STATUS     000000000000000000000000000000000000000
SA-BANK SAHABAT SAMPOERNA         150222SUSPENDED PAYMENT         000000000000000000000000000000000000000
SA-BANK SAHABAT SAMPOERNA         150222SUSPENDED REFUND          000000000000000000000000000000000000000
SA-BANK SAHABAT SAMPOERNA         150222SUSPENDED CHECK STATUS    000000000000000000000000000000000000000
SA-BANK SAHABAT SAMPOERNA         150222DECLINED PAYMENT          000000000000000000000000000000000000000
SA-BANK SAHABAT SAMPOERNA         150222DECLINED REFUND           000000000000000000000000000000000000000
SA-BANK SAHABAT SAMPOERNA         150222DECLINED CHECK STATUS     000000000000000000000000000000000000000
BA-BANK BUMI ARTA                 150222APPROVED PAYMENT          000000000000000000000000000000000000000
BA-BANK BUMI ARTA                 150222APPROVED REFUND           000000000000000000000000000000000000000
BA-BANK BUMI ARTA                 150222APPROVED CHECK STATUS     000000000000000000000000000000000000000
BA-BANK BUMI ARTA                 150222SUSPENDED PAYMENT         000000000000000000000000000000000000000
BA-BANK BUMI ARTA                 150222SUSPENDED REFUND          000000000000000000000000000000000000000
BA-BANK BUMI ARTA                 150222SUSPENDED CHECK STATUS    000000000000000000000000000000000000000
BA-BANK BUMI ARTA                 150222DECLINED PAYMENT          000000000000000000000000000000000000000
BA-BANK BUMI ARTA                 150222DECLINED REFUND           000000000000000000000000000000000000000
BA-BANK BUMI ARTA                 150222DECLINED CHECK STATUS     000000000000000000000000000000000000000
CS-BANK BCA SYARIAH               150222APPROVED PAYMENT          000000000000000000000000000000000000000
CS-BANK BCA SYARIAH               150222APPROVED REFUND           000000000000000000000000000000000000000
CS-BANK BCA SYARIAH               150222APPROVED CHECK STATUS     000000000000000000000000000000000000000
CS-BANK BCA SYARIAH               150222SUSPENDED PAYMENT         000000000000000000000000000000000000000
CS-BANK BCA SYARIAH               150222SUSPENDED REFUND          000000000000000000000000000000000000000
CS-BANK BCA SYARIAH               150222SUSPENDED CHECK STATUS    000000000000000000000000000000000000000
CS-BANK BCA SYARIAH               150222DECLINED PAYMENT          000000000000000000000000000000000000000
CS-BANK BCA SYARIAH               150222DECLINED REFUND           000000000000000000000000000000000000000
CS-BANK BCA SYARIAH               150222DECLINED CHECK STATUS     000000000000000000000000000000000000000
SN-BANK SINARMAS                  150222APPROVED PAYMENT          000000000000000000000000000000000000000
SN-BANK SINARMAS                  150222APPROVED REFUND           000000000000000000000000000000000000000
SN-BANK SINARMAS                  150222APPROVED CHECK STATUS     000000000000000000000000000000000000000
SN-BANK SINARMAS                  150222SUSPENDED PAYMENT         000000000000000000000000000000000000000
SN-BANK SINARMAS                  150222SUSPENDED REFUND          000000000000000000000000000000000000000
SN-BANK SINARMAS                  150222SUSPENDED CHECK STATUS    000000000000000000000000000000000000000
SN-BANK SINARMAS                  150222DECLINED PAYMENT          000000000000000000000000000000000000000
SN-BANK SINARMAS                  150222DECLINED REFUND           000000000000000000000000000000000000000
SN-BANK SINARMAS                  150222DECLINED CHECK STATUS     000000000000000000000000000000000000000
MA-BANK MULTIARTA SENTOSA         150222APPROVED PAYMENT          000000000000000000000000000000000000000
MA-BANK MULTIARTA SENTOSA         150222APPROVED REFUND           000000000000000000000000000000000000000
MA-BANK MULTIARTA SENTOSA         150222APPROVED CHECK STATUS     000000000000000000000000000000000000000
MA-BANK MULTIARTA SENTOSA         150222SUSPENDED PAYMENT         000000000000000000000000000000000000000
MA-BANK MULTIARTA SENTOSA         150222SUSPENDED REFUND          000000000000000000000000000000000000000
MA-BANK MULTIARTA SENTOSA         150222SUSPENDED CHECK STATUS    000000000000000000000000000000000000000
MA-BANK MULTIARTA SENTOSA         150222DECLINED PAYMENT          000000000000000000000000000000000000000
MA-BANK MULTIARTA SENTOSA         150222DECLINED REFUND           000000000000000000000000000000000000000
MA-BANK MULTIARTA SENTOSA         150222DECLINED CHECK STATUS     000000000000000000000000000000000000000
AU-BANK RIAU                      150222APPROVED PAYMENT          000000000000000000000000000000000000000
AU-BANK RIAU                      150222APPROVED REFUND           000000000000000000000000000000000000000
AU-BANK RIAU                      150222APPROVED CHECK STATUS     000000000000000000000000000000000000000
AU-BANK RIAU                      150222SUSPENDED PAYMENT         000000000000000000000000000000000000000
AU-BANK RIAU                      150222SUSPENDED REFUND          000000000000000000000000000000000000000
AU-BANK RIAU                      150222SUSPENDED CHECK STATUS    000000000000000000000000000000000000000
AU-BANK RIAU                      150222DECLINED PAYMENT          000000000000000000000000000000000000000
AU-BANK RIAU                      150222DECLINED REFUND           000000000000000000000000000000000000000
AU-BANK RIAU                      150222DECLINED CHECK STATUS     000000000000000000000000000000000000000
BK-BANK KB BUKOPIN                150222APPROVED PAYMENT          000000000000000000000000000000000000000
BK-BANK KB BUKOPIN                150222APPROVED REFUND           000000000000000000000000000000000000000
BK-BANK KB BUKOPIN                150222APPROVED CHECK STATUS     000000000000000000000000000000000000000
BK-BANK KB BUKOPIN                150222SUSPENDED PAYMENT         000000000000000000000000000000000000000
BK-BANK KB BUKOPIN                150222SUSPENDED REFUND          000000000000000000000000000000000000000
BK-BANK KB BUKOPIN                150222SUSPENDED CHECK STATUS    000000000000000000000000000000000000000
BK-BANK KB BUKOPIN                150222DECLINED PAYMENT          000000000000000000000000000000000000000
BK-BANK KB BUKOPIN                150222DECLINED REFUND           000000000000000000000000000000000000000
BK-BANK KB BUKOPIN                150222DECLINED CHECK STATUS     000000000000000000000000000000000000000
BP-BANK PAPUA                     150222APPROVED PAYMENT          000000000000000000000000000000000000000
BP-BANK PAPUA                     150222APPROVED REFUND           000000000000000000000000000000000000000
BP-BANK PAPUA                     150222APPROVED CHECK STATUS     000000000000000000000000000000000000000
BP-BANK PAPUA                     150222SUSPENDED PAYMENT         000000000000000000000000000000000000000
BP-BANK PAPUA                     150222SUSPENDED REFUND          000000000000000000000000000000000000000
BP-BANK PAPUA                     150222SUSPENDED CHECK STATUS    000000000000000000000000000000000000000
BP-BANK PAPUA                     150222DECLINED PAYMENT          000000000000000000000000000000000000000
BP-BANK PAPUA                     150222DECLINED REFUND           000000000000000000000000000000000000000
BP-BANK PAPUA                     150222DECLINED CHECK STATUS     000000000000000000000000000000000000000
KT-PT. BPD KALTIM KALTARA         150222APPROVED PAYMENT          000000000000000000000000000000000000000
KT-PT. BPD KALTIM KALTARA         150222APPROVED REFUND           000000000000000000000000000000000000000
KT-PT. BPD KALTIM KALTARA         150222APPROVED CHECK STATUS     000000000000000000000000000000000000000
KT-PT. BPD KALTIM KALTARA         150222SUSPENDED PAYMENT         000000000000000000000000000000000000000
KT-PT. BPD KALTIM KALTARA         150222SUSPENDED REFUND          000000000000000000000000000000000000000
KT-PT. BPD KALTIM KALTARA         150222SUSPENDED CHECK STATUS    000000000000000000000000000000000000000
KT-PT. BPD KALTIM KALTARA         150222DECLINED PAYMENT          000000000000000000000000000000000000000
KT-PT. BPD KALTIM KALTARA         150222DECLINED REFUND           000000000000000000000000000000000000000
KT-PT. BPD KALTIM KALTARA         150222DECLINED CHECK STATUS     000000000000000000000000000000000000000
AP-ASTRAPAY                       150222APPROVED PAYMENT          000000000000000000000000000000000000000
AP-ASTRAPAY                       150222APPROVED REFUND           000000000000000000000000000000000000000
AP-ASTRAPAY                       150222APPROVED CHECK STATUS     000000000000000000000000000000000000000
AP-ASTRAPAY                       150222SUSPENDED PAYMENT         000000000000000000000000000000000000000
AP-ASTRAPAY                       150222SUSPENDED REFUND          000000000000000000000000000000000000000
AP-ASTRAPAY                       150222SUSPENDED CHECK STATUS    000000000000000000000000000000000000000
AP-ASTRAPAY                       150222DECLINED PAYMENT          000000000000000000000000000000000000000
AP-ASTRAPAY                       150222DECLINED REFUND           000000000000000000000000000000000000000
AP-ASTRAPAY                       150222DECLINED CHECK STATUS     000000000000000000000000000000000000000
DY-DIPAY                          150222APPROVED PAYMENT          000000000000000000000000000000000000000
DY-DIPAY                          150222APPROVED REFUND           000000000000000000000000000000000000000
DY-DIPAY                          150222APPROVED CHECK STATUS     000000000000000000000000000000000000000
DY-DIPAY                          150222SUSPENDED PAYMENT         000000000000000000000000000000000000000
DY-DIPAY                          150222SUSPENDED REFUND          000000000000000000000000000000000000000
DY-DIPAY                          150222SUSPENDED CHECK STATUS    000000000000000000000000000000000000000
DY-DIPAY                          150222DECLINED PAYMENT          000000000000000000000000000000000000000
DY-DIPAY                          150222DECLINED REFUND           000000000000000000000000000000000000000
DY-DIPAY                          150222DECLINED CHECK STATUS     000000000000000000000000000000000000000
PK-PAPRIKA                        150222APPROVED PAYMENT          000000000000000000000000000000000000000
PK-PAPRIKA                        150222APPROVED REFUND           000000000000000000000000000000000000000
PK-PAPRIKA                        150222APPROVED CHECK STATUS     000000000000000000000000000000000000000
PK-PAPRIKA                        150222SUSPENDED PAYMENT         000000000000000000000000000000000000000
PK-PAPRIKA                        150222SUSPENDED REFUND          000000000000000000000000000000000000000
PK-PAPRIKA                        150222SUSPENDED CHECK STATUS    000000000000000000000000000000000000000
PK-PAPRIKA                        150222DECLINED PAYMENT          000000000000000000000000000000000000000
PK-PAPRIKA                        150222DECLINED REFUND           000000000000000000000000000000000000000
PK-PAPRIKA                        150222DECLINED CHECK STATUS     000000000000000000000000000000000000000
