B24-QA01
BC-BANK CENTRAL ASIA              1502220000000011302222340122602109360001411288210070000024400000C0000000000000000000007001234016017111APP0000000128821007A01             9360003700000024712581200001269260000126926JENZ RECIPE              
BC-BANK CENTRAL ASIA              1502220000000021302222341082602109360001411288211250000001300000C0000000000000000050057001234111017157APP0000000128821125A05             9360003700000091166752300001269270000126927GKI                      
BC-BANK CENTRAL ASIA              1502220000000031402220001282602109360001411288233585000017800000C0000000000000000000007001000132018219APP0000000128823358A01             9360003700000003880451100001269280000126928KEDAI RIOLO              
BC-BANK CENTRAL ASIA              1502220000000041402220002412602109360001411288235044000003500000C0000000000000000000007001000244018301APP0000000128823504A01             9360003700000003880451100001269290000126929KEDAI RIOLO              
BC-BANK CENTRAL ASIA              1502220000000051402220006012602109360001411288239012000008900000C0000000000000000000007001000608018504APP0000000128823901A01             9360003700000003880451100001269300000126930KEDAI RIOLO              
BC-BANK CENTRAL ASIA              1502220000000061402220058532602109360001411288285874000001700000C0000000000000000065457001005900020906APP0000000128828587A05             9360003700000091166752300001269320000126932GKI                      
BC-BANK CENTRAL ASIA              1502220000000071402220151572602109360001411288320184000012200000C0000000000000000000007001015204022681APP0000000128832018A01             9360003700000081266074200001269330000126933SIMPLE COFFEE STORIES    
BC-BANK CENTRAL ASIA              1502220000000081402220226452602109360001411288336768000000500000C0000000000000000019257001022649023518APP0000000128833676A05             9360003700000091166752300001269340000126934GKI                      
BC-BANK CENTRAL ASIA              1502220000000091402220628332602109360001411288423848000004200000C0000000000000000000007001062837029370APP0000000128842384A01             9360003700000067869581200001269360000126936BUBUR AYAM AGUAN         
BC-BANK CENTRAL ASIA              1502220000000101402220647172602109360001411288441030000057360000C0000000000000000000007001064722030608APP0000000128844103A01             9360003700000041914549900001269430000126943TOKO ROTI DAN KUE RATNA  
BC-BANK CENTRAL ASIA              1502220000000111402220659262602109360001411288452136000006400000C0000000000000000000007001065929031341APP0000000128845213A01             9360003700000023367581400001269460000126946BUBUR AYAM KANG DEDI     
BC-BANK CENTRAL ASIA              1502220000000121402220729402602109360001411288493114000007000000C0000000000000000000007001072944001106APP0000000128849311A01             9360003700000048703581200001269550000126955TOP 10 CHINESE FOOD      
BC-BANK CENTRAL ASIA              1502220000000131402220735102602109360001411288501908000001750000C0000000000000000067407001073514001634APP0000000128850190A01             9360003700000011099581200001269570000126957KOPKESKAR JIHD           
BC-BANK CENTRAL ASIA              1502220000000141402220754382602109360001411288539296000001200000C0000000000000000046207001075442003803APP0000000128853929A01             9360003700000011099581200001269680000126968KOPKESKAR JIHD           
BC-BANK CENTRAL ASIA              1502220000000151402220756122602109360001411288541920000037300000C0000000000000001436057001075617003936APP0000000128854192A02             9360003700000014150541100001269690000126969"TOKO BUAH ANTO WIJAYA"  
BC-BANK CENTRAL ASIA              1502220000000161402220757042602109360001411288543405000006500000C0000000000000000000007001075711004009APP0000000128854340A01             9360003700000104100549900001269700000126970WARUNG MBA MEI 01 SMG    
BC-BANK CENTRAL ASIA              1502220000000171402220758392602109360001411288546101000009000000C0000000000000000000007001075843004146APP0000000128854610A01             9360003700000073313581400001269710000126971NINDITA OS               
BC-BANK CENTRAL ASIA              1502220000000181402220759402602109360001411288547851000000500000C0000000000000000000007001075944004222APP0000000128854785A01             9360003700000073313581400001269720000126972NINDITA OS               
BC-BANK CENTRAL ASIA              1502220000000191402220815342602109360001411288577395000002500000C0000000000000000000007001081537005506APP0000000128857739A01             9360003700000098096581400001269840000126984BUBUR AYAM BANG YON CIREB
BC-BANK CENTRAL ASIA              1502220000000201402220819212602109360001411288585323000000500000C0000000000000000019257001081927005879APP0000000128858532A01             9360003700000002650541100001269920000126992D&D MART                 
BC-BANK CENTRAL ASIA              1502220000000211402220819512602109360001411288586115000002000000C0000000000000000000007001081956005914APP0000000128858611A01             9360003700000024852581400001269950000126995WARSUN OTONG SUHADA SURYO
BC-BANK CENTRAL ASIA              1502220000000221402220823092602109360001411288592980000017000000C0000000000000000000007001082313006215APP0000000128859298A01             9360003700000067869581200001269990000126999BUBUR AYAM AGUAN         
BC-BANK CENTRAL ASIA              1502220000000231402220825112602109360001411288597351000000800000C0000000000000000030807001082515006413APP0000000128859735A01             9360003700000011099581200001270010000127001KOPKESKAR JIHD           
BC-BANK CENTRAL ASIA              1502220000000241402220830042602109360001411288607150000027000000C0000000000000001039507001083007006883APP0000000128860715A01             9360003700000015223504700001270030000127003KLINIK ARTHA GRAHA PEDULI
BC-BANK CENTRAL ASIA              1502220000000251402220830482602109360001411288609057000002500000C0000000000000000000007001083053006976APP0000000128860905A01             9360003700000042185581200001270040000127004KANTIN ASA               
BC-BANK CENTRAL ASIA              1502220000000261402220838152602109360001411288625640000007600000C0000000000000000000007001083820007727APP0000000128862564A01             9360003700000067869581200001270070000127007BUBUR AYAM AGUAN         
BC-BANK CENTRAL ASIA              1502220000000271402220845012602109360001411288640672000009000000C0000000000000000346507001084506008436APP0000000128864067A01             9360003700000015223504700001270110000127011KLINIK ARTHA GRAHA PEDULI
BC-BANK CENTRAL ASIA              1502220000000281402220856262602109360001411288666784000020000000C0000000000000000000007001085632009674APP0000000128866678A01             9360003700000067869581200001270150000127015BUBUR AYAM AGUAN         
BC-BANK CENTRAL ASIA              1502220000000291402220900352602109360001411288676452000004400000C0000000000000000169407001090039010102APP0000000128867645A01             9360003700000023854581200001270190000127019CAFE MARGAUX             
BC-BANK CENTRAL ASIA              1502220000000301402220910152602109360001411288702118000008300000C0000000000000000319557001091023011259APP0000000128870211A01             9360003700000014770541100001270220000127022TOKO BUAH ANTO WIJAYA PL2
BC-BANK CENTRAL ASIA              1502220000000311402220913112602109360001411288709816000020000000C0000000000000000000007001091315011592APP0000000128870981A01             9360003700000044058581200001270230000127023WARUNG BKM               
BC-BANK CENTRAL ASIA              1502220000000321402220918072602109360001411288723247000017750000C0000000000000000683407001091810012182APP0000000128872324A01             9360003700000025958541100001270260000127026TOKO BERAS ANUGERAH      
BC-BANK CENTRAL ASIA              1502220000000331402220920322602109360001411288729764000008000000C0000000000000000308007001092040012489APP0000000128872976A01             9360003700000015223504700001270270000127027KLINIK ARTHA GRAHA PEDULI
BC-BANK CENTRAL ASIA              1502220000000341402220931412602109360001411288759860000003000000C0000000000000000115507001093145013895APP0000000128875986A01             9360003700000016437284200001270310000127031CLEANEX LAUNDRY          
BC-BANK CENTRAL ASIA              1502220000000351402220931492602109360001411288760306000000500000C0000000000000000019257001093152013913APP0000000128876030A01             9360003700000089848752300001270320000127032ASIA PARKING - LOT 17    
BC-BANK CENTRAL ASIA              1502220000000361402220937412602109360001411288776146000003100000C0000000000000000119357001093743014636APP0000000128877614A01             9360003700000014770541100001270360000127036TOKO BUAH ANTO WIJAYA PL2
BC-BANK CENTRAL ASIA              1502220000000371402220940242602109360001411288784116000032900000C0000000000000000000007001094028015009APP0000000128878411A01             9360003700000044983222200001270380000127038THIRTY CORNER            
BC-BANK CENTRAL ASIA              1502220000000381402220946532602109360001411288803668000009152000C0000000000000000000007001094701015893APP0000000128880366A01             9360003700000061904581200001270410000127041"LUCKY 8 ROAST PORK NOODL
BC-BANK CENTRAL ASIA              1502220000000391402221001152602109360001411288845016000021700000C0000000000000000000007001100120017742APP0000000128884501A01             9360003700000027616549900001270480000127048'TOKO SETIA'             
BC-BANK CENTRAL ASIA              1502220000000401402221008052602109360001411288866384000008000000C0000000000000000308007001100810018731APP0000000128886638A01             9360003700000015223504700001270500000127050KLINIK ARTHA GRAHA PEDULI
BC-BANK CENTRAL ASIA              1502220000000411402221010422602109360001411288874271000007600000C0000000000000000000007001101047019092APP0000000128887427A01             9360003700000060039839800001270530000127053YAY WIHARA SATRYA DHARMA 
BC-BANK CENTRAL ASIA              1502220000000421402221015202602109360001411288889071000001800000C0000000000000000000007001101528019781APP0000000128888907A01             9360003700000024878581400001270550000127055WARSUN SEDERHANA         
BC-BANK CENTRAL ASIA              1502220000000431402221019422602109360001411288903047000001700000C0000000000000000065457001101946020441APP0000000128890304A05             9360003700000091166752300001270580000127058GKI                      
BC-BANK CENTRAL ASIA              1502220000000441402221028312602109360001411288932988000046200000C0000000000000001778707001102835021811APP0000000128893298A01             9360003700000026600581200001270610000127061CAFE KITSUNE             
BC-BANK CENTRAL ASIA              1502220000000451402221029122602109360001411288935361000055000000C0000000000000002117507001102921021916APP0000000128893536A01             9360003700000035791809900001270620000127062BUMAME FARMASI HUBLIFE   
BC-BANK CENTRAL ASIA              1502220000000461402221029482602109360001411288937383000006800000C0000000000000000000007001102954022011APP0000000128893738A01             9360003700000101387581400001270630000127063SOTO TEH NINING          
BC-BANK CENTRAL ASIA              1502220000000471402221036462602109360001411288961821000011600000C0000000000000000000007001103657023108APP0000000128896182A01             9360003700000100256074200001270690000127069FILLEND BAKERY           
BC-BANK CENTRAL ASIA              1502220000000481402221039272602109360001411288970970000004000000C0000000000000000000007001103930023528APP0000000128897097A01             9360003700000053778549900001270700000127070PUSPA SARI               
BC-BANK CENTRAL ASIA              1502220000000491402221047512602109360001411289001569000027000000C0000000000000001039507001104801024916APP0000000128900156A01             9360003700000015223504700001270720000127072KLINIK ARTHA GRAHA PEDULI
BC-BANK CENTRAL ASIA              1502220000000501402221048212602109360001411289003177000001900000C0000000000000000073157001104830024992APP0000000128900317A01             9360003700000011099581200001270730000127073KOPKESKAR JIHD           
BC-BANK CENTRAL ASIA              1502220000000511402221049332602109360001411289006774000025000000C0000000000000000962507001104938025153APP0000000128900677A01             9360003700000010836541100001270740000127074TOKO BUAH ANTO WIJAYA    
BC-BANK CENTRAL ASIA              1502220000000521402221102372602109360001411289055888000002500000C0000000000000000000007001110241027359APP0000000128905588A01             9360003700000080672581200001270810000127081BASO SUDI MAMPIR T MERAH 
BC-BANK CENTRAL ASIA              1502220000000531402221103492602109360001411289060698000002500000C0000000000000000000007001110353027558APP0000000128906069A01             9360003700000060666581400001270820000127082KING'S BATAGOR           
BC-BANK CENTRAL ASIA              1502220000000541402221103592602109360001411289061464000000600000C0000000000000000000007001110403027602APP0000000128906146A01             9360003700000055021222200001270830000127083WARUNG DIVA              
BC-BANK CENTRAL ASIA              1502220000000551402221110522602109360001411289091362000001100000C0000000000000000000007001111056028885APP0000000128909136A01             9360003700000064528581200001270880000127088CITRA RASA II            
BC-BANK CENTRAL ASIA              1502220000000561402221117432602109360001411289118835000055000000C0000000000000002117507001111750030048APP0000000128911883A01             9360003700000035791809900001270920000127092BUMAME FARMASI HUBLIFE   
BC-BANK CENTRAL ASIA              1502220000000571402221120212602109360001411289129329000007500000C0000000000000000000007001112024030527APP0000000128912932A01             9360003700000055245074200001270930000127093KLOP COFFEE AND VAPOER   
BC-BANK CENTRAL ASIA              1502220000000581402221121012602109360001411289132786000002800000C0000000000000000107807001112109030682APP0000000128913278A01             9360003700000014374581200001270950000127095"KUICK KUICK"            
BC-BANK CENTRAL ASIA              1502220000000591402221121372602109360001411289135557000009900000C0000000000000000381157001112143030801APP0000000128913555A01             9360003700000035791809900001270970000127097BUMAME FARMASI HUBLIFE   
BC-BANK CENTRAL ASIA              1502220000000601402221121372602109360001411289135615000010450000C0000000000000000402357001112144030802APP0000000128913561A01             9360003700000073057581200001270980000127098CAFE MARGAUX PIZZERIA    
BC-BANK CENTRAL ASIA              1502220000000611402221127132602109360001411289160266000055000000C0000000000000002117507001112716031939APP0000000128916026A01             9360003700000035791809900001271010000127101BUMAME FARMASI HUBLIFE   
BC-BANK CENTRAL ASIA              1502220000000621402221129192602109360001411289169358000000500000C0000000000000000019257001112923032346APP0000000128916935A01             9360003700000089822752300001271040000127104ASIA PARKING - EC SCBD   
BC-BANK CENTRAL ASIA              1502220000000631402221132482602109360001411289183565000015000000C0000000000000000000007001113255000202APP0000000128918356A01             9360003700000097528581400001271060000127106VINA CAKE                
BC-BANK CENTRAL ASIA              1502220000000641402221136002602109360001411289197714000001000000C0000000000000000000007001113604000799APP0000000128919771A01             9360003700000023086451100001271090000127109JUS AA' DOA IBU          
BC-BANK CENTRAL ASIA              1502220000000651402221139102602109360001411289212968000003000000C0000000000000000000007001113916001471APP0000000128921296A01             9360003700000081118581400001271110000127111RM TSS 88                
BC-BANK CENTRAL ASIA              1502220000000661402221142262602109360001411289227487000001700000C0000000000000000000007001114231002097APP0000000128922748A01             9360003700000064528581200001271170000127117CITRA RASA II            
BC-BANK CENTRAL ASIA              1502220000000671402221144222602109360001411289236025000009000000C0000000000000000346507001114429002477APP0000000128923602A01             9360003700000015223504700001271190000127119KLINIK ARTHA GRAHA PEDULI
BC-BANK CENTRAL ASIA              1502220000000681402221145372602109360001411289243740000000600000C0000000000000000023107001114606002820APP0000000128924374A01             9360003700000002650541100001271230000127123D&D MART                 
BC-BANK CENTRAL ASIA              1502220000000691402221150092602109360001411289263193000002000000C0000000000000000000007001115020003697APP0000000128926319A01             9360003700000056946561100001271280000127128LOVIT STUFF              
BC-BANK CENTRAL ASIA              1502220000000701402221151372602109360001411289269976000004000000C0000000000000000000007001115142003997APP0000000128926997A01             9360003700000060666581400001271290000127129KING'S BATAGOR           
BC-BANK CENTRAL ASIA              1502220000000711402221152522602109360001411289275684000003200000C0000000000000000123207001115256004254APP0000000128927568A01             9360003700000002403546200001271300000127130DELICIO BAKERY           
BC-BANK CENTRAL ASIA              1502220000000721402221153292602109360001411289279017000050000000C0000000000000000000007001115336004408APP0000000128927901A01             9360003700000016999549900001271320000127132I DO COOKING             
BC-BANK CENTRAL ASIA              1502220000000731402221153322602109360001411289279058000006200000C0000000000000000000007001115336004409APP0000000128927905A01             9360003700000042425581400001271330000127133SOTO AYAM MONGGO         
BC-BANK CENTRAL ASIA              1502220000000741402221154092602109360001411289282912000005700000C0000000000000000000007001115423004574APP0000000128928291A01             9360003700000067869581200001271350000127135BUBUR AYAM AGUAN         
BC-BANK CENTRAL ASIA              1502220000000751402221155302602109360001411289288802000000700000C0000000000000000026957001115535004848APP0000000128928880A01             9360003700000100892752300001271370000127137ASIA PARKING - ECI UMEN  
BC-BANK CENTRAL ASIA              1502220000000761402221155372602109360001411289290568000360000000C0000000000000000000007001115555004927APP0000000128929056A01             9360003700000060039839800001271380000127138YAY WIHARA SATRYA DHARMA 
BC-BANK CENTRAL ASIA              1502220000000771402221156552602109360001411289296987000003600000C0000000000000000000007001115712005214APP0000000128929698A01             9360003700000018912581200001271400000127140DAPOER SUOTH             
BC-BANK CENTRAL ASIA              1502220000000781402221157342602109360001411289299114000004900000C0000000000000000000007001115737005302APP0000000128929911A01             93600037000000086242842000012714100001271411001 LAUNDRY             
BC-BANK CENTRAL ASIA              1502220000000791402221157352602109360001411289299478000002400000C0000000000000000000007001115741005319APP0000000128929947A01             9360003700000100645581200001271420000127142"BAKSO AREMA"            
BC-BANK CENTRAL ASIA              1502220000000801402221202042602109360001411289321017000002000000C0000000000000000000007001120208006272APP0000000128932101A01             9360003700000005208597000001271470000127147INFINITE CREATIVE        
BC-BANK CENTRAL ASIA              1502220000000811402221202572602109360001411289325075000009196000C0000000000000000000007001120259006451APP0000000128932507A01             9360003700000061904581200001271480000127148"LUCKY 8 ROAST PORK NOODL
BC-BANK CENTRAL ASIA              1502220000000821402221206422602109360001411289344431000001400000C0000000000000000000007001120646007342APP0000000128934443A01             9360003700000014051581400001271620000127162KANTIN PRASMANAN         
BC-BANK CENTRAL ASIA              1502220000000831402221210302602109360001411289365089000023000000C0000000000000000000007001121044008260APP0000000128936508A01             9360003700000017724599500001271660000127166PRAKTEK DOKTER HEWAN TINA
BC-BANK CENTRAL ASIA              1502220000000841402221211072602109360001411289367499000001800000C0000000000000000000007001121111008371APP0000000128936749A01             9360003700000079096581200001271670000127167BAKSO MANTAP             
BC-BANK CENTRAL ASIA              1502220000000851402221211312602109360001411289369792000002100000C0000000000000000080857001121135008465APP0000000128936979A01             9360003700000097452653100001271680000127168GDG ARTHA GRAHA          
BC-BANK CENTRAL ASIA              1502220000000861402221211592602109360001411289372101000001700000C0000000000000000065457001121204008574APP0000000128937210A02             9360003700000097452653100001271690000127169GDG ARTHA GRAHA          
BC-BANK CENTRAL ASIA              1502220000000871402221212192602109360001411289374479000021000000C0000000000000000000007001121228008680APP0000000128937447A01             9360003700000066788581200001271710000127171"WARUNG NUSANTARA"       
BC-BANK CENTRAL ASIA              1502220000000881402221214012602109360001411289382969000015000000C0000000000000000000007001121406009076APP0000000128938296A01             9360003700000011867582100001271720000127172"SALON & KEDAI MIKA"     
BC-BANK CENTRAL ASIA              1502220000000891402221214272602109360001411289385186000002200000C0000000000000000000007001121434009187APP0000000128938518A01             9360003700000107723581200001271730000127173KOPI TAMPAN KELAPA GADING
BC-BANK CENTRAL ASIA              1502220000000901402221218042602109360001411289404722000001500000C0000000000000000000007001121808010058APP0000000128940472A01             9360003700000103516581400001271750000127175BREAKFAST TO GO          
BC-BANK CENTRAL ASIA              1502220000000911402221218232602109360001411289406479000056100000C0000000000000002159857001121828010128APP0000000128940647A01             9360003700000046228581400001271780000127178HOLYCOW                  
BC-BANK CENTRAL ASIA              1502220000000921402221222242602109360001411289429042000003000000C0000000000000000000007001122228011142APP0000000128942904A01             9360003700000078395581200001271820000127182SOTO MIE BOGOR PAK MI'UN 
BC-BANK CENTRAL ASIA              1502220000000931402221223092602109360001411289433747000019800000C0000000000000000762307001122318011366APP0000000128943374A01             9360003700000046228581400001271830000127183HOLYCOW                  
BC-BANK CENTRAL ASIA              1502220000000941402221228132602109360001411289460377000000700000C0000000000000000026957001122816012624APP0000000128946037A01             9360003700000011099581200001271880000127188KOPKESKAR JIHD           
BC-BANK CENTRAL ASIA              1502220000000951402221231492602109360001411289479468000003500000C0000000000000000000007001123154013555APP0000000128947946A01             9360003700000039389723000001271930000127193"BARBEROCK"              
BC-BANK CENTRAL ASIA              1502220000000961402221232392602109360001411289483817000001700000C0000000000000000000007001123245013774APP0000000128948381A01             9360003700000030552581200001271950000127195PS WARUNG SOTO           
BC-BANK CENTRAL ASIA              1502220000000971402221232452602109360001411289484377000001700000C0000000000000000000007001123250013798APP0000000128948437A01             9360003700000030552581200001271960000127196PS WARUNG SOTO           
BC-BANK CENTRAL ASIA              1502220000000981402221233372602109360001411289489160000003000000C0000000000000000115507001123345014046APP0000000128948916A01             9360003700000082389581200001271990000127199RM LUBUAK PATAMUAN PADANG
BC-BANK CENTRAL ASIA              1502220000000991402221236082602109360001411289503267000000700000C0000000000000000026957001123614014753APP0000000128950326A01             9360003700000100892752300001272000000127200ASIA PARKING - ECI UMEN  
BC-BANK CENTRAL ASIA              1502220000001001402221237152602109360001411289509256000019900000C0000000000000000766157001123720015038APP0000000128950925A01             9360003700000010836541100001272020000127202TOKO BUAH ANTO WIJAYA    
BC-BANK CENTRAL ASIA              1502220000001011402221238082602109360001411289514207000000500000C0000000000000000019257001123811015273APP0000000128951420A01             9360003700000091166752300001272030000127203GKI                      
BC-BANK CENTRAL ASIA              1502220000001021402221238492602109360001411289518497000009900000C0000000000000000381157001123854015459APP0000000128951849A01             9360003700000011099581200001272040000127204KOPKESKAR JIHD           
BC-BANK CENTRAL ASIA              1502220000001031402221241322602109360001411289533827000000700000C0000000000000000000007001124141016177APP0000000128953382A01             9360003700000061268074200001272080000127208PAWON BU YULI            
BC-BANK CENTRAL ASIA              1502220000001041402221243102602109360001411289542711000000400000C0000000000000000015407001124314016588APP0000000128954271A01             9360003700000100926752300001272090000127209ASIA PARKING -ALAM SUTERA
BC-BANK CENTRAL ASIA              1502220000001051402221248402602109360001411289571843000009000000C0000000000000000346507001124848017903APP0000000128957184A01             9360003700000015223504700001272120000127212KLINIK ARTHA GRAHA PEDULI
BC-BANK CENTRAL ASIA              1502220000001061402221249272602109360001411289575521000002000000C0000000000000000000007001124932018073APP0000000128957552A01             9360003700000107467581200001272140000127214KANTIN ECI               
BC-BANK CENTRAL ASIA              1502220000001071402221253282602109360001411289595602000015950000C0000000000000000000007001125333018994APP0000000128959560A01             9360003700000096801599900001272160000127216TOKO ANYAR               
BC-BANK CENTRAL ASIA              1502220000001081402221254212602109360001411289600840000015000000C0000000000000000000007001125431019248APP0000000128960084A01             9360003700000003880451100001272170000127217KEDAI RIOLO              
BC-BANK CENTRAL ASIA              1502220000001091402221255302602109360001411289606748000000200000C0000000000000000000007001125535019512APP0000000128960674A01             9360003700000049651599900001272210000127221SISTER SWEET FOOF        
BC-BANK CENTRAL ASIA              1502220000001101402221256342602109360001411289612332000001800000C0000000000000000000007001125639019783APP0000000128961233A01             9360003700000064528581200001272220000127222CITRA RASA II            
BC-BANK CENTRAL ASIA              1502220000001111402221258072602109360001411289620566000005200000C0000000000000000200207001125811020166APP0000000128962056A01             9360003700000068487581200001272250000127225KEDAI POJOK BRASTAGITIARA
BC-BANK CENTRAL ASIA              1502220000001121402221259432602109360001411289629666000007700000C0000000000000000296457001125949020603APP0000000128962966A01             9360003700000068487581200001272260000127226KEDAI POJOK BRASTAGITIARA
BC-BANK CENTRAL ASIA              1502220000001131402221301012602109360001411289636042000001700000C0000000000000000000007001130107020895APP0000000128963604A01             9360003700000087479581200001272290000127229NASI PADANG BU ROS       
BC-BANK CENTRAL ASIA              1502220000001141402221303432602109360001411289651405000065000000C0000000000000000000007001130354021592APP0000000128965140A01             9360003700000092578599200001272330000127233"CALVARY FLORIST"        
BC-BANK CENTRAL ASIA              1502220000001151402221307222602109360001411289670306000002000000C0000000000000000000007001130726022480APP0000000128967030A01             9360003700000049198581200001272380000127238WARUNG SUNDA MENTENG     
BC-BANK CENTRAL ASIA              1502220000001161402221307462602109360001411289672336000001100000C0000000000000000042357001130749022562APP0000000128967233A01             9360003700000011099581200001272390000127239KOPKESKAR JIHD           
BC-BANK CENTRAL ASIA              1502220000001171402221312412602109360001411289699867000004500000C0000000000000000000007001131246023791APP0000000128969986A01             9360003700000008715562100001272470000127247QIRANIA BUTIK            
BC-BANK CENTRAL ASIA              1502220000001181402221313162602109360001411289703263000002230000C0000000000000000085857001131323023966APP0000000128970326A01             9360003700000015223504700001272480000127248KLINIK ARTHA GRAHA PEDULI
BC-BANK CENTRAL ASIA              1502220000001191402221313432602109360001411289705482000010780000C0000000000000000415037001131348024061APP0000000128970548A01             9360003700000023854581200001272510000127251CAFE MARGAUX             
BC-BANK CENTRAL ASIA              1502220000001201402221313582602109360001411289706605000002000000C0000000000000000000007001131401024117APP0000000128970660A01             9360003700000100645581200001272520000127252"BAKSO AREMA"            
BC-BANK CENTRAL ASIA              1502220000001211402221315002602109360001411289712355000010450000C0000000000000000000007001131505024369APP0000000128971235A01             9360003700000107723581200001272530000127253KOPI TAMPAN KELAPA GADING
BC-BANK CENTRAL ASIA              1502220000001221402221315522602109360001411289717487000005000000C0000000000000000000007001131558024606APP0000000128971748A01             9360003700000073081222200001272560000127256"SHOPEE BALI I"          
BC-BANK CENTRAL ASIA              1502220000001231402221316112602109360001411289719657000003850000C0000000000000000148257001131618024705APP0000000128971965A01             9360003700000023854581200001272570000127257CAFE MARGAUX             
BC-BANK CENTRAL ASIA              1502220000001241402221316412602109360001411289722040000004300000C0000000000000000000007001131644024815APP0000000128972204A01             9360003700000050295581200001272590000127259"THE BUN BAKERY"         
BC-BANK CENTRAL ASIA              1502220000001251402221316482602109360001411289722651000002100000C0000000000000000080857001131651024842APP0000000128972265A01             9360003700000097452653100001272600000127260GDG ARTHA GRAHA          
BC-BANK CENTRAL ASIA              1502220000001261402221317262602109360001411289725944000037873000C0000000000000001458107001131729024996APP0000000128972594A01             9360003700000026600581200001272620000127262CAFE KITSUNE             
BC-BANK CENTRAL ASIA              1502220000001271402221318122602109360001411289730274000004500000C0000000000000000000007001131818025202APP0000000128973027A01             9360003700000097015573200001272650000127265BENUA CELL BTM           
BC-BANK CENTRAL ASIA              1502220000001281402221318362602109360001411289732288000002000000C0000000000000000000007001131840025290APP0000000128973228A01             9360003700000030636581400001272660000127266AYAM GEPREK SABANG       
BC-BANK CENTRAL ASIA              1502220000001291402221319542602109360001411289739036000002300000C0000000000000000088557001131957025614APP0000000128973903A01             9360003700000000746581400001272680000127268BAKSO MALANG BANG BARUNG 
BC-BANK CENTRAL ASIA              1502220000001301402221326522602109360001411289774173000000900000C0000000000000000034657001132655027211APP0000000128977417A01             9360003700000089848752300001272750000127275ASIA PARKING - LOT 17    
BC-BANK CENTRAL ASIA              1502220000001311402221329442602109360001411289788579000037000000C0000000000000000000007001132948027876APP0000000128978857A01             9360003700000017724599500001272770000127277PRAKTEK DOKTER HEWAN TINA
BC-BANK CENTRAL ASIA              1502220000001321402221330062602109360001411289790377000002500000C0000000000000000000007001133010027959APP0000000128979037A01             9360003700000049198581200001272780000127278WARUNG SUNDA MENTENG     
BC-BANK CENTRAL ASIA              1502220000001331402221331462602109360001411289799451000002000000C0000000000000000000007001133151028372APP0000000128979945A01             9360003700000098898581200001272820000127282"BALIKHOE CAFE DSM"      
BC-BANK CENTRAL ASIA              1502220000001341402221332172602109360001411289802081000021800000C0000000000000000839307001133221028502APP0000000128980208A01             9360003700000068487581200001272850000127285KEDAI POJOK BRASTAGITIARA
BC-BANK CENTRAL ASIA              1502220000001351402221332252602109360001411289802818000002000000C0000000000000000000007001133228028535APP0000000128980281A01             9360003700000017724599500001272860000127286PRAKTEK DOKTER HEWAN TINA
BC-BANK CENTRAL ASIA              1502220000001361402221332482602109360001411289804590000008140000C0000000000000000000007001133252028608APP0000000128980459A01             9360003700000036211581200001272870000127287"WISTARA CAFE"           
BC-BANK CENTRAL ASIA              1502220000001371402221334102602109360001411289811991000020000000C0000000000000000000007001133419028935APP0000000128981199A01             9360003700000061946581200001272880000127288OMAH AMPIRAN             
BC-BANK CENTRAL ASIA              1502220000001381402221335042602109360001411289816123000007300000C0000000000000000281057001133508029113APP0000000128981612A01             9360003700000068487581200001272890000127289KEDAI POJOK BRASTAGITIARA
BC-BANK CENTRAL ASIA              1502220000001391402221338132602109360001411289831858000002000000C0000000000000000000007001133816029830APP0000000128983185A01             9360003700000023508544100001272910000127291HARJO STORE              
BC-BANK CENTRAL ASIA              1502220000001401402221342272602109360001411289853522000037800000C0000000000000001455307001134231030825APP0000000128985352A01             9360003700000030180701100001272940000127294GOLDEN SKY INDONESIA     
BC-BANK CENTRAL ASIA              1502220000001411402221345312602109360001411289868686000015576000C0000000000000000000007001134535031502APP0000000128986868A01             9360003700000061904581200001272980000127298"LUCKY 8 ROAST PORK NOODL
BC-BANK CENTRAL ASIA              1502220000001421402221348422602109360001411289884626000015400000C0000000000000000592907001134847032213APP0000000128988462A01             9360003700000000761581400001273030000127303BAKMI PP                 
BC-BANK CENTRAL ASIA              1502220000001431402221358542602109360001411289934702000001100000C0000000000000000042357001135858001667APP0000000128993470A01             9360003700000011099581200001273100000127310KOPKESKAR JIHD           
BC-BANK CENTRAL ASIA              1502220000001441402221359112602109360001411289935964000010060000C0000000000000000000007001135914001718APP0000000128993596A01             9360003700000071291721100001273110000127311QUICKEZY LAUNDRY         
BC-BANK CENTRAL ASIA              1502220000001451402221401032602109360001411289945302000002200000C0000000000000000000007001140119002142APP0000000128994530A01             9360003700000051582581200001273140000127314KANTIN KOPKESKAR JIHD    
BC-BANK CENTRAL ASIA              1502220000001461402221405182602109360001411289965698000010000000C0000000000000000000007001140525003025APP0000000128996569A01             9360003700000049974549900001273160000127316BATAGOR YUNUS            
BC-BANK CENTRAL ASIA              1502220000001471402221405452602109360001411289967876000009000000C0000000000000000346507001140549003126APP0000000128996787A01             9360003700000015223504700001273170000127317KLINIK ARTHA GRAHA PEDULI
BC-BANK CENTRAL ASIA              1502220000001481402221407312602109360001411289976943000011330000C0000000000000000000007001140736003512APP0000000128997694A01             9360003700000028101581200001273190000127319EAT ASIA PIK             
BC-BANK CENTRAL ASIA              1502220000001491402221410362602109360001411289991827000000900000C0000000000000000034657001141044004169APP0000000128999182A01             9360003700000097452653100001273220000127322GDG ARTHA GRAHA          
BC-BANK CENTRAL ASIA              1502220000001501402221411202602109360001411289994581000092400000C0000000000000000000007001141123004290APP0000000128999458A01             9360003700000107723581200001273230000127323KOPI TAMPAN KELAPA GADING
BC-BANK CENTRAL ASIA              1502220000001511402221415382602109360001411290015699000000500000C0000000000000000000007001141542005214APP0000000129001569A01             9360003700000005307581200001273250000127325DRINK CORNER             
BC-BANK CENTRAL ASIA              1502220000001521402221417022602109360001411290022323000006300000C0000000000000000000007001141705005515APP0000000129002232A01             9360003700000102609581200001273260000127326SIOMAY 3 BINTANG         
BC-BANK CENTRAL ASIA              1502220000001531402221420432602109360001411290041018000011500000C0000000000000000000007001142058006320APP0000000129004101A01             9360003700000016098591200001273290000127329TOKO GUNAWAN             
BC-BANK CENTRAL ASIA              1502220000001541402221421532602109360001411290045829000000200000C0000000000000000007707001142158006531APP0000000129004582A01             9360003700000089848752300001273310000127331ASIA PARKING - LOT 17    
BC-BANK CENTRAL ASIA              1502220000001551402221427182602109360001411290072930000018000000C0000000000000000000007001142727007678APP0000000129007293A01             9360003700000016023591200001273360000127336NAGA JAYA                
BC-BANK CENTRAL ASIA              1502220000001561402221429342602109360001411290083580000006700000C0000000000000000000007001142938008122APP0000000129008358A01             9360003700000060039839800001273380000127338YAY WIHARA SATRYA DHARMA 
BC-BANK CENTRAL ASIA              1502220000001571402221429482602109360001411290084927000010000000C0000000000000000000007001142954008176APP0000000129008492A01             9360003700000105214565100001273390000127339"ARI FASHION"            
BC-BANK CENTRAL ASIA              1502220000001581402221430042602109360001411290086203000026000000C0000000000000001001007001143010008236APP0000000129008620A01             9360003700000010836541100001273400000127340TOKO BUAH ANTO WIJAYA    
BC-BANK CENTRAL ASIA              1502220000001591402221432232602109360001411290097945000008470000C0000000000000000000007001143233008736APP0000000129009794A01             9360003700000067513581200001273450000127345AROMA 1                  
BC-BANK CENTRAL ASIA              1502220000001601402221436232602109360001411290115986000001850000C0000000000000000071257001143627009555APP0000000129011598A01             9360003700000011099581200001273460000127346KOPKESKAR JIHD           
BC-BANK CENTRAL ASIA              1502220000001611402221438232602109360001411290125357000003100000C0000000000000000000007001143828009966APP0000000129012535A01             9360003700000014259581200001273490000127349SATE MADURA              
BC-BANK CENTRAL ASIA              1502220000001621402221441532602109360001411290141651000002800000C0000000000000000000007001144200010700APP0000000129014165A01             9360003700000003880451100001273520000127352KEDAI RIOLO              
BC-BANK CENTRAL ASIA              1502220000001631402221442562602109360001411290146338000000900000C0000000000000000034657001144300010914APP0000000129014633A01             9360003700000089822752300001273540000127354ASIA PARKING - EC SCBD   
BC-BANK CENTRAL ASIA              1502220000001641402221449022602109360001411290175840000004500000C0000000000000000000007001144905012182APP0000000129017584A01             9360003700000066879581200001273580000127358"KULINER BORNEO"         
BC-BANK CENTRAL ASIA              1502220000001651402221452102602109360001411290190732000001300000C0000000000000000050057001145214012824APP0000000129019073A05             9360003700000091166752300001273620000127362GKI                      
BC-BANK CENTRAL ASIA              1502220000001661402221452482602109360001411290193629000001800000C0000000000000000069307001145252012949APP0000000129019362A01             9360003700000002650541100001273640000127364D&D MART                 
BC-BANK CENTRAL ASIA              1502220000001671402221454032602109360001411290199592000001900000C0000000000000000000007001145407013203APP0000000129019959A01             9360003700000087479581200001273650000127365NASI PADANG BU ROS       
BC-BANK CENTRAL ASIA              1502220000001681402221458142602109360001411290220281000001500000C0000000000000000000007001145817014111APP0000000129022028A01             9360003700000042458074200001273680000127368POISON BASE              
BC-BANK CENTRAL ASIA              1502220000001691402221459412602109360001411290227658000012500000C0000000000000000481257001145944014439APP0000000129022765A01             9360003700000016239581200001273690000127369GUMARANG JAYA 2          
BC-BANK CENTRAL ASIA              1502220000001701402221500102602109360001411290230132000000500000C0000000000000000019257001150016014541APP0000000129023013A01             9360003700000089822752300001273700000127370ASIA PARKING - EC SCBD   
BC-BANK CENTRAL ASIA              1502220000001711402221501482602109360001411290238408000004900000C0000000000000000000007001150152014890APP0000000129023840A01             9360003700000089731581400001273720000127372PECEL LELE BERKAH JAYA   
BC-BANK CENTRAL ASIA              1502220000001721402221502222602109360001411290241451000026400000C0000000000000001016407001150228015023APP0000000129024145A01             9360003700000046251581400001273730000127373KULU KILIR               
BC-BANK CENTRAL ASIA              1502220000001731402221502592602109360001411290244406000021725000C0000000000000000836417001150304015148APP0000000129024440A01             9360003700000046251581400001273740000127374KULU KILIR               
BC-BANK CENTRAL ASIA              1502220000001741402221505182602109360001411290256343000013800000C0000000000000000000007001150524015687APP0000000129025634A01             9360003700000050295581200001273760000127376"THE BUN BAKERY"         
BC-BANK CENTRAL ASIA              1502220000001751402221507592602109360001411290269825000000200000C0000000000000000007707001150805016270APP0000000129026982A01             9360003700000100942752300001273800000127380ASIA PARKING - GLOBAL    
BC-BANK CENTRAL ASIA              1502220000001761402221508582602109360001411290275350000002000000C0000000000000000000007001150908016489APP0000000129027535A01             9360003700000098112581400001273810000127381BAKSO EKOM               
BC-BANK CENTRAL ASIA              1502220000001771402221510022602109360001411290279899000005500000C0000000000000000000007001151005016678APP0000000129027989A01             9360003700000055914546200001273820000127382TOKO KUE PADI SNACK      
BC-BANK CENTRAL ASIA              1502220000001781402221511172602109360001411290286050000005900000C0000000000000000000007001151122016945APP0000000129028605A01             9360003700000051582581200001273830000127383KANTIN KOPKESKAR JIHD    
BC-BANK CENTRAL ASIA              1502220000001791402221514002602109360001411290299178000010500000C0000000000000000404257001151403017539APP0000000129029917A01             9360003700000014796541100001273850000127385TOKO BUAH ANTO WIJAYA PC2
BC-BANK CENTRAL ASIA              1502220000001801402221514232602109360001411290301115000001500000C0000000000000000000007001151427017619APP0000000129030111A01             9360003700000078023581300001273860000127386TOSAKA COFFEE            
BC-BANK CENTRAL ASIA              1502220000001811402221516222602109360001411290311411000000300000C0000000000000000011557001151626018084APP0000000129031141A01             9360003700000011099581200001273870000127387KOPKESKAR JIHD           
BC-BANK CENTRAL ASIA              1502220000001821402221516562602109360001411290314548000040000000C0000000000000000000007001151701018208APP0000000129031454A01             9360003700000078668723000001273880000127388LAVINA EYELASH DAN SALON 
BC-BANK CENTRAL ASIA              1502220000001831402221518062602109360001411290320347000000500000C0000000000000000019257001151810018457APP0000000129032034A01             9360003700000089822752300001273890000127389ASIA PARKING - EC SCBD   
BC-BANK CENTRAL ASIA              1502220000001841402221519422602109360001411290328324000001700000C0000000000000000065457001151946018774APP0000000129032832A01             9360003700000100942752300001273900000127390ASIA PARKING - GLOBAL    
BC-BANK CENTRAL ASIA              1502220000001851402221521112602109360001411290336236000003965500C0000000000000000000007001152118019130APP0000000129033623A01             9360003700000028101581200001273910000127391EAT ASIA PIK             
BC-BANK CENTRAL ASIA              1502220000001861402221523032602109360001411290345971000000900000C0000000000000000034657001152307019565APP0000000129034597A05             9360003700000091166752300001273920000127392GKI                      
BC-BANK CENTRAL ASIA              1502220000001871402221523292602109360001411290348181000009700000C0000000000000000373457001152333019675APP0000000129034818A01             9360003700000068487581200001273940000127394KEDAI POJOK BRASTAGITIARA
BC-BANK CENTRAL ASIA              1502220000001881402221525172602109360001411290357075000004000000C0000000000000000000007001152523020055APP0000000129035707A01             9360003700000021163582100001273950000127395BARBERSHOP UNDERCUT      
BC-BANK CENTRAL ASIA              1502220000001891402221541162602109360001411290436093000005600000C0000000000000000000007001154119023515APP0000000129043609A01             9360003700000041104222200001274070000127407KANAYA JUICE             
BC-BANK CENTRAL ASIA              1502220000001901402221543512602109360001411290450714000003300000C0000000000000000000007001154410024154APP0000000129045071A03             9360003700000074840581200001274090000127409KERAJAAN BAKSO           
BC-BANK CENTRAL ASIA              1502220000001911402221545512602109360001411290459962000001600000C0000000000000000000007001154555024569APP0000000129045996A01             9360003700000076886581200001274110000127411BAKSO BOSKUH             
BC-BANK CENTRAL ASIA              1502220000001921402221554192602109360001411290502183000001000000C0000000000000000038507001155423026385APP0000000129050218A01             9360003700000089848752300001274160000127416ASIA PARKING - LOT 17    
BC-BANK CENTRAL ASIA              1502220000001931402221554502602109360001411290505814000008200000C0000000000000000000007001155505026554APP0000000129050581A01             9360003700000011222599900001274170000127417TOKO MORODADI KRANGGAN   
BC-BANK CENTRAL ASIA              1502220000001941402221555562602109360001411290510145000001500000C0000000000000000000007001155603026746APP0000000129051014A01             9360003700000030552581200001274190000127419PS WARUNG SOTO           
BC-BANK CENTRAL ASIA              1502220000001951402221559512602109360001411290530523000002100000C0000000000000000000007001155958027598APP0000000129053052A01             9360003700000103557581200001274240000127424AYAM GEPREK "JUNED"      
BC-BANK CENTRAL ASIA              1502220000001961402221559582602109360001411290531570000008030000C0000000000000000000007001160010027649APP0000000129053157A01             9360003700000051301581200001274250000127425AYAM GEPUK PAK GEMBUS    
BC-BANK CENTRAL ASIA              1502220000001971402221611042602109360001411290588372000013431000C0000000000000000517117001161108030165APP0000000129058837A01             9360003700000026600581200001274290000127429CAFE KITSUNE             
BC-BANK CENTRAL ASIA              1502220000001981402221618022602109360001411290624193000001700000C0000000000000000065457001161811031700APP0000000129062419A01             9360003700000097452653100001274360000127436GDG ARTHA GRAHA          
BC-BANK CENTRAL ASIA              1502220000001991402221624262602109360001411290656906000005400000C0000000000000000000007001162431000368APP0000000129065690A01             9360003700000043183581400001274380000127438COFFEE 101 HK            
BC-BANK CENTRAL ASIA              1502220000002001402221634112602109360001411290706537000005150000C0000000000000000198307001163414002463APP0000000129070653A01             9360003700000002650541100001274420000127442D&D MART                 
BC-BANK CENTRAL ASIA              1502220000002011402221637292602109360001411290723086000160000000C0000000000000006160007001163734003154APP0000000129072308A01             9360003700000026600581200001274440000127444CAFE KITSUNE             
BC-BANK CENTRAL ASIA              1502220000002021402221638502602109360001411290729638000064680000C0000000000000002490187001163855003448APP0000000129072963A01             9360003700000046210581400001274450000127445PANCIOUS                 
BC-BANK CENTRAL ASIA              1502220000002031402221639072602109360001411290731626000005541000C0000000000000000000007001163914003536APP0000000129073162A01             9360003700000083817546200001274460000127446CELINE CAKERY & BAKESHOP 
BC-BANK CENTRAL ASIA              1502220000002041402221641232602109360001411290743373000020000000C0000000000000000000007001164127004063APP0000000129074337A01             9360003700000097015573200001274480000127448BENUA CELL BTM           
BC-BANK CENTRAL ASIA              1502220000002051402221641332602109360001411290744157000064735000C0000000000000002492297001164138004091APP0000000129074415A01             9360003700000046210581400001274490000127449PANCIOUS                 
BC-BANK CENTRAL ASIA              1502220000002061402221645312602109360001411290764957000001300000C0000000000000000050057001164534004988APP0000000129076495A01             9360003700000091166752300001274550000127455GKI                      
BC-BANK CENTRAL ASIA              1502220000002071402221649402602109360001411290787503000000400000C0000000000000000015407001164944005924APP0000000129078750A01             9360003700000100926752300001274610000127461ASIA PARKING -ALAM SUTERA
BC-BANK CENTRAL ASIA              1502220000002081402221650562602109360001411290794178000001800000C0000000000000000069307001165059006195APP0000000129079417A01             9360003700000021197451100001274630000127463KOPI DARI HATI ROXY      
BC-BANK CENTRAL ASIA              1502220000002091402221651072602109360001411290795308000006000000C0000000000000000231007001165110006239APP0000000129079530A01             9360003700000014374581200001274640000127464"KUICK KUICK"            
BC-BANK CENTRAL ASIA              1502220000002101402221651162602109360001411290796215000030470000C0000000000000001173107001165119006277APP0000000129079621A01             9360003700000046210581400001274650000127465PANCIOUS                 
BC-BANK CENTRAL ASIA              1502220000002111402221652052602109360001411290800694000030250000C0000000000000000000007001165207006452APP0000000129080069A01             9360003700000107723581200001274660000127466KOPI TAMPAN KELAPA GADING
BC-BANK CENTRAL ASIA              1502220000002121402221654492602109360001411290815189000006000000C0000000000000000000007001165455007088APP0000000129081518A01             9360003700000099847581200001274700000127470SATE MARANGGI            
BC-BANK CENTRAL ASIA              1502220000002131402221654552602109360001411290815486000008700000C0000000000000000000007001165459007100APP0000000129081548A01             9360003700000042185581200001274710000127471KANTIN ASA               
BC-BANK CENTRAL ASIA              1502220000002141402221654562602109360001411290815510000005000000C0000000000000000000007001165500007103APP0000000129081551A01             9360003700000107137581400001274720000127472ASINAN BU LIS PIK        
BC-BANK CENTRAL ASIA              1502220000002151402221655422602109360001411290819447000006000000C0000000000000000231007001165546007267APP0000000129081944A01             9360003700000010836541100001274730000127473TOKO BUAH ANTO WIJAYA    
BC-BANK CENTRAL ASIA              1502220000002161402221657162602109360001411290828125000000900000C0000000000000000034657001165723007646APP0000000129082812A01             9360003700000089848752300001274740000127474ASIA PARKING - LOT 17    
BC-BANK CENTRAL ASIA              1502220000002171402221659412602109360001411290840179000001000000C0000000000000000000007001165944008168APP0000000129084017A01             9360003700000008046581400001274780000127478BAKSO MALANG JAYA MAKMUR 
BC-BANK CENTRAL ASIA              1502220000002181402221700232602109360001411290844056000008000000C0000000000000000000007001170027008323APP0000000129084405A01             9360003700000101403581400001274790000127479GO DURIAN ICE FOOD STREET
BC-BANK CENTRAL ASIA              1502220000002191402221702052602109360001411290853107000001800000C0000000000000000069307001170208008726APP0000000129085310A01             9360003700000100942752300001274810000127481ASIA PARKING - GLOBAL    
BC-BANK CENTRAL ASIA              1502220000002201402221703542602109360001411290862777000002000000C0000000000000000077007001170358009164APP0000000129086277A01             9360003700000091166752300001274830000127483GKI                      
BC-BANK CENTRAL ASIA              1502220000002211402221704112602109360001411290864369000003700000C0000000000000000000007001170415009227APP0000000129086436A01             9360003700000005794581200001274840000127484WARUNG SOLO BU TRI       
BC-BANK CENTRAL ASIA              1502220000002221402221705412602109360001411290872883000009900000C0000000000000000381157001170549009568APP0000000129087288A01             9360003700000035791809900001274850000127485BUMAME FARMASI HUBLIFE   
BC-BANK CENTRAL ASIA              1502220000002231402221711412602109360001411290904488000005100000C0000000000000000000007001171146010918APP0000000129090448A01             9360003700000087479581200001274890000127489NASI PADANG BU ROS       
BC-BANK CENTRAL ASIA              1502220000002241402221717262602109360001411290934782000001200000C0000000000000000000007001171733012246APP0000000129093478A01             9360003700000079096581200001274920000127492BAKSO MANTAP             
BC-BANK CENTRAL ASIA              1502220000002251402221720342602109360001411290952040000014000000C0000000000000000000007001172039012987APP0000000129095204A01             9360003700000021874581400001274970000127497RM PAK NDUT              
BC-BANK CENTRAL ASIA              1502220000002261402221722012602109360001411290959839000020500000C0000000000000000000007001172205013319APP0000000129095983A01             9360003700000027624546200001274980000127498'MAISON WEINER'          
BC-BANK CENTRAL ASIA              1502220000002271402221724322602109360001411290973806000000400000C0000000000000000015407001172439013908APP0000000129097380A01             9360003700000100926752300001275000000127500ASIA PARKING -ALAM SUTERA
BC-BANK CENTRAL ASIA              1502220000002281402221731032602109360001411291008941000003200000C0000000000000000000007001173108015454APP0000000129100894A01             9360003700000087479581200001275040000127504NASI PADANG BU ROS       
BC-BANK CENTRAL ASIA              1502220000002291402221732072602109360001411291014592000002400000C0000000000000000092407001173210015711APP0000000129101459A05             9360003700000091166752300001275060000127506GKI                      
BC-BANK CENTRAL ASIA              1502220000002301402221732282602109360001411291016662000001200000C0000000000000000000007001173232015808APP0000000129101666A01             9360003700000079096581200001275070000127507BAKSO MANTAP             
BC-BANK CENTRAL ASIA              1502220000002311402221735182602109360001411291032610000009000000C0000000000000000000007001173525016533APP0000000129103261A01             9360003700000080672581200001275100000127510BASO SUDI MAMPIR T MERAH 
BC-BANK CENTRAL ASIA              1502220000002321402221735212602109360001411291032800000008850000C0000000000000000340757001173527016537APP0000000129103280A01             9360003700000002650541100001275110000127511D&D MART                 
BC-BANK CENTRAL ASIA              1502220000002331402221739042602109360001411291053038000008400000C0000000000000000000007001173909017411APP0000000129105303A01             9360003700000049248581200001275130000127513"WARUNG MOGAN VEGETARIAN"
BC-BANK CENTRAL ASIA              1502220000002341402221740112602109360001411291058946000008600000C0000000000000000000007001174017017657APP0000000129105894A01             9360003700000070350581200001275140000127514RM PADANG DIBAO UNTUANG  
BC-BANK CENTRAL ASIA              1502220000002351402221741232602109360001411291065156000000900000C0000000000000000034657001174126017935APP0000000129106515A01             9360003700000089848752300001275170000127517ASIA PARKING - LOT 17    
BC-BANK CENTRAL ASIA              1502220000002361402221745592602109360001411291090436000092429500C0000000000000003558547001174604019038APP0000000129109043A03             9360003700000084153701100001275200000127520"DISCOVERY KARTIKA PLAZA"
BC-BANK CENTRAL ASIA              1502220000002371402221746222602109360001411291092176000002800000C0000000000000000000007001174625019119APP0000000129109217A01             9360003700000072448721000001275210000127521BIRU LAUNDRY 1           
BC-BANK CENTRAL ASIA              1502220000002381402221746232602109360001411291092184000003700000C0000000000000000142457001174625019120APP0000000129109218A02             9360003700000097452653100001275220000127522GDG ARTHA GRAHA          
BC-BANK CENTRAL ASIA              1502220000002391402221746582602109360001411291095658000008470000C0000000000000000000007001174705019265APP0000000129109565A01             9360003700000107723581200001275230000127523KOPI TAMPAN KELAPA GADING
BC-BANK CENTRAL ASIA              1502220000002401402221747132602109360001411291096540000007800000C0000000000000000000007001174716019305APP0000000129109654A01             9360003700000052960074200001275240000127524KADOYA UDON              
BC-BANK CENTRAL ASIA              1502220000002411402221750532602109360001411291116892000000900000C0000000000000000034657001175059020259APP0000000129111689A01             9360003700000089848752300001275300000127530ASIA PARKING - LOT 17    
BC-BANK CENTRAL ASIA              1502220000002421402221754262602109360001411291136114000004100000C0000000000000000157857001175430021111APP0000000129113611A02             9360003700000097452653100001275330000127533GDG ARTHA GRAHA          
BC-BANK CENTRAL ASIA              1502220000002431402221756572602109360001411291149513000005000000C0000000000000000000007001175700021695APP0000000129114951A01             9360003700000101437581400001275340000127534BAKSO GORENG GOKI        
BC-BANK CENTRAL ASIA              1502220000002441402221757382602109360001411291153358000010500000C0000000000000000000007001175743021869APP0000000129115335A01             9360003700000088139565100001275370000127537SACHI KIDS               
BC-BANK CENTRAL ASIA              1502220000002451402221802562602109360001411291181987000027500000C0000000000000000000007001180306023140APP0000000129118198A01             9360003700000017724599500001275420000127542PRAKTEK DOKTER HEWAN TINA
BC-BANK CENTRAL ASIA              1502220000002461402221806102602109360001411291198882000001700000C0000000000000000065457001180613023921APP0000000129119888A02             9360003700000097452653100001275450000127545GDG ARTHA GRAHA          
BC-BANK CENTRAL ASIA              1502220000002471402221806452602109360001411291203096000006900000C0000000000000000000007001180656024103APP0000000129120309A01             9360003700000042920569900001275460000127546KANA BEADS               
BC-BANK CENTRAL ASIA              1502220000002481402221810492602109360001411291223979000004100000C0000000000000000157857001181052025032APP0000000129122397A02             9360003700000097452653100001275510000127551GDG ARTHA GRAHA          
BC-BANK CENTRAL ASIA              1502220000002491402221812062602109360001411291231030000018800000C0000000000000000000007001181210025348APP0000000129123103A01             9360003700000098609074200001275540000127554BOGA LOKA REBORN         
BC-BANK CENTRAL ASIA              1502220000002501402221812552602109360001411291235460000036850000C0000000000000001418757001181259025566APP0000000129123546A01             9360003700000046210581400001275550000127555PANCIOUS                 
BC-BANK CENTRAL ASIA              1502220000002511402221814012602109360001411291241591000004500000C0000000000000000000007001181407025838APP0000000129124159A01             9360003700000081266074200001275570000127557SIMPLE COFFEE STORIES    
BC-BANK CENTRAL ASIA              1502220000002521402221815012602109360001411291246863000037000000C0000000000000000000007001181505026063APP0000000129124686A01             9360003700000052432581200001275590000127559"SANGGURU KOPI"          
BC-BANK CENTRAL ASIA              1502220000002531402221815082602109360001411291247481000032450000C0000000000000001249357001181511026087APP0000000129124748A01             9360003700000046228581400001275600000127560HOLYCOW                  
BC-BANK CENTRAL ASIA              1502220000002541402221817532602109360001411291262852000004100000C0000000000000000157857001181758026774APP0000000129126285A02             9360003700000097452653100001275650000127565GDG ARTHA GRAHA          
BC-BANK CENTRAL ASIA              1502220000002551402221819552602109360001411291273420000050000000C0000000000000000000007001182002027264APP0000000129127342A01             9360003700000061755549900001275660000127566KERIPIK SLAMET           
BC-BANK CENTRAL ASIA              1502220000002561402221822002602109360001411291284138000075000000C0000000000000000000007001182206027772APP0000000129128413A01             9360003700000030263799800001275680000127568TO THE SEA AQUARIUM      
BC-BANK CENTRAL ASIA              1502220000002571402221823252602109360001411291291828000006000000C0000000000000000000007001182330028123APP0000000129129182A01             9360003700000073081222200001275700000127570"SHOPEE BALI I"          
BC-BANK CENTRAL ASIA              1502220000002581402221824322602109360001411291301510000003000000C0000000000000000115507001182521028604APP0000000129130151A01             9360003700000045493581200001275720000127572GOURMET BOROBUDUR        
BC-BANK CENTRAL ASIA              1502220000002591402221826552602109360001411291309737000013000000C0000000000000000000007001182659028975APP0000000129130973A01             9360003700000010265074200001275740000127574SURKEN 218               
BC-BANK CENTRAL ASIA              1502220000002601402221826592602109360001411291312145000009700000C0000000000000000000007001182728029082APP0000000129131214A01             9360003700000093394581400001275750000127575POPEYE CORNER STREET FOOD
BC-BANK CENTRAL ASIA              1502220000002611402221830072602109360001411291326962000000400000C0000000000000000015407001183014029716APP0000000129132696A01             9360003700000100926752300001275790000127579ASIA PARKING -ALAM SUTERA
BC-BANK CENTRAL ASIA              1502220000002621402221830142602109360001411291327333000000400000C0000000000000000015407001183018029734APP0000000129132733A01             9360003700000100892752300001275800000127580ASIA PARKING - ECI UMEN  
BC-BANK CENTRAL ASIA              1502220000002631402221830452602109360001411291329735000006500000C0000000000000000000007001183051029843APP0000000129132973A01             9360003700000098096581400001275810000127581BUBUR AYAM BANG YON CIREB
BC-BANK CENTRAL ASIA              1502220000002641402221831062602109360001411291331814000018200000C0000000000000000000007001183111029935APP0000000129133181A01             9360003700000075854591200001275820000127582APOTIK SANITAS           
BC-BANK CENTRAL ASIA              1502220000002651402221832492602109360001411291341078000005900000C0000000000000000227157001183252030342APP0000000129134107A01             9360003700000014374581200001275830000127583"KUICK KUICK"            
BC-BANK CENTRAL ASIA              1502220000002661402221833322602109360001411291344650000007700000C0000000000000000000007001183335030517APP0000000129134465A01             9360003700000053463581200001275840000127584"BAKSO POHON JATI"       
BC-BANK CENTRAL ASIA              1502220000002671402221834472602109360001411291351077000030000000C0000000000000000000007001183450030808APP0000000129135107A01             9360003700000017724599500001275870000127587PRAKTEK DOKTER HEWAN TINA
BC-BANK CENTRAL ASIA              1502220000002681402221836572602109360001411291363486000023111000C0000000000000000889777001183701031374APP0000000129136348A01             9360003700000026600581200001275890000127589CAFE KITSUNE             
BC-BANK CENTRAL ASIA              1502220000002691402221837202602109360001411291365796000009500000C0000000000000000000007001183727031483APP0000000129136579A01             9360003700000046780581200001275900000127590"BAKMIE KERITING A YOUNG"
BC-BANK CENTRAL ASIA              1502220000002701402221839072602109360001411291374533000022011000C0000000000000000000007001183912031882APP0000000129137453A01             9360003700000028101581200001275920000127592EAT ASIA PIK             
BC-BANK CENTRAL ASIA              1502220000002711402221842392602109360001411291393194000030400000C0000000000000000000007001184243032714APP0000000129139319A01             9360003700000050287222200001275960000127596"GOLDI PET CARE & SHOP"  
BC-BANK CENTRAL ASIA              1502220000002721402221844572602109360001411291405352000005800000C0000000000000000000007001184502000485APP0000000129140535A01             9360003700000065715581400001275980000127598PECEL LELE SUMBER REZEKI 
BC-BANK CENTRAL ASIA              1502220000002731402221846062602109360001411291411244000029150000C0000000000000000000007001184610000790APP0000000129141124A01             9360003700000107723581200001276000000127600KOPI TAMPAN KELAPA GADING
BC-BANK CENTRAL ASIA              1502220000002741402221846552602109360001411291416888000005000000C0000000000000000000007001184713001056APP0000000129141688A01             9360003700000098401581200001276010000127601NASI GORENG GILA BERKAT  
BC-BANK CENTRAL ASIA              1502220000002751402221851022602109360001411291438957000032450000C0000000000000001249357001185106002035APP0000000129143895A01             9360003700000046228581400001276060000127606HOLYCOW                  
BC-BANK CENTRAL ASIA              1502220000002761402221853432602109360001411291453337000035000000C0000000000000000000007001185350002683APP0000000129145333A01             9360003700000017724599500001276080000127608PRAKTEK DOKTER HEWAN TINA
BC-BANK CENTRAL ASIA              1502220000002771402221853532602109360001411291453840000002000000C0000000000000000077007001185356002709APP0000000129145384A02             9360003700000089822752300001276090000127609ASIA PARKING - EC SCBD   
BC-BANK CENTRAL ASIA              1502220000002781402221856092602109360001411291466065000017500000C0000000000000000000007001185614003259APP0000000129146606A01             9360003700000107137581400001276110000127611ASINAN BU LIS PIK        
BC-BANK CENTRAL ASIA              1502220000002791402221858022602109360001411291476734000300000000C0000000000000000000007001185818003735APP0000000129147673A01             9360003700000106634573200001276120000127612PUTRA FAJAR ELEKTRONIK   
BC-BANK CENTRAL ASIA              1502220000002801402221859382602109360001411291483805000002500000C0000000000000000000007001185942004062APP0000000129148380A01             9360003700000101411581400001276130000127613GO DURIAN ICE FOOD STREET
BC-BANK CENTRAL ASIA              1502220000002811402221859432602109360001411291484472000005000000C0000000000000000000007001185950004097APP0000000129148447A01             9360003700000101429581400001276140000127614BAKSO GORENG POJOK SENAYA
BC-BANK CENTRAL ASIA              1502220000002821402221900562602109360001411291490354000003500000C0000000000000000000007001190059004362APP0000000129149035A01             9360003700000107137581400001276160000127616ASINAN BU LIS PIK        
BC-BANK CENTRAL ASIA              1502220000002831402221901552602109360001411291495742000006800000C0000000000000000000007001190200004593APP0000000129149574A01             9360003700000054362222200001276180000127618THE PARBONT              
BC-BANK CENTRAL ASIA              1502220000002841402221903482602109360001411291505680000000400000C0000000000000000015407001190351005067APP0000000129150568A01             9360003700000100926752300001276200000127620ASIA PARKING -ALAM SUTERA
BC-BANK CENTRAL ASIA              1502220000002851402221905082602109360001411291512918000020000000C0000000000000000770007001190514005413APP0000000129151291A01             9360003700000046988581200001276230000127623CHURCHILL2               
BC-BANK CENTRAL ASIA              1502220000002861402221911182602109360001411291547328000023793000C0000000000000000000007001191130006975APP0000000129154732A01             9360003700000028101581200001276270000127627EAT ASIA PIK             
BC-BANK CENTRAL ASIA              1502220000002871402221913002602109360001411291555636000004000000C0000000000000000000007001191303007386APP0000000129155563A01             9360003700000099383581200001276280000127628MUNASH COCONUT           
BC-BANK CENTRAL ASIA              1502220000002881402221914382602109360001411291564273000002200000C0000000000000000084707001191444007771APP0000000129156427A01             9360003700000089848752300001276310000127631ASIA PARKING - LOT 17    
BC-BANK CENTRAL ASIA              1502220000002891402221915252602109360001411291569298000001000000C0000000000000000000007001191538008003APP0000000129156929A01             9360003700000073420581400001276320000127632RUJAK KU                 
BC-BANK CENTRAL ASIA              1502220000002901402221915512602109360001411291571039000004000000C0000000000000000000007001191555008087APP0000000129157103A01             9360003700000099383581200001276330000127633MUNASH COCONUT           
BC-BANK CENTRAL ASIA              1502220000002911402221917172602109360001411291579065000009000000C0000000000000000000007001191721008455APP0000000129157906A01             9360003700000064221723000001276340000127634LEN`S SALON & SPA        
BC-BANK CENTRAL ASIA              1502220000002921402221920592602109360001411291598800000010000000C0000000000000000000007001192103009393APP0000000129159880A01             9360003700000066309222200001276360000127636TOKO DHIFA               
BC-BANK CENTRAL ASIA              1502220000002931402221921142602109360001411291600929000003500000C0000000000000000000007001192122009490APP0000000129160092A01             9360003700000048703581200001276370000127637TOP 10 CHINESE FOOD      
BC-BANK CENTRAL ASIA              1502220000002941402221927302602109360001411291636857000084800000C0000000000000000000007001192734011145APP0000000129163685A01             9360003700000024712581200001276410000127641JENZ RECIPE              
BC-BANK CENTRAL ASIA              1502220000002951402221928552602109360001411291644794000003500000C0000000000000000000007001192900011501APP0000000129164479A01             9360003700000107137581400001276430000127643ASINAN BU LIS PIK        
BC-BANK CENTRAL ASIA              1502220000002961402221931452602109360001411291660386000013500000C0000000000000000000007001193147012221APP0000000129166038A01             9360003700000073073581200001276450000127645SEAFOOD 89               
BC-BANK CENTRAL ASIA              1502220000002971402221935542602109360001411291684360000002700000C0000000000000000000007001193558013334APP0000000129168436A01             9360003700000058603581200001276500000127650SOTO BETAWI BANG ALWAN   
BC-BANK CENTRAL ASIA              1502220000002981402221938142602109360001411291698360000010000000C0000000000000000000007001193820013965APP0000000129169836A01             9360003700000073073581200001276560000127656SEAFOOD 89               
BC-BANK CENTRAL ASIA              1502220000002991402221938392602109360001411291700463000002300000C0000000000000000000007001193843014056APP0000000129170046A01             9360003700000079302581400001276570000127657WARUNG TIKNO             
BC-BANK CENTRAL ASIA              1502220000003001402221938542602109360001411291701800000001800000C0000000000000000069307001193857014118APP0000000129170180A01             9360003700000089848752300001276580000127658ASIA PARKING - LOT 17    
BC-BANK CENTRAL ASIA              1502220000003011402221939122602109360001411291703517000000500000C0000000000000000000007001193916014201APP0000000129170351A01             9360003700000093394581400001276590000127659POPEYE CORNER STREET FOOD
BC-BANK CENTRAL ASIA              1502220000003021402221939462602109360001411291706411000003190000C0000000000000000000007001193949014339APP0000000129170641A01             9360003700000107723581200001276600000127660KOPI TAMPAN KELAPA GADING
BC-BANK CENTRAL ASIA              1502220000003031402221940222602109360001411291710066000005500000C0000000000000000000007001194026014506APP0000000129171006A01             9360003700000099987581200001276620000127662WAKACAO PIK I            
BC-BANK CENTRAL ASIA              1502220000003041402221941282602109360001411291716394000003600000C0000000000000000000007001194131014812APP0000000129171639A01             9360003700000038910591200001276630000127663'APOTIK ANDHIKA FARMA'   
BC-BANK CENTRAL ASIA              1502220000003051402221946352602109360001411291745120000002500000C0000000000000000000007001194639016163APP0000000129174512A01             9360003700000101437581400001276650000127665BAKSO GORENG GOKI        
BC-BANK CENTRAL ASIA              1502220000003061402221947002602109360001411291747480000018100000C0000000000000000000007001194705016277APP0000000129174748A01             9360003700000099136581400001276660000127666SOP KONRO KAREBOSI FS PIK
BC-BANK CENTRAL ASIA              1502220000003071402221949472602109360001411291762273000032600000C0000000000000000000007001194951016927APP0000000129176227A01             9360003700000099136581400001276690000127669SOP KONRO KAREBOSI FS PIK
BC-BANK CENTRAL ASIA              1502220000003081402221951182602109360001411291770714000008910000C0000000000000000000007001195122017334APP0000000129177071A05             9360003700000002973581200001276700000127670CAFE NEW AGUNG           
BC-BANK CENTRAL ASIA              1502220000003091402221951202602109360001411291771167000028160000C0000000000000000000007001195125017354APP0000000129177116A01             9360003700000107723581200001276710000127671KOPI TAMPAN KELAPA GADING
BC-BANK CENTRAL ASIA              1502220000003101402221954322602109360001411291789029000001500000C0000000000000000057757001195436018192APP0000000129178902A01             9360003700000048562703200001276760000127676SOLITAIRE FITNESS        
BC-BANK CENTRAL ASIA              1502220000003111402221954552602109360001411291791298000019200000C0000000000000000000007001195500018308APP0000000129179129A01             9360003700000099136581400001276780000127678SOP KONRO KAREBOSI FS PIK
BC-BANK CENTRAL ASIA              1502220000003121402221955272602109360001411291795232000001500000C0000000000000000057757001195542018490APP0000000129179523A01             9360003700000048562703200001276810000127681SOLITAIRE FITNESS        
BC-BANK CENTRAL ASIA              1502220000003131402221955512602109360001411291796677000200770000C0000000000000007729657001195559018569APP0000000129179667A01             9360003700000058447581300001276820000127682ZAZA'S BOUTIQUE BAR & EAT
BC-BANK CENTRAL ASIA              1502220000003141402221956022602109360001411291797139000002800000C0000000000000000000007001195605018587APP0000000129179713A01             9360003700000003880451100001276830000127683KEDAI RIOLO              
BC-BANK CENTRAL ASIA              1502220000003151402222001142602109360001411291824917000000400000C0000000000000000015407001200119019875APP0000000129182491A01             9360003700000100892752300001276870000127687ASIA PARKING - ECI UMEN  
BC-BANK CENTRAL ASIA              1502220000003161402222003102602109360001411291835194000004200000C0000000000000000000007001200315020325APP0000000129183519A01             9360003700000026592581200001276890000127689BAKMI BAHAGIA BARU       
BC-BANK CENTRAL ASIA              1502220000003171402222003282602109360001411291836747000001300000C0000000000000000000007001200332020395APP0000000129183674A01             9360003700000079302581400001276900000127690WARUNG TIKNO             
BC-BANK CENTRAL ASIA              1502220000003181402222003362602109360001411291838479000000400000C0000000000000000000007001200351020477APP0000000129183847A01             9360003700000044827581200001276910000127691WARUNG UMI LIA           
BC-BANK CENTRAL ASIA              1502220000003191402222006162602109360001411291851720000000400000C0000000000000000015407001200620021073APP0000000129185172A01             9360003700000100926752300001276930000127693ASIA PARKING -ALAM SUTERA
BC-BANK CENTRAL ASIA              1502220000003201402222007502602109360001411291859723000004050000C0000000000000000155957001200757021443APP0000000129185972A01             9360003700000002650541100001276950000127695D&D MART                 
BC-BANK CENTRAL ASIA              1502220000003211402222012482602109360001411291886585000160000000C0000000000000006160007001201252022680APP0000000129188658A01             9360003700000026600581200001276980000127698CAFE KITSUNE             
BC-BANK CENTRAL ASIA              1502220000003221402222013172602109360001411291888870000003520000C0000000000000000000007001201321022788APP0000000129188887A01             9360003700000107723581200001276990000127699KOPI TAMPAN KELAPA GADING
BC-BANK CENTRAL ASIA              1502220000003231402222014082602109360001411291893433000002000000C0000000000000000000007001201414022999APP0000000129189343A01             9360003700000100959581200001277000000127700MOONZA COFFEE            
BC-BANK CENTRAL ASIA              1502220000003241402222017322602109360001411291912142000024800000C0000000000000000000007001201739023913APP0000000129191214A01             9360003700000073073581200001277060000127706SEAFOOD 89               
BC-BANK CENTRAL ASIA              1502220000003251402222022172602109360001411291936513000002600000C0000000000000000100107001202221025064APP0000000129193651A01             9360003700000091166752300001277130000127713GKI                      
BC-BANK CENTRAL ASIA              1502220000003261402222022462602109360001411291939228000002600000C0000000000000000000007001202250025193APP0000000129193922A01             9360003700000058207581400001277140000127714WARUNG BAKOEL MEGONO     
BC-BANK CENTRAL ASIA              1502220000003271402222022462602109360001411291939582000006490000C0000000000000000249877001202252025212APP0000000129193958A01             9360003700000046210581400001277150000127715PANCIOUS                 
BC-BANK CENTRAL ASIA              1502220000003281402222024192602109360001411291948328000002500000C0000000000000000096257001202423025622APP0000000129194832A01             9360003700000091166752300001277180000127718GKI                      
BC-BANK CENTRAL ASIA              1502220000003291402222025222602109360001411291953351000000500000C0000000000000000019257001202524025853APP0000000129195335A05             9360003700000091166752300001277200000127720GKI                      
BC-BANK CENTRAL ASIA              1502220000003301402222026562602109360001411291962709000006545000C0000000000000000251977001202706026284APP0000000129196270A01             9360003700000046236581400001277220000127722TOKOPI POTSUKI           
BC-BANK CENTRAL ASIA              1502220000003311402222027572602109360001411291967732000004300000C0000000000000000000007001202803026521APP0000000129196773A01             9360003700000037599222200001277230000127723PAON JEGEG               
BC-BANK CENTRAL ASIA              1502220000003321402222029232602109360001411291976022000012320000C0000000000000000474327001202930026906APP0000000129197602A01             9360003700000000761581400001277250000127725BAKMI PP                 
BC-BANK CENTRAL ASIA              1502220000003331402222029242602109360001411291975735000042350000C0000000000000001630507001202927026892APP0000000129197573A01             9360003700000046228581400001277240000127724HOLYCOW                  
BC-BANK CENTRAL ASIA              1502220000003341402222030452602109360001411291983382000008200000C0000000000000000000007001203049027251APP0000000129198338A01             9360003700000098401581200001277260000127726NASI GORENG GILA BERKAT  
BC-BANK CENTRAL ASIA              1502220000003351402222030542602109360001411291984935000002700000C0000000000000000000007001203105027327APP0000000129198493A01             9360003700000079179581200001277270000127727WARUNG KMS               
BC-BANK CENTRAL ASIA              1502220000003361402222034042602109360001411292001507000005500000C0000000000000000211757001203407028083APP0000000129200150A01             9360003700000014796541100001277310000127731TOKO BUAH ANTO WIJAYA PC2
BC-BANK CENTRAL ASIA              1502220000003371402222034142602109360001411292002620000450000000C0000000000000000000007001203420028137APP0000000129200262A01             9360003700000038001533100001277320000127732WARUNG KANZA             
BC-BANK CENTRAL ASIA              1502220000003381402222034202602109360001411292002984000003600000C0000000000000000000007001203424028158APP0000000129200298A01             9360003700000100959581200001277330000127733MOONZA COFFEE            
BC-BANK CENTRAL ASIA              1502220000003391402222036412602109360001411292015309000005500000C0000000000000000211757001203644028744APP0000000129201530A01             9360003700000002650541100001277340000127734D&D MART                 
BC-BANK CENTRAL ASIA              1502220000003401402222047202602109360001411292066385000000700000C0000000000000000026957001204725031113APP0000000129206638A01             9360003700000100892752300001277380000127738ASIA PARKING - ECI UMEN  
BC-BANK CENTRAL ASIA              1502220000003411402222047502602109360001411292068605000002400000C0000000000000000092407001204753031221APP0000000129206860A01             9360003700000100876752300001277390000127739ASIA PARKING - MAG       
BC-BANK CENTRAL ASIA              1502220000003421402222049362602109360001411292077234000001500000C0000000000000000000007001204942031609APP0000000129207723A01             9360003700000100959581200001277430000127743MOONZA COFFEE            
BC-BANK CENTRAL ASIA              1502220000003431402222051112602109360001411292084586000035689500C0000000000000000000007001205116031936APP0000000129208458A01             9360003700000028101581200001277450000127745EAT ASIA PIK             
BC-BANK CENTRAL ASIA              1502220000003441402222054002602109360001411292097794000012400200C0000000000000000477407001205404032551APP0000000129209779A01             9360003700000022716581200001277460000127746EATALIA KITCHEN          
BC-BANK CENTRAL ASIA              1502220000003451402222055252602109360001411292105282000005500000C0000000000000000000007001205535000133APP0000000129210528A01             9360003700000038910591200001277470000127747'APOTIK ANDHIKA FARMA'   
BC-BANK CENTRAL ASIA              1502220000003461402222059382602109360001411292122857000004100000C0000000000000000157857001205941000920APP0000000129212285A01             9360003700000091166752300001277490000127749GKI                      
BC-BANK CENTRAL ASIA              1502220000003471402222100362602109360001411292126809000019299800C0000000000000000000007001210043001088APP0000000129212680A01             9360003700000058215581200001277500000127750PAPARONS                 
BC-BANK CENTRAL ASIA              1502220000003481402222103292602109360001411292137962000002300000C0000000000000000000007001210333001572APP0000000129213796A01             9360003700000048232581200001277510000127751PESEN MAKAN BY MAMA KANA 
BC-BANK CENTRAL ASIA              1502220000003491402222105352602109360001411292148787000005300000C0000000000000000204057001210630002047APP0000000129214878A01             9360003700000016239581200001277530000127753GUMARANG JAYA 2          
BC-BANK CENTRAL ASIA              1502220000003501402222107132602109360001411292151898000000500000C0000000000000000019257001210718002211APP0000000129215189A01             9360003700000091166752300001277540000127754GKI                      
BC-BANK CENTRAL ASIA              1502220000003511402222107142602109360001411292152227000003200000C0000000000000000000007001210723002225APP0000000129215222A01             9360003700000101437581400001277550000127755BAKSO GORENG GOKI        
BC-BANK CENTRAL ASIA              1502220000003521402222113062602109360001411292172340000002100000C0000000000000000080857001211315003134APP0000000129217234A01             9360003700000091166752300001277570000127757GKI                      
BC-BANK CENTRAL ASIA              1502220000003531402222116412602109360001411292184139000001300000C0000000000000000050057001211645003702APP0000000129218413A01             9360003700000091166752300001277590000127759GKI                      
BC-BANK CENTRAL ASIA              1502220000003541402222117362602109360001411292187397000030000000C0000000000000000000007001211741003852APP0000000129218739A01             9360003700000073073581200001277600000127760SEAFOOD 89               
BC-BANK CENTRAL ASIA              1502220000003551402222122182602109360001411292203269000022260000C0000000000000000857027001212222004566APP0000000129220326A01             9360003700000058447581300001277610000127761ZAZA'S BOUTIQUE BAR & EAT
BC-BANK CENTRAL ASIA              1502220000003561402222127532602109360001411292222426000028098400C0000000000000000000007001212758005451APP0000000129222242A01             9360003700000028101581200001277650000127765EAT ASIA PIK             
BC-BANK CENTRAL ASIA              1502220000003571402222130242602109360001411292234108000002200000C0000000000000000000007001213147006002APP0000000129223410A01             9360003700000044090581200001277670000127767AYAM OMBOH               
BC-BANK CENTRAL ASIA              1502220000003581402222133102602109360001411292238182000001000000C0000000000000000000007001213314006199APP0000000129223818A01             9360003700000098690581200001277700000127770COSMONIC COFFEE          
BC-BANK CENTRAL ASIA              1502220000003591402222133182602109360001411292238521000004000000C0000000000000000000007001213321006217APP0000000129223852A01             9360003700000101403581400001277710000127771GO DURIAN ICE FOOD STREET
BC-BANK CENTRAL ASIA              1502220000003601402222134372602109360001411292242820000014600000C0000000000000000000007001213441006419APP0000000129224282A01             9360003700000073073581200001277720000127772SEAFOOD 89               
BC-BANK CENTRAL ASIA              1502220000003611402222136252602109360001411292248330000002500000C0000000000000000000007001213632006683APP0000000129224833A01             9360003700000101403581400001277730000127773GO DURIAN ICE FOOD STREET
BC-BANK CENTRAL ASIA              1502220000003621402222136312602109360001411292248694000034500000C0000000000000000000007001213644006705APP0000000129224869A01             9360003700000024712581200001277740000127774JENZ RECIPE              
BC-BANK CENTRAL ASIA              1502220000003631402222149012602109360001411292286025000001700000C0000000000000000065457001214905008457APP0000000129228602A01             9360003700000091166752300001277760000127776GKI                      
BC-BANK CENTRAL ASIA              1502220000003641402222152272602109360001411292296123000005000000C0000000000000000000007001215234008956APP0000000129229612A01             9360003700000098401581200001277770000127777NASI GORENG GILA BERKAT  
BC-BANK CENTRAL ASIA              1502220000003651402222155262602109360001411292303622000004300000C0000000000000000165557001215531009337APP0000000129230362A01             9360003700000002650541100001277790000127779D&D MART                 
BC-BANK CENTRAL ASIA              1502220000003661402222209422602109360001411292340913000000900000C0000000000000000034657001220945011052APP0000000129234091A01             9360003700000091166752300001277800000127780GKI                      
BC-BANK CENTRAL ASIA              1502220000003671402222209422602109360001411292341085000002100000C0000000000000000000007001220950011060APP0000000129234108A01             9360003700000014986581200001277810000127781WARUNG NASI IBU YUYUN    
BC-BANK CENTRAL ASIA              1502220000003681402222222502602109360001411292371009000001700000C0000000000000000065457001222256012444APP0000000129237100A01             9360003700000089830752300001277830000127783ASIA PARKING - LOT 23    
BC-BANK CENTRAL ASIA              1502220000003691402222226192602109360001411292378616000000900000C0000000000000000034657001222622012780APP0000000129237861A01             9360003700000091166752300001277840000127784GKI                      
BC-BANK CENTRAL ASIA              1502220000003701402222237072602109360001411292400055000002400000C0000000000000000092407001223711013765APP0000000129240005A01             9360003700000089830752300001277850000127785ASIA PARKING - LOT 23    
BC-BANK CENTRAL ASIA              1502220000003711402222241042602109360001411292407480000001700000C0000000000000000065457001224108014101APP0000000129240748A05             9360003700000091166752300001277860000127786GKI                      
BC-BANK CENTRAL ASIA              1502220000003721402222242332602109360001411292410625000001000000C0000000000000000000007001224239014246APP0000000129241062A01             9360003700000103870581200001277870000127787"WARKOP RUMAH JELLY"     
BC-BANK CENTRAL ASIA              1502220000003731402222305412602109360001411292455760000000900000C0000000000000000034657001230544016377APP0000000129245576A05             9360003700000091166752300001277900000127790GKI                      
BC-BANK CENTRAL ASIA              1502220000003741402222315512602109360001411292473482000000200000C0000000000000000007707001231554017282APP0000000129247348A05             9360003700000091166752300001277910000127791GKI                      
BC-BANK CENTRAL ASIA              1502220000003751402222316092602109360001411292474019000002900000C0000000000000000111657001231614017312APP0000000129247401A01             9360003700000089830752300001277920000127792ASIA PARKING - LOT 23    
BC-BANK CENTRAL ASIA              1502220000003761402222320172602109360001411292481030000002500000C0000000000000000096257001232021017664APP0000000129248103A01             9360003700000089830752300001277930000127793ASIA PARKING - LOT 23    
BC-BANK CENTRAL ASIA              1502220000003771402222323092602109360001411292485338000013000000C0000000000000000000007001232312017858APP0000000129248533A01             9360003700000073073581200001277950000127795SEAFOOD 89               
CN-BANK CIMB NIAGA                1502220000000011402221308582602109360002230000311860000002000000C0000000000000000077007001854239646214APP0000000643854239A01             9360003700000082389581200001272420000127242RM LUBUAK PATAMUAN PADANG
CN-BANK CIMB NIAGA                1502220000000021402221341502602109360002230000263475000003400000C0000000000000000130907001885503577644APP0000000643885503A01             9360003700000002650541100001272930000127293D&D MART                 
CN-BANK CIMB NIAGA                1502220000000031402221525232602109360002210000867384000003400000C0000000000000000000007001977617459810APP0000000643977617A01             9360003700000005307581200001273960000127396DRINK CORNER             
CN-BANK CIMB NIAGA                1502220000000041402221647142602109360002230000258673000001400000C0000000000000000053907001049268736175APP0000000644049268A02             9360003700000089822752300001274560000127456ASIA PARKING - EC SCBD   
CN-BANK CIMB NIAGA                1502220000000051402221734122602109360002210001946823000002400000C0000000000000000000007001089002069869APP0000000644089002A01             9360003700000079096581200001275090000127509BAKSO MANTAP             
AL-360003 ALTO                    1502220000000011402220015362602109360091800379389537000002000000C0000000000000000000007001829211877867APP0000153700411889A01             9360003700000004235581200001269310000126931MIE ACEH SETIABUDI       
AL-360003 ALTO                    1502220000000021402220703452602109360001617052811287000001200000C0000000000000000000007001025527878099APP0000000000174613A01             9360003700000101338074200001269470000126947BUBUR AYAM BIO TEST NARIP
AL-360003 ALTO                    1502220000000031402220734062602109360091800004866045000001200000C0000000000000000000007001317376878228APP0000104500422752A01             9360003700000023086451100001269560000126956JUS AA' DOA IBU          
AL-360003 ALTO                    1502220000000041402220816572602109360091800441790668000001500000C0000000000000000000007001535817878350APP0000166800424727A01             9360003700000030628581400001269870000126987ES KELAPA CIHUYY         
AL-360003 ALTO                    1502220000000051402220959262602109360091800021647487000002000000C0000000000000000000007001702067878676APP0000148700430341A01             9360003700000098112581400001270470000127047BAKSO EKOM               
AL-360003 ALTO                    1502220000000061402221019252602109360091800018243634000000400000C0000000000000000015407001543410878889APP0000163400432923A01             9360003700000100926752300001270570000127057ASIA PARKING -ALAM SUTERA
AL-360003 ALTO                    1502220000000071402221032532602109360091800047088230000000000100C0000000000000000000007001354913879079APP0000123000433561A01             9360003700000102963222200001270650000127065"OSY SHOP"               
AL-360003 ALTO                    1502220000000081402221056022602109360091800167182690000001800000C0000000000000000069307001374389879512APP0000169000435935A01             9360003700000005976581200001270790000127079BAKMI DAYENG KALISARI    
AL-360003 ALTO                    1502220000000091402221108192602109360091800010896264000001430000C0000000000000000000007001693336879532APP0000126400435990A01             9360003700000101999549900001270850000127085WARUNK BASIAN            
AL-360003 ALTO                    1502220000000101402221110442602109360091800378224175000000600000C0000000000000000000007001048539879188APP0000117500439032A01             9360003700000064528581200001270870000127087CITRA RASA II            
AL-360003 ALTO                    1502220000000111402221138222602109360091800059150870000001600000C0000000000000000000007001151448879713APP0000187000444468A01             9360003700000100645581200001271100000127110"BAKSO AREMA"            
AL-360003 ALTO                    1502220000000121402221145372602109360091800306235811000000500000C0000000000000000000007001074082879646APP0000181100439994A01             9360003700000005307581200001271210000127121DRINK CORNER             
AL-360003 ALTO                    1502220000000131402221149072602109360091800018905191000001400000C0000000000000000000007001344303880013APP0000119100442216A01             9360003700000064528581200001271270000127127CITRA RASA II            
AL-360003 ALTO                    1502220000000141402221155252602109360091800153381103000001400000C0000000000000000000007001453472879942APP0000110300434561A01             9360003700000064528581200001271360000127136CITRA RASA II            
AL-360003 ALTO                    1502220000000151402221156452602109360091800093338718000002000000C0000000000000000000007001464211879857APP0000004294451156A01             9360003700000064528581200001271390000127139CITRA RASA II            
AL-360003 ALTO                    1502220000000161402221203332602109360091800172538804000001000000C0000000000000000000007001267360879767APP0000180400437835A01             9360003700000024852581400001271500000127150WARSUN OTONG SUHADA SURYO
AL-360003 ALTO                    1502220000000171402221210372602109360091800104050614000009200000C0000000000000000000007001000744879886APP0000161400442926A01             9360003700000041567549900001271650000127165WARUNG MAKAN PUTRO SOLO  
AL-360003 ALTO                    1502220000000181402221230112602109360091800031650558000001600000C0000000000000000000007001588501880530APP0000155800441316A01             9360003700000100645581200001271910000127191"BAKSO AREMA"            
AL-360003 ALTO                    1502220000000191402221249292602109360091800252087197000000300000C0000000000000000000007001646687880566APP0000119700447871A01             9360003700000047283541100001272130000127213WARUNG TAMA              
AL-360003 ALTO                    1502220000000201402221304372602109360091800081086938000001500000C0000000000000000000007001687340880802APP0000193800448237A01             9360003700000096025581200001272340000127234MOSTATO & BERASA         
AL-360003 ALTO                    1502220000000211402221307502602109360091800177118974000000200000C0000000000000000007707001686789880412APP0000197400446223A02             9360003700000089822752300001272400000127240ASIA PARKING - EC SCBD   
AL-360003 ALTO                    1502220000000221402221310592602109360091800301040860000001200000C0000000000000000000007001145952880641APP0000186000441594A01             9360003700000078023581300001272440000127244TOSAKA COFFEE            
AL-360003 ALTO                    1502220000000231402221323092602109360091800225326085000001000000C0000000000000000000007001522685880447APP0000108500452510A01             9360003700000086091549900001272730000127273LINDA ARIYANI            
AL-360003 ALTO                    1502220000000241402221332202602109360091800342951053000002300000C0000000000000000000007001046482880963APP0000105300450388A01             9360003700000008046581400001272840000127284BAKSO MALANG JAYA MAKMUR 
AL-360003 ALTO                    1502220000000251402221344572602109360091800347140309000001000000C0000000000000000000007001020327881027APP0000130900448045A01             9360003700000080383581200001272960000127296BAHARI SARI AYU          
AL-360003 ALTO                    1502220000000261402221345052602109360091800079997528000002000000C0000000000000000000007001650903880889APP0000152800455444A01             9360003700000080383581200001272970000127297BAHARI SARI AYU          
AL-360003 ALTO                    1502220000000271402221347512602109360091800427627035000005500000C0000000000000000000007001899720881203APP0000103500451334A01             9360003700000027624546200001273010000127301'MAISON WEINER'          
AL-360003 ALTO                    1502220000000281402221410052602109360091800016518218000002200000C0000000000000000000007001178543881250APP0000121800455598A01             9360003700000067158581200001273210000127321MATHILDA COFFEE          
AL-360003 ALTO                    1502220000000291402221426262602109360091800088533337000001400000C0000000000000000000007001819244881281APP0000133700453777A01             9360003700000004219451100001273340000127334WARUNG MANDIRI           
AL-360003 ALTO                    1502220000000301402221437382602109360091800194981323000000500000C0000000000000000000007001644083881489APP0000132300452586A01             9360003700000045204504500001273480000127348PRIANGAN FOTOCOPY        
AL-360003 ALTO                    1502220000000311402221447512602109360091800139819570000000600000C0000000000000000000007001058235881655APP0000157000452886A01             9360003700000044611541100001273570000127357HASAN SEMBAKO            
AL-360003 ALTO                    1502220000000321402221451162602109360091800059071004000015000000C0000000000000000577507001183487881660APP0000100400458866A01             9360003700000038431581400001273610000127361SEAFOOD 888              
AL-360003 ALTO                    1502220000000331402221454092602109360091800037864168000002000000C0000000000000000000007001344899881930APP0000116800460211A01             9360003700000098112581400001273660000127366BAKSO EKOM               
AL-360003 ALTO                    1502220000000341402221526252602109360091800140168491000000700000C0000000000000000026957001168078882045APP0000149100457763A01             9360003700000100892752300001273970000127397ASIA PARKING - ECI UMEN  
