B24-QA02
BC-BANK CENTRAL ASIA              150222APPROVED PAYMENT          000000377000005443711900000000007800321
BC-BANK CENTRAL ASIA              150222APPROVED REFUND           000000000000000000000000000000000000000
BC-BANK CENTRAL ASIA              150222APPROVED CHECK STATUS     000000000000000000000000000000000000000
BC-BANK CENTRAL ASIA              150222SUSPENDED PAYMENT         000000000000000000000000000000000000000
BC-BANK CENTRAL ASIA              150222SUSPENDED REFUND          000000000000000000000000000000000000000
BC-BANK CENTRAL ASIA              150222SUSPENDED CHECK STATUS    000000000000000000000000000000000000000
BC-BANK CENTRAL ASIA              150222DECLINED PAYMENT          000000000000000000000000000000000000000
BC-BANK CENTRAL ASIA              150222DECLINED REFUND           000000000000000000000000000000000000000
BC-BANK CENTRAL ASIA              150222DECLINED CHECK STATUS     000000000000000000000000000000000000000
CN-BANK CIMB NIAGA                150222APPROVED PAYMENT          000000005000000012600000000000000026180
CN-BANK CIMB NIAGA                150222APPROVED REFUND           000000000000000000000000000000000000000
CN-BANK CIMB NIAGA                150222APPROVED CHECK STATUS     000000000000000000000000000000000000000
CN-BANK CIMB NIAGA                150222SUSPENDED PAYMENT         000000000000000000000000000000000000000
CN-BANK CIMB NIAGA                150222SUSPENDED REFUND          000000000000000000000000000000000000000
CN-BANK CIMB NIAGA                150222SUSPENDED CHECK STATUS    000000000000000000000000000000000000000
CN-BANK CIMB NIAGA                150222DECLINED PAYMENT          000000000000000000000000000000000000000
CN-BANK CIMB NIAGA                150222DECLINED REFUND           000000000000000000000000000000000000000
CN-BANK CIMB NIAGA                150222DECLINED CHECK STATUS     000000000000000000000000000000000000000
AL-360003 ALTO                    150222APPROVED PAYMENT          000000059000000140630100000000000167860
AL-360003 ALTO                    150222APPROVED REFUND           000000000000000000000000000000000000000
AL-360003 ALTO                    150222APPROVED CHECK STATUS     000000000000000000000000000000000000000
AL-360003 ALTO                    150222SUSPENDED PAYMENT         000000000000000000000000000000000000000
AL-360003 ALTO                    150222SUSPENDED REFUND          000000000000000000000000000000000000000
AL-360003 ALTO                    150222SUSPENDED CHECK STATUS    000000000000000000000000000000000000000
AL-360003 ALTO                    150222DECLINED PAYMENT          000000000000000000000000000000000000000
AL-360003 ALTO                    150222DECLINED REFUND           000000000000000000000000000000000000000
AL-360003 ALTO                    150222DECLINED CHECK STATUS     000000000000000000000000000000000000000
AJ-360001 ARTAJASA                150222APPROVED PAYMENT          000000247000001541583500000000001906031
AJ-360001 ARTAJASA                150222APPROVED REFUND           000000000000000000000000000000000000000
AJ-360001 ARTAJASA                150222APPROVED CHECK STATUS     000000000000000000000000000000000000000
AJ-360001 ARTAJASA                150222SUSPENDED PAYMENT         000000001000000000200000000000000000770
AJ-360001 ARTAJASA                150222SUSPENDED REFUND          000000000000000000000000000000000000000
AJ-360001 ARTAJASA                150222SUSPENDED CHECK STATUS    000000003000000000000000000000000000000
AJ-360001 ARTAJASA                150222DECLINED PAYMENT          000000000000000000000000000000000000000
AJ-360001 ARTAJASA                150222DECLINED REFUND           000000000000000000000000000000000000000
AJ-360001 ARTAJASA                150222DECLINED CHECK STATUS     000000000000000000000000000000000000000
JL-360004 JALIN                   150222APPROVED PAYMENT          000000086000002091279700000000001557505
JL-360004 JALIN                   150222APPROVED REFUND           000000000000000000000000000000000000000
JL-360004 JALIN                   150222APPROVED CHECK STATUS     000000000000000000000000000000000000000
JL-360004 JALIN                   150222SUSPENDED PAYMENT         000000001000000000800000000000000000000
JL-360004 JALIN                   150222SUSPENDED REFUND          000000000000000000000000000000000000000
JL-360004 JALIN                   150222SUSPENDED CHECK STATUS    000000001000000000000000000000000000000
JL-360004 JALIN                   150222DECLINED PAYMENT          000000000000000000000000000000000000000
JL-360004 JALIN                   150222DECLINED REFUND           000000000000000000000000000000000000000
JL-360004 JALIN                   150222DECLINED CHECK STATUS     000000000000000000000000000000000000000
DN-BANK DANAMON                   150222APPROVED PAYMENT          000000001000000009020000000000000000000
DN-BANK DANAMON                   150222APPROVED REFUND           000000000000000000000000000000000000000
DN-BANK DANAMON                   150222APPROVED CHECK STATUS     000000000000000000000000000000000000000
DN-BANK DANAMON                   150222SUSPENDED PAYMENT         000000000000000000000000000000000000000
DN-BANK DANAMON                   150222SUSPENDED REFUND          000000000000000000000000000000000000000
DN-BANK DANAMON                   150222SUSPENDED CHECK STATUS    000000000000000000000000000000000000000
DN-BANK DANAMON                   150222DECLINED PAYMENT          000000000000000000000000000000000000000
DN-BANK DANAMON                   150222DECLINED REFUND           000000000000000000000000000000000000000
DN-BANK DANAMON                   150222DECLINED CHECK STATUS     000000000000000000000000000000000000000
DK-BANK DKI                       150222APPROVED PAYMENT          000000013000000022700000000000000000000
DK-BANK DKI                       150222APPROVED REFUND           000000000000000000000000000000000000000
DK-BANK DKI                       150222APPROVED CHECK STATUS     000000000000000000000000000000000000000
DK-BANK DKI                       150222SUSPENDED PAYMENT         000000000000000000000000000000000000000
DK-BANK DKI                       150222SUSPENDED REFUND          000000000000000000000000000000000000000
DK-BANK DKI                       150222SUSPENDED CHECK STATUS    000000006000000000000000000000000000000
DK-BANK DKI                       150222DECLINED PAYMENT          000000000000000000000000000000000000000
DK-BANK DKI                       150222DECLINED REFUND           000000000000000000000000000000000000000
DK-BANK DKI                       150222DECLINED CHECK STATUS     000000000000000000000000000000000000000
MG-BANK MEGA                      150222APPROVED PAYMENT          000000000000000000000000000000000000000
MG-BANK MEGA                      150222APPROVED REFUND           000000000000000000000000000000000000000
MG-BANK MEGA                      150222APPROVED CHECK STATUS     000000000000000000000000000000000000000
MG-BANK MEGA                      150222SUSPENDED PAYMENT         000000000000000000000000000000000000000
MG-BANK MEGA                      150222SUSPENDED REFUND          000000000000000000000000000000000000000
MG-BANK MEGA                      150222SUSPENDED CHECK STATUS    000000000000000000000000000000000000000
MG-BANK MEGA                      150222DECLINED PAYMENT          000000000000000000000000000000000000000
MG-BANK MEGA                      150222DECLINED REFUND           000000000000000000000000000000000000000
MG-BANK MEGA                      150222DECLINED CHECK STATUS     000000000000000000000000000000000000000
BS-BANK SUMSELBABEL               150222APPROVED PAYMENT          000000001000000128986000000000000496596
BS-BANK SUMSELBABEL               150222APPROVED REFUND           000000000000000000000000000000000000000
BS-BANK SUMSELBABEL               150222APPROVED CHECK STATUS     000000000000000000000000000000000000000
BS-BANK SUMSELBABEL               150222SUSPENDED PAYMENT         000000000000000000000000000000000000000
BS-BANK SUMSELBABEL               150222SUSPENDED REFUND          000000000000000000000000000000000000000
BS-BANK SUMSELBABEL               150222SUSPENDED CHECK STATUS    000000000000000000000000000000000000000
BS-BANK SUMSELBABEL               150222DECLINED PAYMENT          000000000000000000000000000000000000000
BS-BANK SUMSELBABEL               150222DECLINED REFUND           000000000000000000000000000000000000000
BS-BANK SUMSELBABEL               150222DECLINED CHECK STATUS     000000000000000000000000000000000000000
JB-BANK JABAR BANTEN              150222APPROVED PAYMENT          000000000000000000000000000000000000000
JB-BANK JABAR BANTEN              150222APPROVED REFUND           000000000000000000000000000000000000000
JB-BANK JABAR BANTEN              150222APPROVED CHECK STATUS     000000000000000000000000000000000000000
JB-BANK JABAR BANTEN              150222SUSPENDED PAYMENT         000000000000000000000000000000000000000
JB-BANK JABAR BANTEN              150222SUSPENDED REFUND          000000000000000000000000000000000000000
JB-BANK JABAR BANTEN              150222SUSPENDED CHECK STATUS    000000000000000000000000000000000000000
JB-BANK JABAR BANTEN              150222DECLINED PAYMENT          000000000000000000000000000000000000000
JB-BANK JABAR BANTEN              150222DECLINED REFUND           000000000000000000000000000000000000000
JB-BANK JABAR BANTEN              150222DECLINED CHECK STATUS     000000000000000000000000000000000000000
NG-BANK NAGARI                    150222APPROVED PAYMENT          000000000000000000000000000000000000000
NG-BANK NAGARI                    150222APPROVED REFUND           000000000000000000000000000000000000000
NG-BANK NAGARI                    150222APPROVED CHECK STATUS     000000000000000000000000000000000000000
NG-BANK NAGARI                    150222SUSPENDED PAYMENT         000000000000000000000000000000000000000
NG-BANK NAGARI                    150222SUSPENDED REFUND          000000000000000000000000000000000000000
NG-BANK NAGARI                    150222SUSPENDED CHECK STATUS    000000000000000000000000000000000000000
NG-BANK NAGARI                    150222DECLINED PAYMENT          000000000000000000000000000000000000000
NG-BANK NAGARI                    150222DECLINED REFUND           000000000000000000000000000000000000000
NG-BANK NAGARI                    150222DECLINED CHECK STATUS     000000000000000000000000000000000000000
OC-OTTOCASH                       150222APPROVED PAYMENT          000000000000000000000000000000000000000
OC-OTTOCASH                       150222APPROVED REFUND           000000000000000000000000000000000000000
OC-OTTOCASH                       150222APPROVED CHECK STATUS     000000000000000000000000000000000000000
OC-OTTOCASH                       150222SUSPENDED PAYMENT         000000000000000000000000000000000000000
OC-OTTOCASH                       150222SUSPENDED REFUND          000000000000000000000000000000000000000
OC-OTTOCASH                       150222SUSPENDED CHECK STATUS    000000000000000000000000000000000000000
OC-OTTOCASH                       150222DECLINED PAYMENT          000000000000000000000000000000000000000
OC-OTTOCASH                       150222DECLINED REFUND           000000000000000000000000000000000000000
OC-OTTOCASH                       150222DECLINED CHECK STATUS     000000000000000000000000000000000000000
NS-BANK OCBC NISP                 150222APPROVED PAYMENT          000000002000000800000000000000000000000
NS-BANK OCBC NISP                 150222APPROVED REFUND           000000000000000000000000000000000000000
NS-BANK OCBC NISP                 150222APPROVED CHECK STATUS     000000000000000000000000000000000000000
NS-BANK OCBC NISP                 150222SUSPENDED PAYMENT         000000000000000000000000000000000000000
NS-BANK OCBC NISP                 150222SUSPENDED REFUND          000000000000000000000000000000000000000
NS-BANK OCBC NISP                 150222SUSPENDED CHECK STATUS    000000000000000000000000000000000000000
NS-BANK OCBC NISP                 150222DECLINED PAYMENT          000000000000000000000000000000000000000
NS-BANK OCBC NISP                 150222DECLINED REFUND           000000000000000000000000000000000000000
NS-BANK OCBC NISP                 150222DECLINED CHECK STATUS     000000000000000000000000000000000000000
HN-BANK HANA                      150222APPROVED PAYMENT          000000000000000000000000000000000000000
HN-BANK HANA                      150222APPROVED REFUND           000000000000000000000000000000000000000
HN-BANK HANA                      150222APPROVED CHECK STATUS     000000000000000000000000000000000000000
HN-BANK HANA                      150222SUSPENDED PAYMENT         000000000000000000000000000000000000000
HN-BANK HANA                      150222SUSPENDED REFUND          000000000000000000000000000000000000000
HN-BANK HANA                      150222SUSPENDED CHECK STATUS    000000000000000000000000000000000000000
HN-BANK HANA                      150222DECLINED PAYMENT          000000000000000000000000000000000000000
HN-BANK HANA                      150222DECLINED REFUND           000000000000000000000000000000000000000
HN-BANK HANA                      150222DECLINED CHECK STATUS     000000000000000000000000000000000000000
KP-KASPRO                         150222APPROVED PAYMENT          000000002000000164050000000000000000000
KP-KASPRO                         150222APPROVED REFUND           000000000000000000000000000000000000000
KP-KASPRO                         150222APPROVED CHECK STATUS     000000000000000000000000000000000000000
KP-KASPRO                         150222SUSPENDED PAYMENT         000000000000000000000000000000000000000
KP-KASPRO                         150222SUSPENDED REFUND          000000000000000000000000000000000000000
KP-KASPRO                         150222SUSPENDED CHECK STATUS    000000000000000000000000000000000000000
KP-KASPRO                         150222DECLINED PAYMENT          000000000000000000000000000000000000000
KP-KASPRO                         150222DECLINED REFUND           000000000000000000000000000000000000000
KP-KASPRO                         150222DECLINED CHECK STATUS     000000000000000000000000000000000000000
TP-BANK TABUNGAN PENSIUNAN NASION 150222APPROVED PAYMENT          000000004000000049095000000000000163606
TP-BANK TABUNGAN PENSIUNAN NASION 150222APPROVED REFUND           000000000000000000000000000000000000000
TP-BANK TABUNGAN PENSIUNAN NASION 150222APPROVED CHECK STATUS     000000000000000000000000000000000000000
TP-BANK TABUNGAN PENSIUNAN NASION 150222SUSPENDED PAYMENT         000000000000000000000000000000000000000
TP-BANK TABUNGAN PENSIUNAN NASION 150222SUSPENDED REFUND          000000000000000000000000000000000000000
TP-BANK TABUNGAN PENSIUNAN NASION 150222SUSPENDED CHECK STATUS    000000000000000000000000000000000000000
TP-BANK TABUNGAN PENSIUNAN NASION 150222DECLINED PAYMENT          000000000000000000000000000000000000000
TP-BANK TABUNGAN PENSIUNAN NASION 150222DECLINED REFUND           000000000000000000000000000000000000000
TP-BANK TABUNGAN PENSIUNAN NASION 150222DECLINED CHECK STATUS     000000000000000000000000000000000000000
IU-ISAKU                          150222APPROVED PAYMENT          000000010000000016100000000000000000000
IU-ISAKU                          150222APPROVED REFUND           000000000000000000000000000000000000000
IU-ISAKU                          150222APPROVED CHECK STATUS     000000001000000000000000000000000000000
IU-ISAKU                          150222SUSPENDED PAYMENT         000000000000000000000000000000000000000
IU-ISAKU                          150222SUSPENDED REFUND          000000000000000000000000000000000000000
IU-ISAKU                          150222SUSPENDED CHECK STATUS    000000000000000000000000000000000000000
IU-ISAKU                          150222DECLINED PAYMENT          000000000000000000000000000000000000000
IU-ISAKU                          150222DECLINED REFUND           000000000000000000000000000000000000000
IU-ISAKU                          150222DECLINED CHECK STATUS     000000000000000000000000000000000000000
SS-BANK SULSELBAR                 150222APPROVED PAYMENT          000000001000000004400000000000000000000
SS-BANK SULSELBAR                 150222APPROVED REFUND           000000000000000000000000000000000000000
SS-BANK SULSELBAR                 150222APPROVED CHECK STATUS     000000000000000000000000000000000000000
SS-BANK SULSELBAR                 150222SUSPENDED PAYMENT         000000000000000000000000000000000000000
SS-BANK SULSELBAR                 150222SUSPENDED REFUND          000000000000000000000000000000000000000
SS-BANK SULSELBAR                 150222SUSPENDED CHECK STATUS    000000000000000000000000000000000000000
SS-BANK SULSELBAR                 150222DECLINED PAYMENT          000000000000000000000000000000000000000
SS-BANK SULSELBAR                 150222DECLINED REFUND           000000000000000000000000000000000000000
SS-BANK SULSELBAR                 150222DECLINED CHECK STATUS     000000000000000000000000000000000000000
JM-BANK JATIM                     150222APPROVED PAYMENT          000000000000000000000000000000000000000
JM-BANK JATIM                     150222APPROVED REFUND           000000000000000000000000000000000000000
JM-BANK JATIM                     150222APPROVED CHECK STATUS     000000000000000000000000000000000000000
JM-BANK JATIM                     150222SUSPENDED PAYMENT         000000000000000000000000000000000000000
JM-BANK JATIM                     150222SUSPENDED REFUND          000000000000000000000000000000000000000
JM-BANK JATIM                     150222SUSPENDED CHECK STATUS    000000000000000000000000000000000000000
JM-BANK JATIM                     150222DECLINED PAYMENT          000000000000000000000000000000000000000
JM-BANK JATIM                     150222DECLINED REFUND           000000000000000000000000000000000000000
JM-BANK JATIM                     150222DECLINED CHECK STATUS     000000000000000000000000000000000000000
YG-BANK BPD DIY                   150222APPROVED PAYMENT          000000000000000000000000000000000000000
YG-BANK BPD DIY                   150222APPROVED REFUND           000000000000000000000000000000000000000
YG-BANK BPD DIY                   150222APPROVED CHECK STATUS     000000000000000000000000000000000000000
YG-BANK BPD DIY                   150222SUSPENDED PAYMENT         000000000000000000000000000000000000000
YG-BANK BPD DIY                   150222SUSPENDED REFUND          000000000000000000000000000000000000000
YG-BANK BPD DIY                   150222SUSPENDED CHECK STATUS    000000000000000000000000000000000000000
YG-BANK BPD DIY                   150222DECLINED PAYMENT          000000000000000000000000000000000000000
YG-BANK BPD DIY                   150222DECLINED REFUND           000000000000000000000000000000000000000
YG-BANK BPD DIY                   150222DECLINED CHECK STATUS     000000000000000000000000000000000000000
SA-BANK SAHABAT SAMPOERNA         150222APPROVED PAYMENT          000000000000000000000000000000000000000
SA-BANK SAHABAT SAMPOERNA         150222APPROVED REFUND           000000000000000000000000000000000000000
SA-BANK SAHABAT SAMPOERNA         150222APPROVED CHECK STATUS     000000000000000000000000000000000000000
SA-BANK SAHABAT SAMPOERNA         150222SUSPENDED PAYMENT         000000000000000000000000000000000000000
SA-BANK SAHABAT SAMPOERNA         150222SUSPENDED REFUND          000000000000000000000000000000000000000
SA-BANK SAHABAT SAMPOERNA         150222SUSPENDED CHECK STATUS    000000000000000000000000000000000000000
SA-BANK SAHABAT SAMPOERNA         150222DECLINED PAYMENT          000000000000000000000000000000000000000
SA-BANK SAHABAT SAMPOERNA         150222DECLINED REFUND           000000000000000000000000000000000000000
SA-BANK SAHABAT SAMPOERNA         150222DECLINED CHECK STATUS     000000000000000000000000000000000000000
BA-BANK BUMI ARTA                 150222APPROVED PAYMENT          000000000000000000000000000000000000000
BA-BANK BUMI ARTA                 150222APPROVED REFUND           000000000000000000000000000000000000000
BA-BANK BUMI ARTA                 150222APPROVED CHECK STATUS     000000000000000000000000000000000000000
BA-BANK BUMI ARTA                 150222SUSPENDED PAYMENT         000000000000000000000000000000000000000
BA-BANK BUMI ARTA                 150222SUSPENDED REFUND          000000000000000000000000000000000000000
BA-BANK BUMI ARTA                 150222SUSPENDED CHECK STATUS    000000000000000000000000000000000000000
BA-BANK BUMI ARTA                 150222DECLINED PAYMENT          000000000000000000000000000000000000000
BA-BANK BUMI ARTA                 150222DECLINED REFUND           000000000000000000000000000000000000000
BA-BANK BUMI ARTA                 150222DECLINED CHECK STATUS     000000000000000000000000000000000000000
CS-BANK BCA SYARIAH               150222APPROVED PAYMENT          000000000000000000000000000000000000000
CS-BANK BCA SYARIAH               150222APPROVED REFUND           000000000000000000000000000000000000000
CS-BANK BCA SYARIAH               150222APPROVED CHECK STATUS     000000000000000000000000000000000000000
CS-BANK BCA SYARIAH               150222SUSPENDED PAYMENT         000000000000000000000000000000000000000
CS-BANK BCA SYARIAH               150222SUSPENDED REFUND          000000000000000000000000000000000000000
CS-BANK BCA SYARIAH               150222SUSPENDED CHECK STATUS    000000000000000000000000000000000000000
CS-BANK BCA SYARIAH               150222DECLINED PAYMENT          000000000000000000000000000000000000000
CS-BANK BCA SYARIAH               150222DECLINED REFUND           000000000000000000000000000000000000000
CS-BANK BCA SYARIAH               150222DECLINED CHECK STATUS     000000000000000000000000000000000000000
SN-BANK SINARMAS                  150222APPROVED PAYMENT          000000001000000002600000000000000010010
SN-BANK SINARMAS                  150222APPROVED REFUND           000000000000000000000000000000000000000
SN-BANK SINARMAS                  150222APPROVED CHECK STATUS     000000000000000000000000000000000000000
SN-BANK SINARMAS                  150222SUSPENDED PAYMENT         000000000000000000000000000000000000000
SN-BANK SINARMAS                  150222SUSPENDED REFUND          000000000000000000000000000000000000000
SN-BANK SINARMAS                  150222SUSPENDED CHECK STATUS    000000000000000000000000000000000000000
SN-BANK SINARMAS                  150222DECLINED PAYMENT          000000000000000000000000000000000000000
SN-BANK SINARMAS                  150222DECLINED REFUND           000000000000000000000000000000000000000
SN-BANK SINARMAS                  150222DECLINED CHECK STATUS     000000000000000000000000000000000000000
MA-BANK MULTIARTA SENTOSA         150222APPROVED PAYMENT          000000000000000000000000000000000000000
MA-BANK MULTIARTA SENTOSA         150222APPROVED REFUND           000000000000000000000000000000000000000
MA-BANK MULTIARTA SENTOSA         150222APPROVED CHECK STATUS     000000000000000000000000000000000000000
MA-BANK MULTIARTA SENTOSA         150222SUSPENDED PAYMENT         000000000000000000000000000000000000000
MA-BANK MULTIARTA SENTOSA         150222SUSPENDED REFUND          000000000000000000000000000000000000000
MA-BANK MULTIARTA SENTOSA         150222SUSPENDED CHECK STATUS    000000000000000000000000000000000000000
MA-BANK MULTIARTA SENTOSA         150222DECLINED PAYMENT          000000000000000000000000000000000000000
MA-BANK MULTIARTA SENTOSA         150222DECLINED REFUND           000000000000000000000000000000000000000
MA-BANK MULTIARTA SENTOSA         150222DECLINED CHECK STATUS     000000000000000000000000000000000000000
AU-BANK RIAU                      150222APPROVED PAYMENT          000000000000000000000000000000000000000
AU-BANK RIAU                      150222APPROVED REFUND           000000000000000000000000000000000000000
AU-BANK RIAU                      150222APPROVED CHECK STATUS     000000000000000000000000000000000000000
AU-BANK RIAU                      150222SUSPENDED PAYMENT         000000000000000000000000000000000000000
AU-BANK RIAU                      150222SUSPENDED REFUND          000000000000000000000000000000000000000
AU-BANK RIAU                      150222SUSPENDED CHECK STATUS    000000000000000000000000000000000000000
AU-BANK RIAU                      150222DECLINED PAYMENT          000000000000000000000000000000000000000
AU-BANK RIAU                      150222DECLINED REFUND           000000000000000000000000000000000000000
AU-BANK RIAU                      150222DECLINED CHECK STATUS     000000000000000000000000000000000000000
BK-BANK KB BUKOPIN                150222APPROVED PAYMENT          000000000000000000000000000000000000000
BK-BANK KB BUKOPIN                150222APPROVED REFUND           000000000000000000000000000000000000000
BK-BANK KB BUKOPIN                150222APPROVED CHECK STATUS     000000000000000000000000000000000000000
BK-BANK KB BUKOPIN                150222SUSPENDED PAYMENT         000000000000000000000000000000000000000
BK-BANK KB BUKOPIN                150222SUSPENDED REFUND          000000000000000000000000000000000000000
BK-BANK KB BUKOPIN                150222SUSPENDED CHECK STATUS    000000000000000000000000000000000000000
BK-BANK KB BUKOPIN                150222DECLINED PAYMENT          000000000000000000000000000000000000000
BK-BANK KB BUKOPIN                150222DECLINED REFUND           000000000000000000000000000000000000000
BK-BANK KB BUKOPIN                150222DECLINED CHECK STATUS     000000000000000000000000000000000000000
BP-BANK PAPUA                     150222APPROVED PAYMENT          000000000000000000000000000000000000000
BP-BANK PAPUA                     150222APPROVED REFUND           000000000000000000000000000000000000000
BP-BANK PAPUA                     150222APPROVED CHECK STATUS     000000000000000000000000000000000000000
BP-BANK PAPUA                     150222SUSPENDED PAYMENT         000000000000000000000000000000000000000
BP-BANK PAPUA                     150222SUSPENDED REFUND          000000000000000000000000000000000000000
BP-BANK PAPUA                     150222SUSPENDED CHECK STATUS    000000000000000000000000000000000000000
BP-BANK PAPUA                     150222DECLINED PAYMENT          000000000000000000000000000000000000000
BP-BANK PAPUA                     150222DECLINED REFUND           000000000000000000000000000000000000000
BP-BANK PAPUA                     150222DECLINED CHECK STATUS     000000000000000000000000000000000000000
KT-PT. BPD KALTIM KALTARA         150222APPROVED PAYMENT          000000000000000000000000000000000000000
KT-PT. BPD KALTIM KALTARA         150222APPROVED REFUND           000000000000000000000000000000000000000
KT-PT. BPD KALTIM KALTARA         150222APPROVED CHECK STATUS     000000000000000000000000000000000000000
KT-PT. BPD KALTIM KALTARA         150222SUSPENDED PAYMENT         000000000000000000000000000000000000000
KT-PT. BPD KALTIM KALTARA         150222SUSPENDED REFUND          000000000000000000000000000000000000000
KT-PT. BPD KALTIM KALTARA         150222SUSPENDED CHECK STATUS    000000000000000000000000000000000000000
KT-PT. BPD KALTIM KALTARA         150222DECLINED PAYMENT          000000000000000000000000000000000000000
KT-PT. BPD KALTIM KALTARA         150222DECLINED REFUND           000000000000000000000000000000000000000
KT-PT. BPD KALTIM KALTARA         150222DECLINED CHECK STATUS     000000000000000000000000000000000000000
AP-ASTRAPAY                       150222APPROVED PAYMENT          000000000000000000000000000000000000000
AP-ASTRAPAY                       150222APPROVED REFUND           000000000000000000000000000000000000000
AP-ASTRAPAY                       150222APPROVED CHECK STATUS     000000000000000000000000000000000000000
AP-ASTRAPAY                       150222SUSPENDED PAYMENT         000000000000000000000000000000000000000
AP-ASTRAPAY                       150222SUSPENDED REFUND          000000000000000000000000000000000000000
AP-ASTRAPAY                       150222SUSPENDED CHECK STATUS    000000000000000000000000000000000000000
AP-ASTRAPAY                       150222DECLINED PAYMENT          000000000000000000000000000000000000000
AP-ASTRAPAY                       150222DECLINED REFUND           000000000000000000000000000000000000000
AP-ASTRAPAY                       150222DECLINED CHECK STATUS     000000000000000000000000000000000000000
DY-DIPAY                          150222APPROVED PAYMENT          000000000000000000000000000000000000000
DY-DIPAY                          150222APPROVED REFUND           000000000000000000000000000000000000000
DY-DIPAY                          150222APPROVED CHECK STATUS     000000000000000000000000000000000000000
DY-DIPAY                          150222SUSPENDED PAYMENT         000000000000000000000000000000000000000
DY-DIPAY                          150222SUSPENDED REFUND          000000000000000000000000000000000000000
DY-DIPAY                          150222SUSPENDED CHECK STATUS    000000000000000000000000000000000000000
DY-DIPAY                          150222DECLINED PAYMENT          000000000000000000000000000000000000000
DY-DIPAY                          150222DECLINED REFUND           000000000000000000000000000000000000000
DY-DIPAY                          150222DECLINED CHECK STATUS     000000000000000000000000000000000000000
PK-PAPRIKA                        150222APPROVED PAYMENT          000000000000000000000000000000000000000
PK-PAPRIKA                        150222APPROVED REFUND           000000000000000000000000000000000000000
PK-PAPRIKA                        150222APPROVED CHECK STATUS     000000000000000000000000000000000000000
PK-PAPRIKA                        150222SUSPENDED PAYMENT         000000000000000000000000000000000000000
PK-PAPRIKA                        150222SUSPENDED REFUND          000000000000000000000000000000000000000
PK-PAPRIKA                        150222SUSPENDED CHECK STATUS    000000000000000000000000000000000000000
PK-PAPRIKA                        150222DECLINED PAYMENT          000000000000000000000000000000000000000
PK-PAPRIKA                        150222DECLINED REFUND           000000000000000000000000000000000000000
PK-PAPRIKA                        150222DECLINED CHECK STATUS     000000000000000000000000000000000000000
