B24-QI01
BC-BANK CENTRAL ASIA              1502220000000011402220704522602109360003712003225006000027000000C0000000000000000585907001681205861079APP0000000062970675A01             9360001400012527974807101288459580128845958INTI BIOS BUDI SENTOSA   
BC-BANK CENTRAL ASIA              1502220000000021402220734192602109360003711079916354000012000000C0000000000000000260407001682116861990APP0000000062971586A01             9360001400012527974807101288503160128850316INTI BIOS BUDI SENTOSA   
BC-BANK CENTRAL ASIA              1502220000000031402220852482602109360003712003236717000006000000C0000000000000000130207001685747865621APP0000000062975212A01             9360001400012527974807101288662160128866216INTI BIOS BUDI SENTOSA   
BC-BANK CENTRAL ASIA              1502220000000041402220953242602109360003711074215978000026640000C0000000000000000000007001689611869485APP0000000062979090A01             9360001400012194130591201288826730128882673APOTEK K24 SIPIN JAMBI   
BC-BANK CENTRAL ASIA              1502220000000051402221032322602109360003711077591644000004100000C0000000000000000088977001692378872252APP0000000062981879AB735553        9360001430005750465591201288952030128895203GUARDIAN THE EAST 6516   
BC-BANK CENTRAL ASIA              1502220000000061402221116492602109360003711313202301000008500000C0000000000000000184457001695768875642APP0000000062985274A01             9360001400012704599809901289121000128912100BIO MEDIKA CENTER        
BC-BANK CENTRAL ASIA              1502220000000071402221206432602109360003711079834455000295966100C0000000000000006422467001700014879888APP0000000062989553A01             9360001400010307411551101289352230128935223AGUNG TOYOTA             
BC-BANK CENTRAL ASIA              1502220000000081402221454222602109360003712103216080000006650000C0000000000000000144317001713145893019APP0000000063002726AB479004        9360001430003613343594201290208610129020861KHARISMA STATIONARY -HO  
BC-BANK CENTRAL ASIA              1502220000000091402221539132602109360003712103216080000004470000C0000000000000000097007001716669896543APP0000000063006284AD444827        9360001430314600278541101290433530129043353RUKUN JAYA UD.           
BC-BANK CENTRAL ASIA              1502220000000101402221606472602109360003711078842969000025542000C0000000000000000554267001718601898475APP0000000063008239A01             9360001400009514464581201290573260129057326SUSHI INDONESIA PT       
BC-BANK CENTRAL ASIA              1502220000000111402221717582602109360003711078510371000005000000C0000000000000000108507001723954903828APP0000000063013627A01             9360001400014868483581301290945870129094587LEVEL UP QR              
BC-BANK CENTRAL ASIA              1502220000000121402221731432602109360003711303221952000009985000C0000000000000000000007001725056904930APP0000000063014735A01             9360001400014875256721001291020570129102057dinda laundry            
BC-BANK CENTRAL ASIA              1502220000000131402222017092602109360003711303221952000024959400C0000000000000000000007001736123915997APP0000000063025857A01             9360001400014875256721001291917460129191746dinda laundry            
BC-BANK CENTRAL ASIA              1502220000000141402222047582602109360003711079476745000018020000C0000000000000000391037001737912917786APP0000000063027662AD278171        9360001430008407048541101292076240129207624FAT BUBBLE PIK           
BC-BANK CENTRAL ASIA              1502220000000151402222052582602109360003711078717005000025600000C0000000000000000555527001738131918005APP0000000063027884AR445813        9360001430006083346581201292100170129210017TANPOPO-HO               
CN-BANK CIMB NIAGA                1502220000000011402222042072602109360003711080152783000033090000C0000000000000000718057001737645917519APP0000000063027394Q3347301        9360002200003098301541100000082960000008296THE GOURMET 1117 DI      
AL-360003 ALTO                    1502220000000011402220014102602109360003711073731646000020156000C0000000000000000437397001677123856997APP0000000062966592746751          9360091800007467519539907321621160732162116VoGame Indonesia         
AL-360003 ALTO                    1502220000000021402220749572602109360003711080150993000023500000C0000000000000000000007001682673862547APP00000000629721501032636         9360091800010326363581207327176850732717685Kaisar Maranggi PIK      
AL-360003 ALTO                    1502220000000031402221612352602109360003711077099715000001800000C0000000000000000039067001719024898898APP0000000063008663A01             9360091800000043010541107336637700733663770PODJOK HALAL BEI         
AL-360003 ALTO                    1502220000000041402221639572602109360003712303200161000006250000C0000000000000000000007001721153901027APP0000000063010797999066371       9360001609990663714581202336234140233623414APOTEK MULIA JAYA        
AL-360003 ALTO                    1502220000000051402221909202602109360003711078393722000007260000C0000000000000000000007001731721911595APP0000000063021430A01             9360091800008313167581207340777050734077705Claypot Popo Sabang      
AL-360003 ALTO                    1502220000000061402221913502602109360003711073583311000007500000C0000000000000000162757001732062911936APP000000006302176944              9360091800000176935539907340900430734090043Glamore Sample           
AL-360003 ALTO                    1502220000000071402221934062602109360003710203207301000007000000C0000000000000000000007001733530913404APP0000000063023235A01             9360091800201166594581207341465420734146542Ste Soto Babeiing Pramuka
AL-360003 ALTO                    1502220000000081402222105272602109360003711073731646000020156000C0000000000000000437397001738693918567APP0000000063028460746751          9360091800007467519539907343716480734371648VoGame Indonesia         
AJ-360001 ARTAJASA                1502220000000011402220705052602109360003711079824123000005000000C0000000000000000108507001681209861083APP0000000062970679A01             93600914328773208327299R2XH2z2aBMR2XH2z2aBMSPBU 34-14410            
AJ-360001 ARTAJASA                1502220000000021402220725062602109360003710085018727000002700000C0000000000000000058597001069105064624APP0000297347069105uCMwubgilcKHHJmr9360091200010542939581200111189700011118970ROTI O CAB RUKO KUPANG   
AJ-360001 ARTAJASA                1502220000000031402220729292602109360003710283211649000002300000C0000000000000000049917001681910861784APP0000000062971376A01             9360050300000652638478922140731052214073105PERUM PPD 514            
AJ-360001 ARTAJASA                1502220000000041402221016392602109360003711080026958000001500000C0000000000000000032557001691210871084APP0000000062980706A01             93600914376874659585812DF3nYmelgrDF3nYmelgrMie Ayam 37, Daan Mogot  
AJ-360001 ARTAJASA                1502220000000051402221039382602109360003710993220300000020150000C0000000000000000437267001775338064915APP0000500139775338o0rDGN0HGy4H5yvB9360091200009239257727800111225220011122522Tokopedia                
AJ-360001 ARTAJASA                1502220000000061402221147072602109360003711080036783000003000000C0000000000000000065107001698313878187APP0000000062987823A01             936009143285134670458126E8Hdgp0HW6E8Hdgp0HWDajia Express, ASG Tower 
AJ-360001 ARTAJASA                1502220000000071402221200222602109360003711073531027000000900000C0000000000000000000007001699458879332APP0000000062988981A01             93600914353216390795499o6cEuaGnOFo6cEuaGnOFJumpStart Cashback Office
AJ-360001 ARTAJASA                1502220000000081402221200402602109360003710923228900000030000000C0000000000000000651007001699485879359APP0000000062989011A01             936009110001120540580719BE2CK8J309BE2CK8J30LAB KLINIK KARAWANG      
AJ-360001 ARTAJASA                1502220000000091402221322492602109360003710213220691000007500000C0000000000000000162757001705974885848APP0000000062995531A01             9360091200013078303729800111305610011130561KPH SERVICE POINT MARCO C
AJ-360001 ARTAJASA                1502220000000101402221520592602109360003711079658096000003400000C0000000000000000073787001715315895189APP0000000063004920nHgxk2HShulkF8JC9360091200011973471581200111357140011135714MANA Coffee PIK Camar    
AJ-360001 ARTAJASA                1502220000000111402221639022602109360003711077207275000040000000C0000000000000000496007001721058900932APP0000000063010702A02             936009143900204862655415fLG7fktYI5fLG7fktYISHELL TEND               
AJ-360001 ARTAJASA                1502220000000121402221650062602109360003713103201844000007500000C0000000000000000000007001721977901851APP0000000063011637A01             936004510000050661254117ef7a51d247ef7a51d24KLINIK ASY SYIFA         
AJ-360001 ARTAJASA                1502220000000131402221702382602109360003711073207475000010000000C0000000000000000000007001722872902746APP0000000063012541A01             936009143907756600758124yVN3bsZoL4yVN3bsZoLKEDAI MADURASA           
AJ-360001 ARTAJASA                1502220000000141402221743532602109360003711077433828000009000000C0000000000000000195307001725838905712APP0000000063015512A01             93600013160008104637542141517439014151743903S Auto Detail           
AJ-360001 ARTAJASA                1502220000000151402221810312602109360003711079783206000001440000C0000000000000000031257001727750907624APP0000000063017433059421218       93600915005942121835814245a9b6caa245a9b6caaFMI JL BALAP SEPEDA      
AJ-360001 ARTAJASA                1502220000000161402221922012602109360003711703232678000028200000C0000000000000000611947001732772912646APP0000000063022481A01             9360000915006910259599914356678701435667870Toko Tomia Baru          
AJ-360001 ARTAJASA                1502220000000171402222010382602109360003710283211649000002300000C0000000000000000049917001735735915609APP0000000063025463A01             9360050300000652638478922140812152214081215PERUM PPD 551            
AJ-360001 ARTAJASA                1502220000000181402222157502602109360003711079811595000000500000C0000000000000000000007001740682920556APP0000000063030443A01             9360091200003111866581200111550350011155035SDS JAZZ COFFE           
JL-360004 JALIN                   1502220000000011402220504382602109360003712303200790000000200000C0000000000000000000007001678866858740APP0000000062968340A01             9360081530001014544839803786522980378652298MASJID AR RASYIDIN       
JL-360004 JALIN                   1502220000000021402221251462602109360003710213201671000007500000C0000000000000000000007001703509883383APP0000000062993047000195236579093 9360089802365790932549900006299300000629930SPEEDPAY                 
JL-360004 JALIN                   1502220000000031402221927302602109360003711078066233000035000000C0000000000000000759507001733101912975APP000000006302281172603825        9360000800424292235701109711929030971192903LV8 RESORT HOTEL         
DK-BANK DKI                       1502220000000011402221121592602109360003711076946660000012400000C0000000000000000269087001696245876119APP0000000062985751A01             9360011100010206393549902140057270214005727SOTO KUDUS               
JB-BANK JABAR BANTEN              1502220000000011402221530182602109360003712514101739000100000000C0000000000000000000007001716032895906APP0000000063005644A01             9360011030004560168806202141184080214118408RSUD CIMACAN CIANJUR     
JB-BANK JABAR BANTEN              1502220000000021402222125232602109360003710373205559000008000000C0000000000000000000007001739511919385APP0000000063029281A01             9360011030007500880581202141233760214123376SOP KAKI KA TENGKU       
