B24-XI01
AG-BANK ARTHA GRAHA              15022200000000113022223333440021058987599999999999990000000030000000000000000000007000233506856471APP0000966058      30OM36003700082306014-7985454531         JAKARTA                  
AG-BANK ARTHA GRAHA              15022200000000213022223344540021058987599999999999990000000100000000000000000000007000233617856500APP0000966087      30OM36003700028022014-3420396308         JAKARTA                  
AG-BANK ARTHA GRAHA              15022200000000313022223370640021058987599999999999990000000010000000000000000000007000966118856530APP0000966118      30OM36003700092047002-034101074166509    JAKARTA                  
AG-BANK ARTHA GRAHA              15022200000000413022223441940021058987599999999999990000000094000000000000000000007000234551856645APP0000966234      30OM36003700001324014-6470551117         JAKARTA                  
AG-BANK ARTHA GRAHA              15022200000000513022223451640021058987599999999999990000000800000000000000000000007000234654856658APP0000966247      30OM36003700063257014-3500334681         JAKARTA                  
AG-BANK ARTHA GRAHA              15022200000000613022223471340021058987599999999999990000000250000000000000000000007000234846856673APP0000966264      30OM36003700042445014-8460375101         JAKARTA                  
AG-BANK ARTHA GRAHA              15022200000000713022223501940021058987599999999999990000000289000000000000000000007000646718856712APP0000966305      30OM36003700011643013-8528087829461256   JAKARTA                  
AG-BANK ARTHA GRAHA              15022200000000813022223511440021058987599999999999990000000300000000000000000000007000235247856730APP0000966324      30OM36003700049458014-7855196549         JAKARTA                  
AG-BANK ARTHA GRAHA              15022200000000913022223513340021058987599999999999990000005000000000000000000000007000046245856736APP0000966330      30OM36003700090798213-90014836236        JAKARTA                  
AG-BANK ARTHA GRAHA              15022200000001013022223543740021058987599999999999990000000100000000000000000000007000519231856794APP0000966387      30OM36003700085941011-003634849834       JAKARTA                  
AG-BANK ARTHA GRAHA              15022200000001113022223562640021058987599999999999990000001000000000000000000000007000648029856818APP0000966411      30OM36003700079937013-1239075734         JAKARTA                  
AG-BANK ARTHA GRAHA              15022200000001214022200010140021058987599999999999990000000190000000000000000000007000721183856850APP0000966443      30OM36003700008402008-896087781252154    JAKARTA                  
AG-BANK ARTHA GRAHA              15022200000001314022200040540021058987599999999999990000000005000000000000000000007068000000856886D/F0500966479      30OM36003700091126014-7615247341         JAKARTA                  
AG-BANK ARTHA GRAHA              15022200000001414022200042740021058987599999999999990000008000000000000000000000007000000600856889APP0000966482      30OM36003700010034014-6470363477         JAKARTA                  
AG-BANK ARTHA GRAHA              15022200000001514022200115540021058987590111111111100000000100000000000000000000007056400439315439D/F7600400439      30OI36003714050022002-1034060000010895   JAKARTA                  
AG-BANK ARTHA GRAHA              15022200000001614022200132040021058987599999999999990000001200000000000000000000007000329047856980APP0000966575      30OM36003700090850009-0768313421         JAKARTA                  
AG-BANK ARTHA GRAHA              15022200000001714022200193540021058987599999999999990000000190000000000000000000007000002107857048APP0000966646      30OM36003700010198014-7000793609         JAKARTA                  
AG-BANK ARTHA GRAHA              15022200000001814022200222240021058987599999999999990000000200000000000000000000007000002355857072APP0000966671      30OM36003700048539014-7275114961         JAKARTA                  
AG-BANK ARTHA GRAHA              15022200000001914022200291540021058987599999999999990000000010000000000000000000007000003050857159APP0000966758      30OM36003700089995014-8800958297         JAKARTA                  
AG-BANK ARTHA GRAHA              15022200000002014022200311640021058987599999999999990000000500000000000000000000007000003252857187APP0000966786      30OM36003700041550014-7300153393         JAKARTA                  
AG-BANK ARTHA GRAHA              15022200000002114022200314040021058987599999999999990000000587000000000000000000007000558376857191APP0000966790      30OM36003700021842022-5336190002773284   JAKARTA                  
AG-BANK ARTHA GRAHA              15022200000002214022200331140021058987599999999999990000000161000000000000000000007000270702857205APP0000966804      30OM36003700021842016-784520560105439604 JAKARTA                  
AG-BANK ARTHA GRAHA              15022200000002314022200370840021058987599999999999990000000200000000000000000000007000003840857230APP0000966829      30OM36003700080677014-4780175031         JAKARTA                  
AG-BANK ARTHA GRAHA              15022200000002414022200411640021058987599999999999990000000050000000000000000000007000330527857280APP0000966879      30OM36003700045686008-0060010137697      JAKARTA                  
AG-BANK ARTHA GRAHA              15022200000002514022200420640021058987599999999999990000000100000000000000000000007000004339857292APP0000966892      30OM36003700081800014-5020318432         JAKARTA                  
AG-BANK ARTHA GRAHA              15022200000002614022200431040021058987599999999999990000000065000000000000000000007000004442857308APP0000966908      30OM36003700032685014-1951512261         JAKARTA                  
AG-BANK ARTHA GRAHA              15022200000002714022200453040021058987599999999999990000000100000000000000000000007000004707857338APP0000966940      30OM36003700051356014-2487024623         JAKARTA                  
AG-BANK ARTHA GRAHA              15022200000002814022200462140021058987599999999999990000000100000000000000000000007000652330857348APP0000966950      30OM36003700008643013-8528085773818057   JAKARTA                  
AG-BANK ARTHA GRAHA              15022200000002914022200523740021058987599999999999990000000850000000000000000000007000005414857417APP0000967023      30OM36003700010184014-7060273485         JAKARTA                  
AG-BANK ARTHA GRAHA              15022200000003014022200561440021058987599999999999990000002000000000000000000000007000005747857449APP0000967053      30OM36003700073073014-1320810783         JAKARTA                  
AG-BANK ARTHA GRAHA              15022200000003114022200585640021058987599999999999990000000020000000000000000000007000907423857481APP0000967085      30OM36003700089171008-1010011129200      JAKARTA                  
AG-BANK ARTHA GRAHA              15022200000003214022201002840021058987599999999999990000000005000000000000000000007000652235857488APP0000967094      30OM36003700009823013-8528082114490996   JAKARTA                  
AG-BANK ARTHA GRAHA              15022200000003314022201042640021058987590111111111100000000200000000000000000000007000973117466288APP0000401288      30OI36003712080064008-1810000720426      JAKARTA                  
AG-BANK ARTHA GRAHA              15022200000003414022201062240021058987599999999999990000000400000000000000000000007000967142857535APP0000967142      30OM36003700037187002-020601156368506    JAKARTA                  
AG-BANK ARTHA GRAHA              15022200000003514022201092440021058987599999999999990000000040000000000000000000007000011101857539APP0000967147      30OM36003700065915014-7015484756         JAKARTA                  
AG-BANK ARTHA GRAHA              15022200000003614022201134440021058987599999999999990000000100000000000000000000007000660859857564APP0000967171      30OM36003700044204013-8528085754684277   JAKARTA                  
AG-BANK ARTHA GRAHA              15022200000003714022201140140021058987599999999999990000000300000000000000000000007000011533857569APP0000967177      30OM36003700089635014-0280183253         JAKARTA                  
AG-BANK ARTHA GRAHA              15022200000003814022201160940021058987599999999999990000000093000000000000000000007068      857579D/F0500967187      30OM36003700001324008-1240010767508      JAKARTA                  
AG-BANK ARTHA GRAHA              15022200000003914022201162140021058987599999999999990000000093000000000000000000007068      857580D/F0500967188      30OM36003700001324008-1240010767508      JAKARTA                  
AG-BANK ARTHA GRAHA              15022200000004014022201164640021058987599999999999990000000093000000000000000000007068      857586D/F0500967194      30OM36003700001324008-1240010767508      JAKARTA                  
AG-BANK ARTHA GRAHA              15022200000004114022201172640021058987599999999999990000000093000000000000000000007068      857596D/F0500967204      30OM36003700001324008-1240010767508      JAKARTA                  
AG-BANK ARTHA GRAHA              15022200000004214022201174540021058987599999999999990000000093000000000000000000007000764479857598APP0000967206      30OM36003700001324008-9000011015279      JAKARTA                  
AG-BANK ARTHA GRAHA              15022200000004314022201265840021058987599999999999990000000300000000000000000000007000559695857644APP0000967252      30OM36003700090807022-762616854700       JAKARTA                  
AG-BANK ARTHA GRAHA              15022200000004414022201301840021058987599999999999990000000050000000000000000000007000523449857659APP0000967266      30OM36003700085941011-003634849834       JAKARTA                  
AG-BANK ARTHA GRAHA              15022200000004514022201392240021058987599999999999990000000200000000000000000000007000630879857696APP0000967302      30OM36003700061980008-893081289236436    JAKARTA                  
AG-BANK ARTHA GRAHA              15022200000004614022201403440021058987599999999999990000001095000000000000000000007000014212857723APP0000967329      30OM36003700079792014-4010375962         JAKARTA                  
AG-BANK ARTHA GRAHA              15022200000004714022201405640021058987599999999999990000005000000000000000000000007000020646857729APP0000967335      30OM36003700005206046-1704809393         JAKARTA                  
AG-BANK ARTHA GRAHA              15022200000004814022201405740021058987599999999999990000005000000000000000000000007000014230857730APP0000967336      30OM36003700033322014-0948295604         JAKARTA                  
AG-BANK ARTHA GRAHA              15022200000004914022201564840021058987590111111111100000000050000000000000000000007000661521608212APP0000401212      30OI36003710030003013-8528082148763318   JAKARTA                  
AG-BANK ARTHA GRAHA              15022200000005014022202001240021058987599999999999990000000050000000000000000000007000560354857823APP0000967431      30OM36003700033635022-705890986900       JAKARTA                  
AG-BANK ARTHA GRAHA              15022200000005114022202060540021058987599999999999990000000073000000000000000000007000560477857863APP0000967470      30OM36003700023597022-706602956900       JAKARTA                  
AG-BANK ARTHA GRAHA              15022200000005214022202133340021058987590111111111100000000050000000000000000000007000666729613162APP0000402162      30OI36003710030003013-8528082148763318   JAKARTA                  
AG-BANK ARTHA GRAHA              15022200000005314022202171640021058987599999999999990000000050000000000000000000007000021855857915APP0000967521      30OM36003700056787014-6690455542         JAKARTA                  
AG-BANK ARTHA GRAHA              15022200000005414022202181540021058987599999999999990000000400000000000000000000007000021947857922APP0000967528      30OM36003700056787014-6690455542         JAKARTA                  
AG-BANK ARTHA GRAHA              15022200000005514022202184640021058987599999999999990000000065000000000000000000007000053653857924APP0000967530      30OM36003700054903009-1121501300         JAKARTA                  
AG-BANK ARTHA GRAHA              15022200000005614022202224740021058987599999999999990000000090000000000000000000007000022425857945APP0000967551      30OM36003700019435014-7460339060         JAKARTA                  
AG-BANK ARTHA GRAHA              15022200000005714022202394840021058987599999999999990000000093175000000000000000007000561024857977APP0000967583      30OM36003700082572022-803377771900       JAKARTA                  
AG-BANK ARTHA GRAHA              15022200000005814022202433040021058987599999999999990000001750000000000000000000007000024506858020APP0000967628      30OM36003700072530014-5495117038         JAKARTA                  
AG-BANK ARTHA GRAHA              15022200000005914022202510140021058987599999999999990000000500000000000000000000007000025238858058APP0000967669      30OM36003700076491014-5860453951         JAKARTA                  
AG-BANK ARTHA GRAHA              15022200000006014022202523540021058987599999999999990000000050000000000000000000007000025413858070APP0000967681      30OM36003700013881014-2910591684         JAKARTA                  
AG-BANK ARTHA GRAHA              15022200000006114022202563640021058987599999999999990000000050000000000000000000007000670554858098APP0000967709      30OM36003700045837013-8528085894329319   JAKARTA                  
AG-BANK ARTHA GRAHA              15022200000006214022203041640021058987590111111111100000000200000000000000000000007000237110656905APP0000403905      30OI36003711020009009-0218084452         JAKARTA                  
AG-BANK ARTHA GRAHA              15022200000006314022203273840021058987599999999999990000000100000000000000000000007000561624858209APP0000967824      30OM36003700033635022-705890986900       JAKARTA                  
AG-BANK ARTHA GRAHA              15022200000006414022203301740021058987599999999999990000000050000000000000000000007000674762858233APP0000967852      30OM36003700089223013-8528082281974983   JAKARTA                  
AG-BANK ARTHA GRAHA              15022200000006514022203360040021058987599999999999990000002500000000000000000000007000967883858263APP0000967883      30OM36003700089895002-185001001355507    JAKARTA                  
AG-BANK ARTHA GRAHA              15022200000006614022203364940021058987599999999999990000000500000000000000000000007000033821858267APP0000967887      30OM36003700089895014-7570870615         JAKARTA                  
AG-BANK ARTHA GRAHA              15022200000006714022203383340021058987599999999999990000000200000000000000000000007000372913858275APP0000967895      30OM36003700012380009-0798012315         JAKARTA                  
AG-BANK ARTHA GRAHA              15022200000006814022203523840021058987599999999999990000000043000000000000000000007000670396858322APP0000967942      30OM36003700045837013-8528085894329319   JAKARTA                  
AG-BANK ARTHA GRAHA              15022200000006914022203535240021058987599999999999990000001000000000000000000000007000035524858331APP0000967951      30OM36003700080612014-1460791045         JAKARTA                  
AG-BANK ARTHA GRAHA              15022200000007014022204100340021058987590111111111100000000250000000000000000000007000404542603542APP0000404542      30OI36003714010001002-497701008866536    JAKARTA                  
AG-BANK ARTHA GRAHA              15022200000007114022204124340021058987599999999999990000000300000000000000000000007000041418858387APP0000967995      30OM36003700070273014-2761387776         JAKARTA                  
AG-BANK ARTHA GRAHA              15022200000007214022204195040021058987599999999999990000003000000000000000000000007000042123858433APP0000968050      30OM36003700018286014-4660269733         JAKARTA                  
AG-BANK ARTHA GRAHA              15022200000007314022204314540021058987599999999999990000000025000000000000000000007000527890858487APP0000968102      30OM36003700085941011-003634849834       JAKARTA                  
AG-BANK ARTHA GRAHA              15022200000007414022204405640021058987599999999999990000000099000000000000000000007000044232858569APP0000968177      30OM36003700080516014-2470242682         JAKARTA                  
AG-BANK ARTHA GRAHA              15022200000007514022204451940021058987599999999999990000001000000000000000000000007000044656858605APP0000968211      30OM36003700070365014-3990088933         JAKARTA                  
AG-BANK ARTHA GRAHA              15022200000007614022204491940021058987599999999999990000000500000000000000000000007000045052858619APP0000968227      30OM36003700026593014-5540252337         JAKARTA                  
AG-BANK ARTHA GRAHA              15022200000007714022204493040021058987599999999999990000001400000000000000000000007000675551858622APP0000968230      30OM36003700076781013-8528085784649215   JAKARTA                  
AG-BANK ARTHA GRAHA              15022200000007814022204554440021058987599999999999990000000100000000000000000000007000735630858665APP0000968268      30OM36003700001524009-0085672009         JAKARTA                  
AG-BANK ARTHA GRAHA              15022200000007914022204592740021058987599999999999990000001000000000000000000000007000050059858695APP0000968296      30OM36003700001973014-4580355345         JAKARTA                  
AG-BANK ARTHA GRAHA              15022200000008014022205032840021058987599999999999990000001000000000000000000000007000050504858719APP0000968319      30OM36003700006957014-7655037225         JAKARTA                  
AG-BANK ARTHA GRAHA              15022200000008114022205044140021058987599999999999990000003000000000000000000000007000968341858741APP0000968341      30OM36003700004746002-305501032737536    JAKARTA                  
AG-BANK ARTHA GRAHA              15022200000008214022205060040021058987599999999999990000000050000000000000000000007000786688858766APP0000968366      30OM36003700004930009-0477229936         JAKARTA                  
AG-BANK ARTHA GRAHA              15022200000008314022205081940021058987599999999999990000010000000000000000000000007000050955858797APP0000968395      30OM36003700001580014-7325121718         JAKARTA                  
AG-BANK ARTHA GRAHA              15022200000008414022205084440021058987599999999999990000000250000000000000000000007000051016858805APP0000968403      30OM36003700050474014-6610826391         JAKARTA                  
AG-BANK ARTHA GRAHA              15022200000008514022205110540021058987590111111111100000001500000000000000000000007001026599265907APP0000405907      30OI36003716060009130-01102060017985     JAKARTA                  
AG-BANK ARTHA GRAHA              15022200000008614022205173640021058987599999999999990000000383000000000000000000007000051912858893APP0000968489      30OM36003700008079014-6800173645         JAKARTA                  
AG-BANK ARTHA GRAHA              15022200000008714022205181840021058987599999999999990000000870000000000000000000007000051951858911APP0000968507      30OM36003700070478014-7890164620         JAKARTA                  
AG-BANK ARTHA GRAHA              15022200000008814022205201340021058987599999999999990000000100000000000000000000007000064645858938APP0000968534      30OM36003700007667009-0970168979         JAKARTA                  
AG-BANK ARTHA GRAHA              15022200000008914022205203740021058987599999999999990000000150000000000000000000007000968539858943APP0000968539      30OM36003700006052002-712001002628536    JAKARTA                  
AG-BANK ARTHA GRAHA              15022200000009014022205294040021058987599999999999990000000200000000000000000000007000053113859051APP0000968644      30OM36003700066611014-8010580359         JAKARTA                  
AG-BANK ARTHA GRAHA              15022200000009114022205323540021058987590502507890050000004000000000000000000000007000522017001017APP0000522017      30ATM00810        002-094701047075535    JAKARTA                  
AG-BANK ARTHA GRAHA              15022200000009214022205330540021058987590111111111100000000340000000000000000000007000390397585163APP0000405163      30OI36003716040002008-1360015462903      JAKARTA                  
AG-BANK ARTHA GRAHA              15022200000009314022205335540021058987599999999999990000000450000000000000000000007000053531859106APP0000968700      30OM36003700010368014-4601627731         JAKARTA                  
AG-BANK ARTHA GRAHA              15022200000009414022205345240021058987599999999999990000000500000000000000000000007000053625859124APP0000968718      30OM36003700065170014-1650052796         JAKARTA                  
AG-BANK ARTHA GRAHA              15022200000009514022205364040021058987599999999999990000000266000000000000000000007000023583859168APP0000968762      30OM36003700025644008-1660097779995      JAKARTA                  
AG-BANK ARTHA GRAHA              15022200000009614022205385040021058987599999999999990000000090000000000000000000007000968805859211APP0000968805      30OM36003700054882002-096301040263535    JAKARTA                  
AG-BANK ARTHA GRAHA              15022200000009714022205434340021058987599999999999990000000039500000000000000000007000206471859330APP0000968923      30OM36003700041166009-8282802801400787   JAKARTA                  
AG-BANK ARTHA GRAHA              15022200000009814022205435640021058987599999999999990000002000000000000000000000007000058252859340APP0000968933      30OM36003700079002213-90200017277        JAKARTA                  
AG-BANK ARTHA GRAHA              15022200000009914022205443140021058987590111111111100000000040000000000000000000007000405946271946APP0000405946      30OI36003714050026002-791201002976530    JAKARTA                  
AG-BANK ARTHA GRAHA              15022200000010014022205443240021058987590111111111100000000150000000000000000000007000405070272070APP0000405070      30OI36003716020000002-749601009589538    JAKARTA                  
AG-BANK ARTHA GRAHA              15022200000010114022205445440021058987599999999999990000010000000000000000000000007000001131859363APP0000968955      30OM36003700017275200-0018101500519959   JAKARTA                  
AG-BANK ARTHA GRAHA              15022200000010214022205484140021058987599999999999990000000250000000000000000000007000969012859419APP0000969012      30OM36003700008496002-156201000261532    JAKARTA                  
AG-BANK ARTHA GRAHA              15022200000010314022205495640021058987599999999999990000000400000000000000000000007000055128859442APP0000969035      30OM36003700019765014-5490636091         JAKARTA                  
AG-BANK ARTHA GRAHA              15022200000010414022205550840021058987599999999999990000000593000000000000000000007000055643859535APP0000969129      30OM36003700014288014-0060488797         JAKARTA                  
AG-BANK ARTHA GRAHA              15022200000010514022205552340021058987599999999999990000000160000000000000000000007000286495859538APP0000969133      30OM36003700091324009-0113032151         JAKARTA                  
AG-BANK ARTHA GRAHA              15022200000010614022206000440021058987599999999999990000000238000000000000000000007000969234859640APP0000969234      30OM36003700020763002-418501019205538    JAKARTA                  
AG-BANK ARTHA GRAHA              15022200000010714022206000640021058987599999999999990000000500000000000000000000007000060143859641APP0000969235      30OM36003700063379014-8720263654         JAKARTA                  
AG-BANK ARTHA GRAHA              15022200000010814022206011340021058987599999999999990000000282777000000000000000007000562996859670APP0000969263      30OM36003700000970022-803377771900       JAKARTA                  
AG-BANK ARTHA GRAHA              15022200000010914022206034940021058987599999999999990000001000000000000000000000007000060522859722APP0000969317      30OM36003700000696014-3911349599         JAKARTA                  
AG-BANK ARTHA GRAHA              15022200000011014022206044340021058987590111111111100000000100000000000000000000007000406005483005APP0000406005      30OI36003712100118002-349601032155538    JAKARTA                  
AG-BANK ARTHA GRAHA              15022200000011114022206054340021058987599999999999990000000050000000000000000000007000359306859761APP0000969357      30OM36003700080705009-0853268059         JAKARTA                  
AG-BANK ARTHA GRAHA              15022200000011214022206074940021058987599999999999990000001000000000000000000000007000969382859786APP0000969382      30OM36003700042271002-023701060526508    JAKARTA                  
AG-BANK ARTHA GRAHA              15022200000011314022206090540021058987599999999999990000000200814000000000000000007000061038859815APP0000969412      30OM36003700003414014-2670085425         JAKARTA                  
AG-BANK ARTHA GRAHA              15022200000011414022206093640021058987590800353560020000000855800000000000000000007000523095089095APP0000523095      30ATM17001        002-751501002499504    AMBON                    
AG-BANK ARTHA GRAHA              15022200000011514022206103140021058987599999999999990000000350000000000000000000007000404320859841APP0000969438      30OM36003700043049009-1209468680         JAKARTA                  
AG-BANK ARTHA GRAHA              15022200000011614022206103340021058987599999999999990000000203816000000000000000007000404633859842APP0000969439      30OM36003700026699009-8277087827618278   JAKARTA                  
AG-BANK ARTHA GRAHA              15022200000011714022206103540021058987599999999999990000000050000000000000000000007001029086859843APP0000969440      30OM36003700040830014-1003551751201      JAKARTA                  
AG-BANK ARTHA GRAHA              15022200000011814022206105940021058987590800353560020000000600000000000000000000007000396985089097APP0000523097      30ATM17001        009-085556402          AMBON                    
AG-BANK ARTHA GRAHA              15022200000011914022206124140021058987599999999999990000000300000000000000000000007000061414859878APP0000969476      30OM36003700087294014-0384275571         JAKARTA                  
AG-BANK ARTHA GRAHA              15022200000012014022206173940021058987599999999999990000000100000000000000000000007000463246859951APP0000969549      30OM36003700076297009-0308475502         JAKARTA                  
AG-BANK ARTHA GRAHA              15022200000012114022206243340021058987599999999999990000000100000000000000000000007001028619860052APP0000969650      30OM36003700012335535-901385343012       JAKARTA                  
AG-BANK ARTHA GRAHA              15022200000012214022206252940021058987590111111111100000003300000000000000000000007000517783729358APP0000406358      30OI36003714010102009-0263210123         JAKARTA                  
AG-BANK ARTHA GRAHA              15022200000012314022206290440021058987590111111111100000000450000000000000000000007000682511944573APP0000406573      30OI36003715060058013-9906109627         JAKARTA                  
AG-BANK ARTHA GRAHA              15022200000012414022206324540021058987599999999999990000002000000000000000000000007000594880860223APP0000969824      30OM36003700033987009-0445745211         JAKARTA                  
AG-BANK ARTHA GRAHA              15022200000012514022206330740021058987599999999999990000000300000000000000000000007000199678860235APP0000969835      30OM36003700023138200-0045401560000476   JAKARTA                  
AG-BANK ARTHA GRAHA              15022200000012614022206342540021058987599999999999990000000017000000000000000000007000996986860251APP0000969851      30OM36003700009261503-9085930254637      JAKARTA                  
AG-BANK ARTHA GRAHA              15022200000012714022206350940021058987599999999999990000000500000000000000000000007000969864860263APP0000969864      30OM36003700010170002-597801013878537    JAKARTA                  
AG-BANK ARTHA GRAHA              15022200000012814022206370440021058987599999999999990000010000000000000000000000007000063836860306APP0000969905      30OM36003700040241014-1080396267         JAKARTA                  
AG-BANK ARTHA GRAHA              15022200000012914022206393340021058987599999999999990000001000000000000000000000007000064108860351APP0000969950      30OM36003700090946014-0751120141         JAKARTA                  
AG-BANK ARTHA GRAHA              15022200000013014022206395340021058987590111111111100000001100000000000000000000007000085693593270APP0000406270      30OI36003714050000008-1520545552222      JAKARTA                  
AG-BANK ARTHA GRAHA              15022200000013114022206395840021058987590111111111100000000320000000000000000000007000654484019355APP0000958355      30OI36003714512314009-0407180468         JAKARTA                  
AG-BANK ARTHA GRAHA              15022200000013214022206442640021058987599999999999990000000076900000000000000000007000970050860452APP0000970050      30OM36003700028325002-425301017498534    JAKARTA                  
AG-BANK ARTHA GRAHA              15022200000013314022206451440021058987599999999999990000000200000000000000000000007000970058860460APP0000970058      30OM36003700072317002-056201000294538    JAKARTA                  
AG-BANK ARTHA GRAHA              15022200000013414022206453240021058987590111111111100000000100000000000000000000007000406690932690APP0000406690      30OI36003715050008002-105301011506502    JAKARTA                  
AG-BANK ARTHA GRAHA              15022200000013514022206464840021058987599999999999990000000050000000000000000000007000734979860498APP0000970097      30OM36003700000333009-1996052209         JAKARTA                  
AG-BANK ARTHA GRAHA              15022200000013614022206471840021058987590111111111100000000200000000000000000000007000406894038894APP0000406894      30OI36003718030009002-227301006915503    JAKARTA                  
AG-BANK ARTHA GRAHA              15022200000013714022206484340021058987599999999999990000001500000000000000000000007000 35007860550APP0000970147      30OM36003700006313008-1730006334024      JAKARTA                  
AG-BANK ARTHA GRAHA              15022200000013814022206494540021058987599999999999990000000020000000000000000000007000065117860601APP0000970198      30OM36003700078738014-7125479227         JAKARTA                  
AG-BANK ARTHA GRAHA              15022200000013914022206504140021058987599999999999990000000200000000000000000000007000970215860636APP0000970215      30OM36003700076020002-096201012901539    JAKARTA                  
AG-BANK ARTHA GRAHA              15022200000014014022206514640021058987599999999999990000000500000000000000000000007000971359860687APP0000970286      30OM36003700038039008-9000024620818      JAKARTA                  
AG-BANK ARTHA GRAHA              15022200000014114022206520640021058987590111111111100000001000000000000000000000007000773024326204APP0000406204      30OI36003715010014009-1332811153         JAKARTA                  
AG-BANK ARTHA GRAHA              15022200000014214022206540240021058987590111111111100000000250000000000000000000007000406409442409APP0000406409      30OI36003712080078002-027601036419509    JAKARTA                  
AG-BANK ARTHA GRAHA              15022200000014314022206541740021058987599999999999990000006180000000000000000000007000564062860756APP0000970352      30OM36003700044895022-702139775300       JAKARTA                  
AG-BANK ARTHA GRAHA              15022200000014414022206551340021058987599999999999990000001000000000000000000000007000065645860778APP0000970374      30OM36003700036672014-6820240063         JAKARTA                  
AG-BANK ARTHA GRAHA              15022200000014514022206580340021058987590111111111100000000300000000000000000000007000406694683694APP0000406694      30OI36003712080078002-026701042543509    JAKARTA                  
AG-BANK ARTHA GRAHA              15022200000014614022206584640021058987599999999999990000000143300000000000000000007000070019860863APP0000970458      30OM36003700079795014-6580044024         JAKARTA                  
AG-BANK ARTHA GRAHA              15022200000014714022207011540021058987599999999999990000000500000000000000000000007000784121860968APP0000970561      30OM36003700007392110-0022637398100      JAKARTA                  
AG-BANK ARTHA GRAHA              15022200000014814022207023640021058987599999999999990000004000000000000000000000007000970617861023APP0000970617      30OM36003700008797002-137801001278509    JAKARTA                  
AG-BANK ARTHA GRAHA              15022200000014914022207034540021058987599999999999990000001100000000000000000000007000970635861039APP0000970635      30OM36003700077444002-678401003566538    JAKARTA                  
AG-BANK ARTHA GRAHA              15022200000015014022207041640021058987599999999999990000000500000000000000000000007000970655861059APP0000970655      30OM36003700044252002-590301031906533    JAKARTA                  
AG-BANK ARTHA GRAHA              15022200000015114022207045140021058987590111111111100000000200000000000000000000007000407104091104APP0000407104      30OI36003714010013002-509401022875532    JAKARTA                  
AG-BANK ARTHA GRAHA              15022200000015214022207053940021058987599999999999990000006000000000000000000000007000535501861098APP0000970695      30OM36003700040241011-32962896           JAKARTA                  
AG-BANK ARTHA GRAHA              15022200000015314022207055740021058987599999999999990000000210000000000000000000007000970705861108APP0000970705      30OM36003700001858002-364901028866530    JAKARTA                  
AG-BANK ARTHA GRAHA              15022200000015414022207070040021058987599999999999990000000500000000000000000000007000185173861128APP0000970725      30OM36003700000188009-0617828627         JAKARTA                  
AG-BANK ARTHA GRAHA              15022200000015514022207070940021058987599999999999990000020000000000000000000000007000535351861131APP0000970728      30OM36003700018676011-088833015883       JAKARTA                  
AG-BANK ARTHA GRAHA              15022200000015614022207074640021058987599999999999990000001400000000000000000000007000070920861145APP0000970742      30OM36003700014288014-0060488797         JAKARTA                  
AG-BANK ARTHA GRAHA              15022200000015714022207083840021058987599999999999990000000500000000000000000000007000071011861200APP0000970795      30OM36003700005551014-7771318570         JAKARTA                  
AG-BANK ARTHA GRAHA              15022200000015814022207123840021058987599999999999990000000500000000000000000000007000071411861284APP0000970876      30OM36003700002343014-5370052061         JAKARTA                  
AG-BANK ARTHA GRAHA              15022200000015914022207133940021058987599999999999990000003500000000000000000000007000071512861332APP0000970924      30OM36003700023538014-5240032530         JAKARTA                  
AG-BANK ARTHA GRAHA              15022200000016014022207134440021058987599999999999990000005000000000000000000000007000990303861336APP0000970928      30OM36003700065905008-1620004018416      JAKARTA                  
AG-BANK ARTHA GRAHA              15022200000016114022207134540021058987599999999999990000008800000000000000000000007000312970861339APP0000970931      30OM36003700006978019-5092025527         JAKARTA                  
AG-BANK ARTHA GRAHA              15022200000016214022207140140021058987599999999999990000000100000000000000000000007000071534861345APP0000970937      30OM36003700027073014-0281859357         JAKARTA                  
AG-BANK ARTHA GRAHA              15022200000016314022207162840021058987599999999999990000000030000000000000000000007000071805861402APP0000970996      30OM36003700042917014-0010272734         JAKARTA                  
AG-BANK ARTHA GRAHA              15022200000016414022207163840021058987599999999999990000000440000000000000000000007000071815861416APP0000971010      30OM36003700011516014-8400239577         JAKARTA                  
AG-BANK ARTHA GRAHA              15022200000016514022207171940021058987590111111111100000000160000000000000000000007000407929839929APP0000407929      30OI36003716090001002-307801034816538    JAKARTA                  
AG-BANK ARTHA GRAHA              15022200000016614022207171940021058987599999999999990000000500000000000000000000007000071851861431APP0000971025      30OM36003700054534014-5775321196         JAKARTA                  
AG-BANK ARTHA GRAHA              15022200000016714022207172540021058987599999999999990000000400000000000000000000007000071858861436APP0000971030      30OM36003700079423014-2610010256         JAKARTA                  
AG-BANK ARTHA GRAHA              15022200000016814022207181240021058987599999999999990000000071000000000000000000007000695479861458APP0000971052      30OM36003700013827013-8528087826087890   JAKARTA                  
AG-BANK ARTHA GRAHA              15022200000016914022207182840021058987590111111111100000000200000000000000000000007000407066908066APP0000407066      30OI36003714010019002-497701038336501    JAKARTA                  
AG-BANK ARTHA GRAHA              15022200000017014022207200540021058987599999999999990000000300000000000000000000007000008863861501APP0000971094      30OM36003700024018008-1090018077040      JAKARTA                  
AG-BANK ARTHA GRAHA              15022200000017114022207212040021058987599999999999990000000143200000000000000000007000695584861520APP0000971113      30OM36003700079795013-8528081905079459   JAKARTA                  
AG-BANK ARTHA GRAHA              15022200000017214022207212240021058987599999999999990000000050000000000000000000007000696671861521APP0000971114      30OM36003700033635013-8528081282971815   JAKARTA                  
AG-BANK ARTHA GRAHA              15022200000017314022207221040021058987599999999999990000000045000000000000000000007000072343861550APP0000971143      30OM36003700041371014-4120168989         JAKARTA                  
AG-BANK ARTHA GRAHA              15022200000017414022207231340021058987590111111111100000000500000000000000000000007000407235193235APP0000407235      30OI36003716050004002-349301053175535    JAKARTA                  
AG-BANK ARTHA GRAHA              15022200000017514022207231440021058987590111111111100000000150000000000000000000007000859645194562APP0000407562      30OI36003715010014008-1610003232878      JAKARTA                  
AG-BANK ARTHA GRAHA              15022200000017614022207234440021058987590800255650000000000250000000000000000000007000040530020022APP0000500022      30ATM13001        008-9000016334949      MAKASSAR                 
AG-BANK ARTHA GRAHA              15022200000017714022207274940021058987599999999999990000000300000000000000000000007000537772861712APP0000971264      30OM36003700021272011-003591087030       JAKARTA                  
AG-BANK ARTHA GRAHA              15022200000017814022207283640021058987590111111111100000000100000000000000000000007001031966516827APP0000407827      30OI36003714010019542-104047933181       JAKARTA                  
AG-BANK ARTHA GRAHA              15022200000017914022207292640021058987599999999999990000000586000000000000000000007000971374861782APP0000971374      30OM36003700042445002-437001024713537    JAKARTA                  
AG-BANK ARTHA GRAHA              15022200000018014022207295240021058987590111111111100000000501500000000000000000007000407021592021APP0000407021      30OI36003714010019002-304801035303539    JAKARTA                  
AG-BANK ARTHA GRAHA              15022200000018114022207295640021058987599999999999990000000020000000000000000000007000073128861798APP0000971390      30OM36003700064193014-2190070428         JAKARTA                  
AG-BANK ARTHA GRAHA              15022200000018214022207302340021058987599999999999990000000100000000000000000000007000073159861822APP0000971414      30OM36003700035332014-7410996299         JAKARTA                  
AG-BANK ARTHA GRAHA              15022200000018314022207304440021058987599999999999990000002000000000000000000000007000565116861828APP0000971418      30OM36003700073169022-706180173900       JAKARTA                  
AG-BANK ARTHA GRAHA              15022200000018414022207311140021058987599999999999990000000020000000000000000000007000 73407861848APP0000971441      30OM36003700068130008-893088213959426    JAKARTA                  
AG-BANK ARTHA GRAHA              15022200000018514022207311840021058987590111111111100000001000000000000000000000007000407146678146APP0000407146      30OI36003714010002002-776001010701530    JAKARTA                  
AG-BANK ARTHA GRAHA              15022200000018614022207315440021058987599999999999990000000100000000000000000000007000073330861869APP0000971464      30OM36003700047138014-2920795792         JAKARTA                  
AG-BANK ARTHA GRAHA              15022200000018714022207320340021058987599999999999990000002000000000000000000000007000545886861878APP0000971473      30OM36003700020036009-0357704115         JAKARTA                  
AG-BANK ARTHA GRAHA              15022200000018814022207322040021058987599999999999990000000040000000000000000000007000073352861895APP0000971491      30OM36003700064643014-7510838712         JAKARTA                  
AG-BANK ARTHA GRAHA              15022200000018914022207350940021058987599999999999990000000100000000000000000000007000073641862030APP0000971626      30OM36003700066022014-0820309499         JAKARTA                  
AG-BANK ARTHA GRAHA              15022200000019014022207361640021058987590111111111100000000150000000000000000000007000407533976533APP0000407533      30OI36003712020106002-176201000602530    JAKARTA                  
AG-BANK ARTHA GRAHA              15022200000019114022207364840021058987590111111111100000000200000000000000000000007000589212008605APP0000407605      30OI36003712040013009-1143892477         JAKARTA                  
AG-BANK ARTHA GRAHA              15022200000019214022207373540021058987590111111111100000000500000000000000000000007000407697055697APP0000407697      30OI36003714010108002-382601019458534    JAKARTA                  
AG-BANK ARTHA GRAHA              15022200000019314022207390340021058987599999999999990000003400000000000000000000007000074036862112APP0000971709      30OM36003700066022014-0820309499         JAKARTA                  
AG-BANK ARTHA GRAHA              15022200000019414022207400040021058987590111111111100000000500000000000000000000007000407886200886APP0000407886      30OI36003713050002002-482101032614530    JAKARTA                  
AG-BANK ARTHA GRAHA              15022200000019514022207400340021058987599999999999990000025000000000000000000000007000074135862165APP0000971762      30OM36003700035332014-7410996299         JAKARTA                  
AG-BANK ARTHA GRAHA              15022200000019614022207400440021058987599999999999990000000700000000000000000000007000074137862166APP0000971763      30OM36003700068927014-3420278119         JAKARTA                  
AG-BANK ARTHA GRAHA              15022200000019714022207401140021058987590111111111100000001769000000000000000000007000565408019366APP0000011366      30OI36003710171483022-705734866400       JAKARTA                  
AG-BANK ARTHA GRAHA              15022200000019814022207405740021058987599999999999990000000100000000000000000000007000698896862192APP0000971789      30OM36003700037603013-1228191317         JAKARTA                  
AG-BANK ARTHA GRAHA              15022200000019914022207414140021058987599999999999990000000050000000000000000000007000074313862215APP0000971812      30OM36003700038260014-8665087162         JAKARTA                  
AG-BANK ARTHA GRAHA              15022200000020014022207420540021058987590502052230010000001000000000000000000000007000863239009013APP0000500013      30ATM00501        008-1440007926295      JAKARTA                  
AG-BANK ARTHA GRAHA              15022200000020114022207421340021058987599999999999990000000300000000000000000000007000074345862232APP0000971830      30OM36003700004346014-6595733999         JAKARTA                  
AG-BANK ARTHA GRAHA              15022200000020214022207424840021058987599999999999990000025000000000000000000000007000074421862259APP0000971861      30OM36003700035332014-7410996299         JAKARTA                  
AG-BANK ARTHA GRAHA              15022200000020314022207431840021058987599999999999990000001000000000000000000000007000074451862281APP0000971883      30OM36003700010749014-7650740453         JAKARTA                  
AG-BANK ARTHA GRAHA              15022200000020414022207434640021058987599999999999990000000455587000000000000000007000074519862302APP0000971904      30OM36003700003895014-1912063024         JAKARTA                  
AG-BANK ARTHA GRAHA              15022200000020514022207440540021058987599999999999990000003500000000000000000000007000074538862325APP0000971927      30OM36003700083478014-2671557982         JAKARTA                  
AG-BANK ARTHA GRAHA              15022200000020614022207444140021058987599999999999990000000500000000000000000000007000583263862348APP0000971950      30OM36003700079761008-1290011662554      JAKARTA                  
AG-BANK ARTHA GRAHA              15022200000020714022207444340021058987599999999999990000001368200000000000000000007000742116862352APP0000971954      30OM36003700050982009-8277770817198765   JAKARTA                  
AG-BANK ARTHA GRAHA              15022200000020814022207471440021058987599999999999990000012000000000000000000000007000565729862434APP0000972036      30OM36003700015261022-760716435300       JAKARTA                  
AG-BANK ARTHA GRAHA              15022200000020914022207480540021058987590111111111100000000400000000000000000000007000407397685397APP0000407397      30OI36003712100024002-494801007373535    JAKARTA                  
AG-BANK ARTHA GRAHA              15022200000021014022207483640021058987599999999999990000000150000000000000000000007000972078862476APP0000972078      30OM36003700076580002-773601009051531    JAKARTA                  
AG-BANK ARTHA GRAHA              15022200000021114022207490840021058987590111111111100000000200000000000000000000007000782817748337APP0000407337      30OI36003714001000009-0988697483         JAKARTA                  
AG-BANK ARTHA GRAHA              15022200000021214022207500640021058987599999999999990000012851000000000000000000007000021920862555APP0000972158      30OM36003700001186046-4374500003980520   JAKARTA                  
AG-BANK ARTHA GRAHA              15022200000021314022207500840021058987599999999999990000000327000000000000000000007000702103862556APP0000972159      30OM36003700018019013-8965071128101833   JAKARTA                  
AG-BANK ARTHA GRAHA              15022200000021414022207503440021058987590111111111100000000400000000000000000000007000407599834599APP0000407599      30OI36003712100024002-495101013480537    JAKARTA                  
AG-BANK ARTHA GRAHA              15022200000021514022207515140021058987590111111111100000000300000000000000000000007000021753911780APP0000407780      30OI36003715010021009-0538238171         JAKARTA                  
AG-BANK ARTHA GRAHA              15022200000021614022207535640021058987599999999999990000003000000000000000000000007000972306862704APP0000972306      30OM36003700068520002-696601025783538    JAKARTA                  
AG-BANK ARTHA GRAHA              15022200000021714022207542440021058987590502974580020000000500000000000000000000007000500154152154APP0000500154      30A0010803        002-042201026725509    JAKARTA                  
AG-BANK ARTHA GRAHA              15022200000021814022207543040021058987599999999999990000000200000000000000000000007000698522862747APP0000972346      30OM36003700025075013-4122148551         JAKARTA                  
AG-BANK ARTHA GRAHA              15022200000021914022207551440021058987599999999999990000000193300000000000000000007000702304862773APP0000972370      30OM36003700079795013-8528081905079459   JAKARTA                  
AG-BANK ARTHA GRAHA              15022200000022014022207552440021058987599999999999990000000150000000000000000000007000972385862788APP0000972385      30OM36003700071608002-122401002693533    JAKARTA                  
AG-BANK ARTHA GRAHA              15022200000022114022207564740021058987599999999999990000001000000000000000000000007000075820862869APP0000972464      30OM36003700042100014-8770708665         JAKARTA                  
AG-BANK ARTHA GRAHA              15022200000022214022207570840021058987599999999999990000000200000000000000000000007000117078862881APP0000972475      30OM36003700007254009-0001493506         JAKARTA                  
AG-BANK ARTHA GRAHA              15022200000022314022207572540021058987599999999999990000000300000000000000000000007000566146862885APP0000972479      30OM36003700090807022-762616854700       JAKARTA                  
AG-BANK ARTHA GRAHA              15022200000022414022207573940021058987599999999999990000000500000000000000000000007000972495862901APP0000972495      30OM36003700003669002-201101002737537    JAKARTA                  
AG-BANK ARTHA GRAHA              15022200000022514022207574940021058987599999999999990000000190000000000000000000007000075921862905APP0000972499      30OM36003700089249014-3151119938         JAKARTA                  
AG-BANK ARTHA GRAHA              15022200000022614022207582140021058987599999999999990000001000000000000000000000007000709003862923APP0000972518      30OM36003700015743200-0043501500007850   JAKARTA                  
AG-BANK ARTHA GRAHA              15022200000022714022207591440021058987599999999999990000000300000000000000000000007000080047862965APP0000972554      30OM36003700002121014-7060030639         JAKARTA                  
AG-BANK ARTHA GRAHA              15022200000022814022207593640021058987599999999999990000000600000000000000000000007000080108862980APP0000972569      30OM36003700002100014-8660161555         JAKARTA                  
AG-BANK ARTHA GRAHA              15022200000022914022207595740021058987599999999999990000020000000000000000000000007000080130862998APP0000972587      30OM36003700044844014-2183008161         JAKARTA                  
AG-BANK ARTHA GRAHA              15022200000023014022208004440021058987590800396290080000000400000000000000000000007000501167150167APP0000501167      30A0008101        002-412601017868530    CIREBON                  
AG-BANK ARTHA GRAHA              15022200000023114022208010340021058987590111111111100000000055000000000000000000007000003357463504APP0000408504      30OI36003715010002008-1060014389442      JAKARTA                  
AG-BANK ARTHA GRAHA              15022200000023214022208011440021058987599999999999990000001500000000000000000000007000080250863038APP0000972628      30OM36003700086409014-5930160581         JAKARTA                  
AG-BANK ARTHA GRAHA              15022200000023314022208012440021058987599999999999990000000400000000000000000000007000080256863046APP0000972632      30OM36003700090483014-0700281884         JAKARTA                  
AG-BANK ARTHA GRAHA              15022200000023414022208015540021058987599999999999990000002700000000000000000000007000080328863065APP0000972653      30OM36003700024455014-5220881743         JAKARTA                  
AG-BANK ARTHA GRAHA              15022200000023514022208033940021058987599999999999990000000500000000000000000000007000569247863141APP0000972728      30OM36003700023498008-1040004970682      JAKARTA                  
AG-BANK ARTHA GRAHA              15022200000023614022208042640021058987599999999999990000000100000000000000000000007000619039863175APP0000972763      30OM36003700000688008-1670002272085      JAKARTA                  
AG-BANK ARTHA GRAHA              15022200000023714022208043140021058987590111111111100000000461000000000000000000007000375389671742APP0000408742      30OI36003716020001008-1380016296225      JAKARTA                  
AG-BANK ARTHA GRAHA              15022200000023814022208061940021058987599999999999990000000600000000000000000000007000080752863312APP0000972900      30OM36003700020940014-3080131886         JAKARTA                  
AG-BANK ARTHA GRAHA              15022200000023914022208071440021058987599999999999990000000800000000000000000000007000800031863371APP0000972958      30OM36003700000291008-8862605544191356   JAKARTA                  
AG-BANK ARTHA GRAHA              15022200000024014022208074940021058987590111111111100000000150000000000000000000007000408040869040APP0000408040      30OI36003719010004002-343901050337532    JAKARTA                  
AG-BANK ARTHA GRAHA              15022200000024114022208075340021058987599999999999990000001500000000000000000000007000080926863405APP0000972991      30OM36003700079288014-1090518298         JAKARTA                  
AG-BANK ARTHA GRAHA              15022200000024214022208090240021058987599999999999990000000025536000000000000000007000973026863440APP0000973026      30OM36003700078731002-023801022906536    JAKARTA                  
AG-BANK ARTHA GRAHA              15022200000024314022208092740021058987590111111111100000001000000000000000000000007000387609967215APP0000408215      30OI36003715060058009-0896527752         JAKARTA                  
AG-BANK ARTHA GRAHA              15022200000024414022208093440021058987599999999999990000000030000000000000000000007000081106863469APP0000973054      30OM36003700031527014-5865317333         JAKARTA                  
AG-BANK ARTHA GRAHA              15022200000024514022208094040021058987599999999999990000000200000000000000000000007000973056863471APP0000973056      30OM36003700052897002-110001029997502    JAKARTA                  
AG-BANK ARTHA GRAHA              15022200000024614022208105040021058987590111111111100000000300000000000000000000007000408291050291APP0000408291      30OI36003710010067002-483001016171537    JAKARTA                  
AG-BANK ARTHA GRAHA              15022200000024714022208105940021058987599999999999990000000450000000000000000000007000973110863525APP0000973110      30OM36003700001334002-367701002919500    JAKARTA                  
AG-BANK ARTHA GRAHA              15022200000024814022208111140021058987590111111111100000000150000000000000000000007000435607019380APP0000111380      30OI36003714372255009-0014511759         JAKARTA                  
AG-BANK ARTHA GRAHA              15022200000024914022208111840021058987590111111111100000000800000000000000000000007000408385078385APP0000408385      30OI36003719250004002-712901013567533    JAKARTA                  
AG-BANK ARTHA GRAHA              15022200000025014022208111940021058987590111111111100000001000000000000000000000007000408831079831APP0000408831      30OI36003714010008002-005001010958537    JAKARTA                  
AG-BANK ARTHA GRAHA              15022200000025114022208124040021058987599999999999990000000300000000000000000000007000081413863595APP0000973180      30OM36003700073727014-5770984001         JAKARTA                  
AG-BANK ARTHA GRAHA              15022200000025214022208132640021058987599999999999990000000170000000000000000000007000324703863628APP0000973214      30OM36003700000702008-1250005263470      JAKARTA                  
AG-BANK ARTHA GRAHA              15022200000025314022208133640021058987599999999999990000000300000000000000000000007000081509863633APP0000973220      30OM36003700078882014-8820527128         JAKARTA                  
AG-BANK ARTHA GRAHA              15022200000025414022208135240021058987599999999999990000000200000000000000000000007000094175863647APP0000973216      30OM36003700022217008-1390005129782      JAKARTA                  
AG-BANK ARTHA GRAHA              15022200000025514022208135540021058987599999999999990000000030000000000000000000007000704031863651APP0000973237      30OM36003700050704013-8528081398833052   JAKARTA                  
AG-BANK ARTHA GRAHA              15022200000025614022208143240021058987599999999999990000000200000000000000000000007000973269863683APP0000973269      30OM36003700069297002-437501020170533    JAKARTA                  
AG-BANK ARTHA GRAHA              15022200000025714022208145040021058987599999999999990000000050000000000000000000007000864863863705APP0000973291      30OM36003700062708008-1670004363486      JAKARTA                  
AG-BANK ARTHA GRAHA              15022200000025814022208151240021058987599999999999990000000800000000000000000000007000081648863733APP0000973319      30OM36003700089255014-7100043861         JAKARTA                  
AG-BANK ARTHA GRAHA              15022200000025914022208152540021058987599999999999990000000400000000000000000000007000081658863750APP0000973336      30OM36003700057117014-8270278591         JAKARTA                  
AG-BANK ARTHA GRAHA              15022200000026014022208154540021058987599999999999990000000200000000000000000000007000081720863772APP0000973359      30OM36003700078882014-1791559991         JAKARTA                  
AG-BANK ARTHA GRAHA              15022200000026114022208155040021058987590111111111100000000550000000000000000000007000408838350838APP0000408838      30OI36003716020000002-749601009589538    JAKARTA                  
AG-BANK ARTHA GRAHA              15022200000026214022208155040021058987590111111111100000002000000000000000000000007000272201350964APP0000408964      30OI36003719010004124-1337092779         JAKARTA                  
AG-BANK ARTHA GRAHA              15022200000026314022208160140021058987599999999999990000003000000000000000000000007000081734863795APP0000973383      30OM36003700023759014-0710060525         JAKARTA                  
AG-BANK ARTHA GRAHA              15022200000026414022208161940021058987599999999999990000000300000000000000000000007000785918863807APP0000973353      30OM36003700049705110-0081214352100      JAKARTA                  
AG-BANK ARTHA GRAHA              15022200000026514022208174140021058987590111111111100000001000000000000000000000007000274887461937APP0000408937      30OI36003719010004124-1337080380         JAKARTA                  
AG-BANK ARTHA GRAHA              15022200000026614022208174640021058987599999999999990000001000000000000000000000007000973466863879APP0000973466      30OM36003700082819002-095201008001530    JAKARTA                  
AG-BANK ARTHA GRAHA              15022200000026714022208175940021058987599999999999990000000093700000000000000000007000705231863883APP0000973470      30OM36003700079795013-8528081905079459   JAKARTA                  
AG-BANK ARTHA GRAHA              15022200000026814022208180840021058987599999999999990000000500000000000000000000007000081941863894APP0000973481      30OM36003700090554014-5681356950         JAKARTA                  
AG-BANK ARTHA GRAHA              15022200000026914022208184340021058987599999999999990000000600000000000000000000007000082017863921APP0000973508      30OM36003700009535014-7360754019         JAKARTA                  
AG-BANK ARTHA GRAHA              15022200000027014022208185140021058987599999999999990000000800000000000000000000007000799583863923APP0000973510      30OM36003700006769008-1730030303086      JAKARTA                  
AG-BANK ARTHA GRAHA              15022200000027114022208185640021058987599999999999990000000100000000000000000000007000082029863924APP0000973511      30OM36003700018286014-5215214963         JAKARTA                  
AG-BANK ARTHA GRAHA              15022200000027214022208194540021058987599999999999990000000250000000000000000000007000973548863961APP0000973548      30OM36003700045585002-019201034139537    JAKARTA                  
AG-BANK ARTHA GRAHA              15022200000027314022208202040021058987599999999999990000002650000000000000000000007000082153863998APP0000973584      30OM36003700078882014-5270617991         JAKARTA                  
AG-BANK ARTHA GRAHA              15022200000027414022208202140021058987599999999999990000000625000000000000000000007000973586864001APP0000973586      30OM36003700016713002-670401014520539    JAKARTA                  
AG-BANK ARTHA GRAHA              15022200000027514022208202740021058987599999999999990000000300000000000000000000007000786080864010APP0000973596      30OM36003700049705110-0081214352100      JAKARTA                  
AG-BANK ARTHA GRAHA              15022200000027614022208203640021058987599999999999990000000150000000000000000000007000082209864022APP0000973607      30OM36003700024181014-0060883874         JAKARTA                  
AG-BANK ARTHA GRAHA              15022200000027714022208205440021058987590502308040070000000200000000000000000000007000501128121128APP0000501128      30A0000803        002-469701003174538    JAKARTA                  
AG-BANK ARTHA GRAHA              15022200000027814022208221140021058987599999999999990000000300000000000000000000007000082345864103APP0000973689      30OM36003700019520014-2302600768         JAKARTA                  
AG-BANK ARTHA GRAHA              15022200000027914022208224340021058987599999999999990000000500000000000000000000007000973708864123APP0000973708      30OM36003700000638002-606401050605535    JAKARTA                  
AG-BANK ARTHA GRAHA              15022200000028014022208224540021058987599999999999990000001000000000000000000000007000082417864124APP0000973709      30OM36003700049312014-6870522060         JAKARTA                  
AG-BANK ARTHA GRAHA              15022200000028114022208224840021058987599999999999990000000200000000000000000000007000082420864126APP0000973711      30OM36003700012250014-2760061037         JAKARTA                  
AG-BANK ARTHA GRAHA              15022200000028214022208230640021058987599999999999990000002000000000000000000000007000082438864144APP0000973730      30OM36003700065392014-2671328029         JAKARTA                  
AG-BANK ARTHA GRAHA              15022200000028314022208230940021058987599999999999990000000034500000000000000000007000709086864148APP0000973734      30OM36003700030480013-8528081267901864   JAKARTA                  
AG-BANK ARTHA GRAHA              15022200000028414022208244640021058987599999999999990000005000000000000000000000007000537823864226APP0000973810      30OM36003700032390008-9000004960606      JAKARTA                  
AG-BANK ARTHA GRAHA              15022200000028514022208250440021058987590111111111100000000200000000000000000000007000408394904394APP0000408394      30OI36003712010126002-467501019339538    JAKARTA                  
AG-BANK ARTHA GRAHA              15022200000028614022208250640021058987599999999999990000000202500000000000000000007000871535864236APP0000973820      30OM36003700008427008-1120000803770      JAKARTA                  
AG-BANK ARTHA GRAHA              15022200000028714022208250840021058987599999999999990000000800000000000000000000007000752607864237APP0000973821      30OM36003700033649008-1040005139733      JAKARTA                  
AG-BANK ARTHA GRAHA              15022200000028814022208254740021058987599999999999990000000250000000000000000000007000973847864264APP0000973847      30OM36003700083128002-075801012246536    JAKARTA                  
AG-BANK ARTHA GRAHA              15022200000028914022208263340021058987599999999999990000000028000000000000000000007000082805864306APP0000973891      30OM36003700058262014-3970141986         JAKARTA                  
AG-BANK ARTHA GRAHA              15022200000029014022208281740021058987590111111111100000000250000000000000000000007000408661097661APP0000408661      30OI36003714010104002-040301020690500    JAKARTA                  
AG-BANK ARTHA GRAHA              15022200000029114022208282740021058987599999999999990000000300000000000000000000007000083000864398APP0000973983      30OM36003700000923014-8190173560         JAKARTA                  
AG-BANK ARTHA GRAHA              15022200000029214022208292940021058987599999999999990000000150000000000000000000007000083102864438APP0000974023      30OM36003700036754014-1458890110         JAKARTA                  
AG-BANK ARTHA GRAHA              15022200000029314022208293440021058987590111111111100000005000000000000000000000007000797052174727APP0000408727      30OI36003712010026009-0380213786         JAKARTA                  
AG-BANK ARTHA GRAHA              15022200000029414022208303540021058987590111111111100000000800000000000000000000007000408867235867APP0000408867      30OI36003715010015002-712801021562531    JAKARTA                  
AG-BANK ARTHA GRAHA              15022200000029514022208310740021058987599999999999990000000186000000000000000000007000083240864491APP0000974078      30OM36003700054185014-4141595118         JAKARTA                  
AG-BANK ARTHA GRAHA              15022200000029614022208340240021058987599999999999990000000371000000000000000000007000083535864597APP0000974185      30OM36003700066900014-0657284037         JAKARTA                  
AG-BANK ARTHA GRAHA              15022200000029714022208344240021058987599999999999990000010000000000000000000000007000974209864621APP0000974209      30OM36003700069441002-006901024557500    JAKARTA                  
AG-BANK ARTHA GRAHA              15022200000029814022208353440021058987599999999999990000000100000000000000000000007000083707864663APP0000974250      30OM36003700053939014-1662717333         JAKARTA                  
AG-BANK ARTHA GRAHA              15022200000029914022208355240021058987599999999999990000001045000000000000000000007001613759864697APP0000974285      30OM36003700054167889-3001457909         JAKARTA                  
AG-BANK ARTHA GRAHA              15022200000030014022208362740021058987599999999999990000000690000000000000000000007000083759864735APP0000974323      30OM36003700023759014-8650387075         JAKARTA                  
AG-BANK ARTHA GRAHA              15022200000030114022208371740021058987590111111111100000001000000000000000000000007000408253637253APP0000408253      30OI36003713110000002-347801038381537    JAKARTA                  
AG-BANK ARTHA GRAHA              15022200000030214022208371840021058987599999999999990000000300000000000000000000007000974357864769APP0000974357      30OM36003700078597002-211901004097535    JAKARTA                  
AG-BANK ARTHA GRAHA              15022200000030314022208381240021058987599999999999990000001000000000000000000000007000083950864806APP0000974394      30OM36003700038451014-7650835837         JAKARTA                  
AG-BANK ARTHA GRAHA              15022200000030414022208382640021058987599999999999990000000300000000000000000000007000507103864833APP0000974421      30OM36003700008775008-1230006090429      JAKARTA                  
AG-BANK ARTHA GRAHA              15022200000030514022208384240021058987590111111111100000000300000000000000000000007000408370722370APP0000408370      30OI36003710010064002-347601028554532    JAKARTA                  
AG-BANK ARTHA GRAHA              15022200000030614022208385940021058987599999999999990000000100000000000000000000007000084034864878APP0000974466      30OM36003700036966014-5221286015         JAKARTA                  
AG-BANK ARTHA GRAHA              15022200000030714022208390440021058987590502188790050000000460000000000000000000007000501037021037APP0000501037      30ATM11001        002-340701039101537    NG                       
AG-BANK ARTHA GRAHA              15022200000030814022208392940021058987590111111111100000000500000000000000000000007000408470769470APP0000408470      30OI36003712120020002-362301024553533    JAKARTA                  
AG-BANK ARTHA GRAHA              15022200000030914022208393240021058987590111111111100000000505000000000000000000007000208022772265APP0000408265      30OI36003714000001009-8748675000005724   JAKARTA                  
AG-BANK ARTHA GRAHA              15022200000031014022208393440021058987590111111111100000001500000000000000000000007000408527774527APP0000408527      30OI36003714010109002-023201080645502    JAKARTA                  
AG-BANK ARTHA GRAHA              15022200000031114022208394340021058987599999999999990000000570000000000000000000007000324410864905APP0000974493      30OM36003700089798019-1073004374         JAKARTA                  
AG-BANK ARTHA GRAHA              15022200000031214022208401940021058987599999999999990000001000000000000000000000007000982943864939APP0000974528      30OM36003700013140008-0700007496669      JAKARTA                  
AG-BANK ARTHA GRAHA              15022200000031314022208411140021058987599999999999990000005655000000000000000000007000974564864976APP0000974564      30OM36003700045351002-60242201037686     JAKARTA                  
AG-BANK ARTHA GRAHA              15022200000031414022208413740021058987590502261650090000000305000000000000000000007000203767081085APP0000501085      30ATM00802        008-1280005304230      JAKARTA                  
AG-BANK ARTHA GRAHA              15022200000031514022208422840021058987599999999999990000000750000000000000000000007000306522865045APP0000974632      30OM36003700052930009-8578137592980436   JAKARTA                  
AG-BANK ARTHA GRAHA              15022200000031614022208432440021058987599999999999990000000300000000000000000000007000212511865082APP0000974669      30OM36003700072317008-1520011588197      JAKARTA                  
AG-BANK ARTHA GRAHA              15022200000031714022208434940021058987590111111111100000000350000000000000000000007000408919029919APP0000408919      30OI36003715010074002-712701009808533    JAKARTA                  
AG-BANK ARTHA GRAHA              15022200000031814022208442640021058987599999999999990000002500000000000000000000007000084600865140APP0000974727      30OM36003700057857014-8915499208         JAKARTA                  
AG-BANK ARTHA GRAHA              15022200000031914022208443540021058987590111111111100000000100000000000000000000007000311683075994APP0000408994      30OI36003719130004124-0112907939         JAKARTA                  
AG-BANK ARTHA GRAHA              15022200000032014022208454940021058987599999999999990000000100000000000000000000007000084724865197APP0000974783      30OM36003700072527014-0411463761         JAKARTA                  
AG-BANK ARTHA GRAHA              15022200000032114022208455540021058987599999999999990000000200000000000000000000007000974791865204APP0000974791      30OM36003700030305002-226001003072539    JAKARTA                  
AG-BANK ARTHA GRAHA              15022200000032214022208472240021058987599999999999990000010000000000000000000000007000084855865279APP0000974866      30OM36003700011161014-5810513731         JAKARTA                  
AG-BANK ARTHA GRAHA              15022200000032314022208475340021058987599999999999990000001000000000000000000000007000982239865304APP0000974891      30OM36003700030429008-1090018964544      JAKARTA                  
AG-BANK ARTHA GRAHA              15022200000032414022208482240021058987590700652020020000001000000000000000000000007000501026024026APP0000501026      30ATM19001        002-023201082409504                             
AG-BANK ARTHA GRAHA              15022200000032514022208505040021058987590111111111100000000100000000000000000000007000408430450430APP0000408430      30OI36003715010014002-356501023091530    JAKARTA                  
AG-BANK ARTHA GRAHA              15022200000032614022208505740021058987599999999999990000000020000000000000000000007000444844865499APP0000975086      30OM36003700025208023-7293644849         JAKARTA                  
AG-BANK ARTHA GRAHA              15022200000032714022208512440021058987599999999999990000014000000000000000000000007000085256865518APP0000975108      30OM36003700007778014-7380199747         JAKARTA                  
AG-BANK ARTHA GRAHA              15022200000032814022208512940021058987599999999999990000025000000000000000000000007000085302865519APP0000975109      30OM36003700072374014-5810352061         JAKARTA                  
AG-BANK ARTHA GRAHA              15022200000032914022208515440021058987599999999999990000000500000000000000000000007000952095865547APP0000975138      30OM36003700068740008-1070014755096      JAKARTA                  
AG-BANK ARTHA GRAHA              15022200000033014022208520940021058987599999999999990000025000000000000000000000007000085341865574APP0000975165      30OM36003700072374014-5810352061         JAKARTA                  
AG-BANK ARTHA GRAHA              15022200000033114022208524140021058987599999999999990000025000000000000000000000007000085418865603APP0000975194      30OM36003700072374014-5810352061         JAKARTA                  
AG-BANK ARTHA GRAHA              15022200000033214022208525140021058987599999999999990000000170000000000000000000007000975214865622APP0000975214      30OM36003700071836002-560101018130533    JAKARTA                  
AG-BANK ARTHA GRAHA              15022200000033314022208531940021058987599999999999990000025000000000000000000000007000085451865660APP0000975252      30OM36003700072374014-5810352061         JAKARTA                  
AG-BANK ARTHA GRAHA              15022200000033414022208533040021058987599999999999990000000500000000000000000000007000085503865668APP0000975260      30OM36003700012707014-3950445474         JAKARTA                  
AG-BANK ARTHA GRAHA              15022200000033514022208540240021058987590111111111100000004600000000000000000000007000408704642704APP0000408704      30OI36003712020009002-495101010882536    JAKARTA                  
AG-BANK ARTHA GRAHA              15022200000033614022208543340021058987599999999999990000001200000000000000000000007000975325865733APP0000975325      30OM36003700059637002-479301021280535    JAKARTA                  
AG-BANK ARTHA GRAHA              15022200000033714022208545340021058987599999999999990000020000000000000000000000007000085626865755APP0000975348      30OM36003700007778014-0083097792         JAKARTA                  
AG-BANK ARTHA GRAHA              15022200000033814022208550640021058987599999999999990000001005000000000000000000007000 40415865770APP0000975363      30OM36003700067355008-1730006219571      JAKARTA                  
AG-BANK ARTHA GRAHA              15022200000033914022208550740021058987599999999999990000003000000000000000000000007000771487865772APP0000975365      30OM36003700005128008-1200009802534      JAKARTA                  
AG-BANK ARTHA GRAHA              15022200000034014022208552440021058987599999999999990000001000000000000000000000007000820063865790APP0000975383      30OM36003700006990008-1630003786202      JAKARTA                  
AG-BANK ARTHA GRAHA              15022200000034114022208560040021058987599999999999990000000300000000000000000000007000975415865823APP0000975415      30OM36003700024914002-584501028100530    JAKARTA                  
AG-BANK ARTHA GRAHA              15022200000034214022208562640021058987599999999999990000006448600000000000000000007000085759865844APP0000975436      30OM36003700014513014-7600426481         JAKARTA                  
AG-BANK ARTHA GRAHA              15022200000034314022208572340021058987599999999999990000001500000000000000000000007000085855865945APP0000975538      30OM36003700007778014-7772424909         JAKARTA                  
AG-BANK ARTHA GRAHA              15022200000034414022208572740021058987599999999999990000002260000000000000000000007000085859865948APP0000975541      30OM36003700091484014-1341374745         JAKARTA                  
AG-BANK ARTHA GRAHA              15022200000034514022208575640021058987599999999999990000020029000000000000000000007000085929865971APP0000975563      30OM36003700019184014-0086080278         JAKARTA                  
AG-BANK ARTHA GRAHA              15022200000034614022208580140021058987599999999999990000000810000000000000000000007000085934865977APP0000975568      30OM36003700014671014-0530118185         JAKARTA                  
AG-BANK ARTHA GRAHA              15022200000034714022208584240021058987599999999999990000000200000000000000000000007000967135866029APP0000975618      30OM36003700036545008-1290010926802      JAKARTA                  
AG-BANK ARTHA GRAHA              15022200000034814022208584540021058987599999999999990000000300000000000000000000007000975622866033APP0000975622      30OM36003700068780002-423201013546539    JAKARTA                  
AG-BANK ARTHA GRAHA              15022200000034914022208591940021058987599999999999990000000070000000000000000000007000099999866081APP0000975671      30OM36003700080157008-1570005755153      JAKARTA                  
AG-BANK ARTHA GRAHA              15022200000035014022208594240021058987599999999999990000000200000000000000000000007000090115866104APP0000975694      30OM36003700015248014-1221694142         JAKARTA                  
AG-BANK ARTHA GRAHA              15022200000035114022209001340021058987590111111111100000000700000000000000000000007000409155013155APP0000409155      30OI36003715060024002-305601056105537    JAKARTA                  
AG-BANK ARTHA GRAHA              15022200000035214022209003140021058987599999999999990000000160000000000000000000007000090207866173APP0000975763      30OM36003700000119014-5475050336         JAKARTA                  
AG-BANK ARTHA GRAHA              15022200000035314022209004940021058987599999999999990000000580000000000000000000007000090221866184APP0000975773      30OM36003700011625014-0201426731         JAKARTA                  
AG-BANK ARTHA GRAHA              15022200000035414022209010740021058987599999999999990000000500000000000000000000007000090239866194APP0000975783      30OM36003700055760014-6530105481         JAKARTA                  
AG-BANK ARTHA GRAHA              15022200000035514022209011940021058987599999999999990000002235000000000000000000007000090251866204APP0000975793      30OM36003700024033014-6260721877         JAKARTA                  
AG-BANK ARTHA GRAHA              15022200000035614022209013840021058987599999999999990000001000000000000000000000007000090310866238APP0000975826      30OM36003700007094014-8855143280         JAKARTA                  
AG-BANK ARTHA GRAHA              15022200000035714022209014340021058987599999999999990000001000000000000000000000007000975834866246APP0000975834      30OM36003700068340002-208601000196304    JAKARTA                  
AG-BANK ARTHA GRAHA              15022200000035814022209014640021058987599999999999990000000300000000000000000000007000975837866249APP0000975837      30OM36003700054172002-531501014605531    JAKARTA                  
AG-BANK ARTHA GRAHA              15022200000035914022209014940021058987590111111111100000000250000000000000000000007000409572109572APP0000409572      30OI36003711010016002-302101025012534    JAKARTA                  
AG-BANK ARTHA GRAHA              15022200000036014022209015940021058987590111111111100000000500000000000000000000007000409373119373APP0000409373      30OI36003714005000002-347501025936537    JAKARTA                  
AG-BANK ARTHA GRAHA              15022200000036114022209024340021058987599999999999990000008940000000000000000000007000090416866301APP0000975889      30OM36003700024033014-1793002363         JAKARTA                  
AG-BANK ARTHA GRAHA              15022200000036214022209024740021058987590111111111100000000600000000000000000000007000034493167432APP0000409432      30OI36003715060024008-9000018488750      JAKARTA                  
AG-BANK ARTHA GRAHA              15022200000036314022209034140021058987599999999999990000000390000000000000000000007000345439866334APP0000975923      30OM36003700042398008-1410015375355      JAKARTA                  
AG-BANK ARTHA GRAHA              15022200000036414022209035640021058987590700530540010000000050000000000000000000007000719007002006APP0000502006      30ATM00803        013-9913634443         A                        
AG-BANK ARTHA GRAHA              15022200000036514022209045140021058987599999999999990000000038232000000000000000007000796263866387APP0000975975      30OM36003700022127009-0983630171         JAKARTA                  
AG-BANK ARTHA GRAHA              15022200000036614022209050840021058987599999999999990000000250000000000000000000007000090640866395APP0000975982      30OM36003700003301014-0342218146         JAKARTA                  
AG-BANK ARTHA GRAHA              15022200000036714022209051940021058987590111111111100000000200000000000000000000007000340236319646APP0000409646      30OI36003719040009124-1662048166         JAKARTA                  
AG-BANK ARTHA GRAHA              15022200000036814022209060940021058987590111111111100000003500000000000000000000007000409693369693APP0000409693      30OI36003715060001002-494701029014537    JAKARTA                  
AG-BANK ARTHA GRAHA              15022200000036914022209075440021058987599999999999990000000925000000000000000000007000090931866535APP0000976122      30OM36003700089057014-4660285551         JAKARTA                  
AG-BANK ARTHA GRAHA              15022200000037014022209080240021058987599999999999990000000500000000000000000000007000947305866544APP0000976131      30OM36003700000078548-1000975237         JAKARTA                  
AG-BANK ARTHA GRAHA              15022200000037114022209082740021058987599999999999990000000168000000000000000000007000091001866577APP0000976165      30OM36003700000878014-0094949137         JAKARTA                  
AG-BANK ARTHA GRAHA              15022200000037214022209083340021058987590111111111100000000150000000000000000000007000409923513923APP0000409923      30OI36003716020000002-749601009589538    JAKARTA                  
AG-BANK ARTHA GRAHA              15022200000037314022209083440021058987599999999999990000000500000000000000000000007000091007866586APP0000976174      30OM36003700002634014-4582520775         JAKARTA                  
AG-BANK ARTHA GRAHA              15022200000037414022209092140021058987590111111111100000000341000000000000000000007000066991561033APP0000409033      30OI36003719050008009-0780669903         JAKARTA                  
AG-BANK ARTHA GRAHA              15022200000037514022209095940021058987599999999999990000000182000000000000000000007000091131866684APP0000976226      30OM36003700086899014-6640522311         JAKARTA                  
AG-BANK ARTHA GRAHA              15022200000037614022209105040021058987599999999999990000000100000000000000000000007000091223866745APP0000976332      30OM36003700070382014-6250636731         JAKARTA                  
AG-BANK ARTHA GRAHA              15022200000037714022209110340021058987599999999999990000000150000000000000000000007000091236866769APP0000976356      30OM36003700080157014-8945149716         JAKARTA                  
AG-BANK ARTHA GRAHA              15022200000037814022209113640021058987599999999999990000000030000000000000000000007000091309866794APP0000976382      30OM36003700033785014-8840581242         JAKARTA                  
AG-BANK ARTHA GRAHA              15022200000037914022209114840021058987599999999999990000001061600000000000000000007000161168866817APP0000976404      30OM36003700008394009-9882255501099709   JAKARTA                  
AG-BANK ARTHA GRAHA              15022200000038014022209115240021058987599999999999990000001000633000000000000000007000091325866822APP0000976409      30OM36003700044616014-1041333222         JAKARTA                  
AG-BANK ARTHA GRAHA              15022200000038114022209115740021058987599999999999990000000200000000000000000000007000165199866824APP0000976412      30OM36003700004781009-1280366397         JAKARTA                  
AG-BANK ARTHA GRAHA              15022200000038214022209115840021058987599999999999990000011000000000000000000000007000091331866825APP0000976413      30OM36003700038574014-8800493596         JAKARTA                  
AG-BANK ARTHA GRAHA              15022200000038314022209122740021058987599999999999990000000470000000000000000000007000091400866856APP0000976444      30OM36003700044994014-6042992212         JAKARTA                  
AG-BANK ARTHA GRAHA              15022200000038414022209124040021058987599999999999990000001050000000000000000000007000051103866872APP0000976460      30OM36003700054549008-1290010440366      JAKARTA                  
AG-BANK ARTHA GRAHA              15022200000038514022209124340021058987599999999999990000000300000000000000000000007000091416866875APP0000976463      30OM36003700062680014-6320074825         JAKARTA                  
AG-BANK ARTHA GRAHA              15022200000038614022209124540021058987599999999999990000000500000000000000000000007000378783866877APP0000976465      30OM36003700004394008-1500012034607      JAKARTA                  
AG-BANK ARTHA GRAHA              15022200000038714022209141740021058987599999999999990000001500000000000000000000007000091550866976APP0000976564      30OM36003700066380014-1090861421         JAKARTA                  
AG-BANK ARTHA GRAHA              15022200000038814022209143540021058987599999999999990000000300000000000000000000007000976585866997APP0000976585      30OM36003700018286002-038701038454500    JAKARTA                  
AG-BANK ARTHA GRAHA              15022200000038914022209144440021058987599999999999990000000050000000000000000000007000091616867026APP0000976615      30OM36003700056748014-5010382531         JAKARTA                  
AG-BANK ARTHA GRAHA              15022200000039014022209144540021058987590111111111100000000150000000000000000000007000409402885402APP0000409402      30OI36003711010007002-163201001653537    JAKARTA                  
AG-BANK ARTHA GRAHA              15022200000039114022209145840021058987599999999999990000000150000000000000000000007000091631867042APP0000976632      30OM36003700066380014-1090861421         JAKARTA                  
AG-BANK ARTHA GRAHA              15022200000039214022209160840021058987599999999999990000000200000000000000000000007000000RS0867144APP0000976734      30OM36003700051751123-1325190015         JAKARTA                  
AG-BANK ARTHA GRAHA              15022200000039314022209163140021058987599999999999990000002573180000000000000000007000091803867169APP0000976759      30OM36003700045101014-8580097333         JAKARTA                  
AG-BANK ARTHA GRAHA              15022200000039414022209163240021058987599999999999990000000150000000000000000000007000272090867170APP0000976760      30OM36003700048159009-0948558355         JAKARTA                  
AG-BANK ARTHA GRAHA              15022200000039514022209172040021058987590111111111100000000500000000000000000000007000255999040584APP0000409584      30OI36003715010026009-0723876204         JAKARTA                  
AG-BANK ARTHA GRAHA              15022200000039614022209174440021058987599999999999990000000500000000000000000000007000091917867249APP0000976838      30OM36003700073056014-1461393077         JAKARTA                  
AG-BANK ARTHA GRAHA              15022200000039714022209174740021058987599999999999990000000275000000000000000000007000091919867250APP0000976839      30OM36003700000696014-0671876821         JAKARTA                  
AG-BANK ARTHA GRAHA              15022200000039814022209175640021058987599999999999990000000250000000000000000000007000017364867263APP0000976852      30OM36003700043794147-8571520202107043   JAKARTA                  
AG-BANK ARTHA GRAHA              15022200000039914022209180840021058987599999999999990000000180000000000000000000007000976864867275APP0000976864      30OM36003700016772002-067101000809534    JAKARTA                  
AG-BANK ARTHA GRAHA              15022200000040014022209183840021058987599999999999990000001000000000000000000000007000976880867290APP0000976880      30OM36003700007689002-667401010748536    JAKARTA                  
AG-BANK ARTHA GRAHA              15022200000040114022209190040021058987599999999999990000000100000000000000000000007000333329867311APP0000976901      30OM36003700060996009-0692527404         JAKARTA                  
AG-BANK ARTHA GRAHA              15022200000040214022209215440021058987599999999999990000007000000000000000000000007000092327867472APP0000977062      30OM36003700047141014-5005611242         JAKARTA                  
AG-BANK ARTHA GRAHA              15022200000040314022209232140021058987599999999999990000000119000000000000000000007000092454867526APP0000977117      30OM36003700007689014-8770740453         JAKARTA                  
AG-BANK ARTHA GRAHA              15022200000040414022209233040021058987590800357580090000010000000000000000000000007000946324027030APP0000502030      30ATM09601        153-0000055147         JAKARTA                  
AG-BANK ARTHA GRAHA              15022200000040514022209240740021058987599999999999990000001600000000000000000000007000092541867602APP0000977193      30OM36003700079434014-6290183268         JAKARTA                  
AG-BANK ARTHA GRAHA              15022200000040614022209245440021058987599999999999990000020000000000000000000000007000092626867668APP0000977202      30OM36003700078922014-8705089091         JAKARTA                  
AG-BANK ARTHA GRAHA              15022200000040714022209253340021058987599999999999990000000500000000000000000000007000 01663867702APP0000977295      30OM36003700004363008-1450010497986      JAKARTA                  
AG-BANK ARTHA GRAHA              15022200000040814022209270740021058987599999999999990000002000000000000000000000007000092840867779APP0000977373      30OM36003700080451014-5735076083         JAKARTA                  
AG-BANK ARTHA GRAHA              15022200000040914022209273540021058987599999999999990000000060000000000000000000007000977395867800APP0000977395      30OM36003700046583002-759301009549534    JAKARTA                  
AG-BANK ARTHA GRAHA              15022200000041014022209281740021058987599999999999990000000200000000000000000000007000092949867845APP0000977442      30OM36003700008821014-1780182519         JAKARTA                  
AG-BANK ARTHA GRAHA              15022200000041114022209281840021058987599999999999990000000093000000000000000000007000977443867846APP0000977443      30OM36003700066439002-026801072150508    JAKARTA                  
AG-BANK ARTHA GRAHA              15022200000041214022209284840021058987590111111111100000000410000000000000000000007000409318728318APP0000409318      30OI36003712010008002-166401000190533    JAKARTA                  
AG-BANK ARTHA GRAHA              15022200000041314022209290840021058987599999999999990000000100100000000000000000007000576357867877APP0000977474      30OM36003700000813009-6005600545         JAKARTA                  
AG-BANK ARTHA GRAHA              15022200000041414022209292640021058987590800357580090000002000000000000000000000007000988595027035APP0000502035      30ATM09601        087-4096750142862298   JAKARTA                  
AG-BANK ARTHA GRAHA              15022200000041514022209294840021058987590502588290010000000480000000000000000000007000564738149150APP0000502150      30A0028202        009-0839382995         PALEMBANG                
AG-BANK ARTHA GRAHA              15022200000041614022209310640021058987599999999999990000000100000000000000000000007000116866867984APP0000977583      30OM36003700002811501-000230451546       JAKARTA                  
AG-BANK ARTHA GRAHA              15022200000041714022209321040021058987599999999999990000000800000000000000000000007000093343868048APP0000977645      30OM36003700001050014-2871239586         JAKARTA                  
AG-BANK ARTHA GRAHA              15022200000041814022209321040021058987599999999999990000002500000000000000000000007000093343868049APP0000977646      30OM36003700000688014-1671482358         JAKARTA                  
AG-BANK ARTHA GRAHA              15022200000041914022209322240021058987590111111111100000000052000000000000000000007000015543942638APP0000409638      30OI36003718010006125-4030206000026      JAKARTA                  
AG-BANK ARTHA GRAHA              15022200000042014022209322240021058987599999999999990000000200000000000000000000007000 51839868070APP0000977668      30OM36003700091485008-1520018357505      JAKARTA                  
AG-BANK ARTHA GRAHA              15022200000042114022209324840021058987590800401230090000000800000000000000000000007000502130127130APP0000502130      30A0030005        002-759301009880532    PONTIANAK                
AG-BANK ARTHA GRAHA              15022200000042214022209330940021058987590111111111100000000401500000000000000000007000409739989739APP0000409739      30OI36003714010001002-032201012536538    JAKARTA                  
AG-BANK ARTHA GRAHA              15022200000042314022209335140021058987599999999999990000000275000000000000000000007000093524868147APP0000977748      30OM36003700004616014-0700146553         JAKARTA                  
AG-BANK ARTHA GRAHA              15022200000042414022209341940021058987599999999999990000000040000000000000000000007000977770868169APP0000977770      30OM36003700049681002-027701026585500    JAKARTA                  
AG-BANK ARTHA GRAHA              15022200000042514022209342940021058987599999999999990000000200041000000000000000007000977779868177APP0000977779      30OM36003700053228002-089901002663506    JAKARTA                  
AG-BANK ARTHA GRAHA              15022200000042614022209343040021058987599999999999990000000110000000000000000000007000093603868178APP0000977780      30OM36003700069930014-6500297121         JAKARTA                  
AG-BANK ARTHA GRAHA              15022200000042714022209351640021058987590111111111100000000630001000000000000000007000685116116928APP0000409928      30OI36003712010044009-839698987          JAKARTA                  
AG-BANK ARTHA GRAHA              15022200000042814022209351640021058987590111111111100000000050000000000000000000007000019581019396APP0000516396      30OI36003710302867008-1150006615662      JAKARTA                  
AG-BANK ARTHA GRAHA              15022200000042914022209365040021058987599999999999990000000500000000000000000000007000756663868327APP0000977929      30OM36003700003558009-0397418050         JAKARTA                  
AG-BANK ARTHA GRAHA              15022200000043014022209365540021058987599999999999990000000300000000000000000000007000093828868343APP0000977945      30OM36003700049663014-6043250651         JAKARTA                  
AG-BANK ARTHA GRAHA              15022200000043114022209370340021058987599999999999990000000200000000000000000000007000093836868350APP0000977952      30OM36003700006119014-1981521191         JAKARTA                  
AG-BANK ARTHA GRAHA              15022200000043214022209373040021058987599999999999990000000400000000000000000000007000977976868374APP0000977976      30OM36003700057081002-368901003193530    JAKARTA                  
AG-BANK ARTHA GRAHA              15022200000043314022209374640021058987599999999999990000025000000000000000000000007000093923868388APP0000977990      30OM36003700037926014-8620879798         JAKARTA                  
AG-BANK ARTHA GRAHA              15022200000043414022209375540021058987599999999999990000000425000000000000000000007000872040868399APP0000978001      30OM36003700028378451-9026175760         JAKARTA                  
AG-BANK ARTHA GRAHA              15022200000043514022209380340021058987599999999999990000001700000000000000000000007000988652868417APP0000978019      30OM36003700000714087-4096750143388186   JAKARTA                  
AG-BANK ARTHA GRAHA              15022200000043614022209380940021058987599999999999990000002700000000000000000000007000093942868424APP0000978027      30OM36003700061042014-7720277551         JAKARTA                  
AG-BANK ARTHA GRAHA              15022200000043714022209384040021058987599999999999990000000500000000000000000000007000571527868464APP0000978068      30OM36003700058781022-703741767900       JAKARTA                  
AG-BANK ARTHA GRAHA              15022200000043814022209384740021058987599999999999990000025000000000000000000000007000730444868467APP0000978070      30OM36003700076944013-9852052756         JAKARTA                  
AG-BANK ARTHA GRAHA              15022200000043914022209384840021058987599999999999990000000300000000000000000000007000010406868471APP0000978074      30OM36003700076044009-1280356334         JAKARTA                  
AG-BANK ARTHA GRAHA              15022200000044014022209385140021058987599999999999990000001000000000000000000000007000094025868476APP0000978080      30OM36003700046183014-5475367801         JAKARTA                  
AG-BANK ARTHA GRAHA              15022200000044114022209390440021058987590111111111100000000400000000000000000000007000409152344152APP0000409152      30OI36003710050003002-347601023601538    JAKARTA                  
AG-BANK ARTHA GRAHA              15022200000044214022209391140021058987599999999999990000002000000000000000000000007000094045868488APP0000978092      30OM36003700001973014-4580355345         JAKARTA                  
AG-BANK ARTHA GRAHA              15022200000044314022209391640021058987599999999999990000008000000000000000000000007000094049868495APP0000978098      30OM36003700001476014-4050361883         JAKARTA                  
AG-BANK ARTHA GRAHA              15022200000044414022209405440021058987599999999999990000005000000000000000000000007000094227868615APP0000978218      30OM36003700074946014-3011591521         JAKARTA                  
AG-BANK ARTHA GRAHA              15022200000044514022209414340021058987590111111111100000000062381000000000000000007068409397503397D/F0500409397      30OI36003712010005002-1236213612391903   JAKARTA                  
AG-BANK ARTHA GRAHA              15022200000044614022209421940021058987599999999999990000000050000000000000000000007000094352868701APP0000978306      30OM36003700070809014-4960325180         JAKARTA                  
AG-BANK ARTHA GRAHA              15022200000044714022209425940021058987599999999999990000001000000000000000000000007000978355868750APP0000978355      30OM36003700079937002-402501012848533    JAKARTA                  
AG-BANK ARTHA GRAHA              15022200000044814022209430140021058987599999999999990000025000000000000000000000007000415839868751APP0000978356      30OM36003700086836008-1180010897378      JAKARTA                  
AG-BANK ARTHA GRAHA              15022200000044914022209431940021058987599999999999990000000100000000000000000000007000094452868779APP0000978385      30OM36003700059393014-5730087995         JAKARTA                  
AG-BANK ARTHA GRAHA              15022200000045014022209435140021058987590111111111100000000300000000000000000000007000021309631537APP0000409537      30OI36003715040001008-1620005364108      JAKARTA                  
AG-BANK ARTHA GRAHA              15022200000045114022209435840021058987599999999999990000000600000000000000000000007000094531868843APP0000978449      30OM36003700062400014-0680025380         JAKARTA                  
AG-BANK ARTHA GRAHA              15022200000045214022209440140021058987599999999999990000000500000000000000000000007000094533868844APP0000978450      30OM36003700091158014-5775299301         JAKARTA                  
AG-BANK ARTHA GRAHA              15022200000045314022209440840021058987590111111111100000001000000000000000000000007000409618648618APP0000409618      30OI36003716020000002-749601009589538    JAKARTA                  
AG-BANK ARTHA GRAHA              15022200000045414022209442240021058987599999999999990000000200000000000000000000007000094555868882APP0000978486      30OM36003700011603014-1772013579         JAKARTA                  
AG-BANK ARTHA GRAHA              15022200000045514022209442640021058987599999999999990000000825000000000000000000007000094558868887APP0000978491      30OM36003700051835014-7911047831         JAKARTA                  
AG-BANK ARTHA GRAHA              15022200000045614022209443940021058987599999999999990000000300000000000000000000007000571838868905APP0000978511      30OM36003700090807022-762616854700       JAKARTA                  
AG-BANK ARTHA GRAHA              15022200000045714022209452640021058987599999999999990000006600000000000000000000007000813971868952APP0000978559      30OM36003700062393028-300810026611       JAKARTA                  
AG-BANK ARTHA GRAHA              15022200000045814022209461940021058987599999999999990000001000000000000000000000007000094751869009APP0000978613      30OM36003700004033014-8010673110         JAKARTA                  
AG-BANK ARTHA GRAHA              15022200000045914022209462840021058987599999999999990000000794000000000000000000007000094801869023APP0000978627      30OM36003700011903014-4920906325         JAKARTA                  
AG-BANK ARTHA GRAHA              15022200000046014022209471640021058987599999999999990000000660617000000000000000007000269242869074APP0000978675      30OM36003700089135031-4140092071424774   JAKARTA                  
